S015000052656D6F7465436F6E74726F6C2E73726563C2
S11300000C94FE000C941D010C941D010C9421050C
S11300100C941D010C941D010C941D010C941D01E4
S11300200C941D010C941D010C941D010C941D01D4
S11300300C941D010C941D010C9497060C941D0145
S11300400C941D010C941D010C941D010C941D01B4
S11300500C941D010C941D010C941D010C941D01A4
S11300600C941D010C941D010C941D010C941D0194
S11300700C941D010C941D010C941D010C941D0184
S11300800C941D010C941D010C941D010C941D0174
S11300900C941D010C941D010C941D010C941D0164
S11300A00C941D010C941D010C941D010C941D0154
S11300B00C941D010C941D010C941D010C941D0144
S11300C00C941D010C941D010C941D010C941D0134
S11300D00C941D010C941D010C941D010C941D0124
S11300E00C941D010C941D010C941D010C941D0114
S11300F00C941D010C941D010C941D010C941D0104
S11301000C941D010C941D010C941D010C941705F5
S11301100C941D010C941D010C941D010C941D01E3
S11301200C941D010C941D010C941D010C941D01D3
S11301300C941D010C941D010C941D010C941D01C3
S11301400C941D010C941D010C941D010C941D01B3
S11301500C941D010C941D010C941D010C941D01A3
S11301600C941D010C941D010C941D010C941D0193
S11301700C941D010C941D010C941D010C941D0183
S11301800C941D010C941D010C941D010C941D0173
S11301900C941D010C941D010C941D010C941D0163
S11301A00C941D010C941D010C941D010C941D0153
S11301B00C941D010C941D010C941D010C941D0143
S11301C00C941D010C941D010C941D010C941D0133
S11301D00C941D010C941D010C941D010C941D0123
S11301E00C941D010C941D010C941D010C941D0113
S11301F00C941D010C941D010C941D0111241FBEAF
S1130200CFEFCDBFDFE2DEBF11E2A0E0B0E2E8E471
S1130210FFE200E00BBF02C007900D92AE33B107BE
S1130220D9F722E2AEE3B1E201C01D92AB30B207CE
S1130230E1F70E94D0100C94A2170C940000AF9226
S1130240BF92CF92DF92EF92FF920F931F9380930E
S11302504C2190934D2160934A2170934B214093FC
S113026048215093492120934621309347210093FC
S1130270442110934521E0924221F0924321C092FF
S11302804021D0924121A0923E21B0923F21F7011A
S11302900995E0914021F09141210995E091422195
S11302A0F09143210995E0914021F0914121099574
S11302B0E0914C21F0914D2181E090E00995E0918D
S11302C04221F09143210995E0913E21F0913F2193
S11302D00995892BC9F7E0914A21F0914B2180E3DC
S11302E00995E0913E21F0913F210995892BC9F7A9
S11302F0E0914021F09141210995E0914C21F09148
S11303004D2181E090E009951F910F91FF90EF90AE
S1130310DF90CF90BF90AF900895CF93C82FE09116
S11303204221F09143210995E0914A21F0914B211A
S11303308C2F80680995E0914821F0914921099515
S1130340C82FE0914021F091412109958C2FCF9144
S11303500895CF93DF93D82FC62FE0914221F091D7
S113036043210995E0914A21F0914B218D2F099564
S1130370E0914A21F0914B218C2F0995E091402185
S1130380F09141210995DF91CF910895CF93C82F22
S1130390E0914221F09143210995E0913E21F091B1
S11303A03F210995892BC9F7E0914A21F0914B210E
S11303B08C2F0995C82FE0914021F0914121099596
S11303C08C2FCF9108950F931F93CF93DF93EC015C
S11303D08B01E0914221F09143210995E0914A215A
S11303E0F0914B218FE70995E0914621F091472147
S11303F0B801CE010995E0914021F0914121099580
S1130400DF91CF911F910F9108950F931F93CF9375
S1130410DF93EC018B01E0914221F0914321099596
S1130420E0914A21F0914B218FEF0995E09144210D
S1130430F0914521B801CE010995E0914021F09158
S113044041210995DF91CF911F910F910895806CFF
S11304500E948D0108958DE30E94C60182958F70DC
S11304608770863019F0873029F008C08AE30E942B
S1130470C60107C08BE30E94C60103C086E30E9445
S1130480C6018DE30E94C60182958F708770C9F7FB
S113049008950E942B0283E30E94C6018DE30E940B
S11304A0C60182958F708770C9F708950F931F93C3
S11304B0CF93DF93C1E0D0E205E110E2FE01319772
S11304C0688180810E94A9012296C017D107B1F7E3
S11304D0DF91CF911F910F910895CF93C82F0E9460
S11304E05602C13011F46CE001C064E087E00E9460
S11304F0A901CF9108950F931F93CF93DF93E091B8
S11305004221F09143210995E0914A21F0914B2138
S11305108EE70995C6E1D0E20EE110E2E0914A21AE
S1130520F0914B2189910995C017D107B9F7E09152
S11305304021F09141210995DF91CF911F910F91B5
S113054008951F93CF93DF93EC01162F688361E026
S113055070E00E94E301612F70E0CE010E94E3018C
S1130560DF91CF911F910895CF92DF92EF92FF9286
S11305700F931F93CF93DF931F92CDB7DEB76C0118
S11305807B018A0161E070E0CE0101960E940502C0
S1130590698170E0C6010E94050261E070E0C70154
S11305A00E94050261E070E0C8010E940502898191
S11305B00F90DF91CF911F910F91FF90EF90DF90FB
S11305C0CF90089580934E2190934F21089560E138
S11305D08DE00E94A90160914F218EE00E94A90143
S11305E060914E218FE00E94A9010895141615060A
S11305F0160617067CF4FC01480F591F80E0A191F0
S11306008A27A82FB0E0A25CBF4D8C91E417F507B0
S1130610B1F7089580E00895CF93DF93EC014CE0A7
S113062050E060E074E00E945B174CE050E060E052
S113063070E0CE010E94F602682F8CE094E00E94E4
S11306407617DF91CF9108952CE0FC0111922A9541
S1130650E9F74FEF5FEFBA01FC01448355836683EA
S113066077830895CF934CE050E060E074E082ED2E
S113067091E20E943F178CE094E00E944B17C82F30
S11306804CE050E060E070E082ED91E20E94F602FE
S11306908C17C9F082ED91E20E9424034CE050E0F3
S11306A060E074E082ED91E20E945B174CE050E060
S11306B060E070E082ED91E20E94F602682F8CE027
S11306C094E00E947617CF910895FC0184E290E0B3
S11306D08083918320E8228388E190E08683978356
S11306E02087138214821582399620E030E011921B
S11306F011922F5F3F4F2E303105C9F70895CF93E4
S113070047E650E060E070E08FE591E20E943F1719
S113071087E690E00E944B17C82F47E650E060E060
S113072070E08FE591E20E94F6028C17C9F08FE524
S113073091E20E94650347E650E060E070E08FE5D7
S113074091E20E945B1747E650E060E070E08FE5BD
S113075091E20E94F602682F87E690E00E947617E5
S1130760CF910895CF93DF93EC0147E650E060E02A
S113077070E00E945B1747E650E060E070E0CE0155
S11307800E94F602682F87E690E00E947617DF91B8
S1130790CF9108958823C9F090E00F9200000F9044
S11307A00F9200000F900F9200000F900F92000024
S11307B00F900F9200000F900F9200000F900F9275
S11307C000000F909F5F9813E8CF08950F931F9335
S11307D0CF93DF938C01009791F0C0E0D0E08AEFD3
S11307E00E94CA038AEF0E94CA038AEF0E94CA03C6
S11307F08AEF0E94CA032196C017D10781F7DF91BF
S1130800CF911F910F91089588ED84BF82E080936A
S11308105000E0E5F0E0818181FFFDCF88ED84BFE9
S113082081E0809340000895AAECB1E022E02C938B
S1130830FC0184911C920895CF93DF938091000270
S113084080FD1EC0C0E0D2E081E088839981906180
S113085099838A831B8285E08C8380E290E00E94E6
S113086014048C8781E290E00E9414048D872FEF9A
S113087089EF90E0215080409040E1F700C00000F3
S1130880E0E0F2E081E080A311A212A280A18068DE
S113089080A386818823E9F3E0E0F2E08681868301
S11308A080A1806880A386818823E9F3E0E0F2E0F8
S11308B08681868380899189DF91CF910895CF9332
S11308C0DF93CDB7DEB72797CDBFDEBF0E94D71623
S11308D080958F708B838B812FE3829FC0011124BD
S11308E08054994989839A8347E650E060E070E038
S11308F08FE591E20E943F1720915F2130916021A2
S113090089819A81820F931F89839A8389E393E073
S11309108C839D832C813D81ABEABAEA0E94301717
S11309209C013695279536952795369527958DE024
S113093090E0821B930B8E839F838C819D819923EE
S11309402CF48DE090E08E839F8307C08C819D8181
S1130950883A910510F01E821F8289819A810E9433
S1130960E2022796CDBFDEBFDF91CF910895EF92CB
S1130970FF920F931F93CF93DF938C01F62EE42EF7
S11309800E945F0481E00E946D020E94E7026EE013
S113099082E00E94A9010E942B028AE30E94C60100
S11309A00E94490284E30E94C601C0E0D6E088E1C7
S11309B08A8B8AE090E00E94E603888582FF04C067
S11309C00E942B02EE2049F1E0E0F6E0128A80E07A
S11309D00E946D020E94E7020E942B020E944902BB
S11309E06F2D70E0C8010E94A10260E087E10E94BF
S11309F0A90169E082E00E94A90166E082E00E9408
S1130A00A90185E30E94C6010E9472168823E1F3BE
S1130A100E9472168111FCCF02C085E501C081E0FD
S1130A20DF91CF911F910F91FF90EF9008951F9246
S1130A300F920FB60F9211240F900FBE0F901F90BC
S1130A4018951F920F920FB60F9211240F900FBE9C
S1130A500F901F901895AF92BF92DF92EF92FF9282
S1130A600F931F93CF935C018B017A01C22F0E94D5
S1130A702B020E945F04C23009F08EC064E088E15A
S1130A800E94A90167E086E10E94A90181E00E9419
S1130A906D020E94E70266E082E00E94A9010E94C2
S1130AA02B028AE30E94C6010E94490284E30E9449
S1130AB0C601109220201092212007C020912020EE
S1130AC0309121202833310524F40E9472168823A2
S1130AD0A9F31092202010922120C0E00E947216E7
S1130AE0813031F0C13009F4CDC0C230E1F4C7C067
S1130AF00E947216882311F0C23091F483E30E949D
S1130B00270288237CF4A701B801C5010E94B4021E
S1130B102FEF3FEF2093202030932120D82EB7C011
S1130B20C1E001C0C2E02091202030912120273271
S1130B303240A4F28FEF9FEF8093202090932120E6
S1130B40D12CA5C00E941116811111C00E94081653
S1130B5081110DC00E940016811109C00E94EE157A
S1130B60811105C00E94F715D82E882341F081E039
S1130B70809308220F2EF7E7DF2EF02D88C083E341
S1130B800E94270288230CF082C0A701B801C50186
S1130B900E94B402D82E7BC081E00E946D020E94A4
S1130BA0E70266E082E00E94A9010E942B028AE328
S1130BB00E94C6010E94490284E30E94C601E0E447
S1130BC0F6E084E083878CE08187E0E0F6E09CEF48
S1130BD09387818766E082E00E94A90160E28EE14A
S1130BE00E94A9016FEF8FE10E94A90168E080E2F1
S1130BF00E94A90168E188E10E94A90160E086E100
S1130C000E94A90188E30E94C60180E090E00E944E
S1130C105B169DEF88ED08B618BE84BF90938000E4
S1130C2008BEE8E4F0E08081866080838081816092
S1130C3080838895E0E4F6E01386E0E0F6E013862E
S1130C4020E097E288ED08B618BE84BF9093800038
S1130C502091820021FDFCCF08BE81E090E00E943B
S1130C605B169FEF21EE84E0915020408040E1F735
S1130C7000C000000E941A16811179CF63CF0E9430
S1130C8072163CCF0E94721681114DCF37CF8D2D35
S1130C90CF911F910F91FF90EF90DF90BF90AF9095
S1130CA008950E94E70287E10E948D018C7F682FDE
S1130CB0626087E10E94A90182E10E948D01682F90
S1130CC0677F82E10E94A90163E381E10E94A90197
S1130CD082E10E948D018F78682F606382E10E9417
S1130CE0A90160E182E20E94A90160E382E00E941E
S1130CF0A9010E942B020E9449028BE30E94C601B3
S1130D006EE082E00E94A90185E30E94C601089575
S1130D10E0E0F8E08AE590E086A397A38081807FF5
S1130D208560808386818C7F8260868308951F928C
S1130D300F920FB60F9211240BB60F922F933F937D
S1130D404F935F936F937F938F939F93AF93BF93CF
S1130D50EF93FF9380910822813051F490915821B0
S1130D60892780935821809158210E94661603C0D8
S1130D7080E00E94661680911E2090911F20992386
S1130D804CF080911E2090911F20019680931E208C
S1130D9090931F20809120209091212099234CF042
S1130DA0809120209091212001968093202090937F
S1130DB0212080915021909151219C012F5F3F4F20
S1130DC02093502130935121893D9A40F4F1809130
S1130DD0522190915321892B29F010925221109283
S1130DE0532109C0809152219091532101968093FF
S1130DF0522190935321809124209091252099236E
S1130E0004F180912C2090912D20181619063CF0A5
S1130E1080915221909153210E94C61612C080E005
S1130E200E94961680E00E948B1680E00E94A21613
S1130E3080E00E94AE1680E00E94BA1680E00E9414
S1130E40C6161092502110925121809156219091F2
S1130E5057219C012F5F3F4F2093562130935721F8
S1130E60833B95410CF415C11092562110925721E1
S1130E7080913C2090913D2099234CF080913C201E
S1130E8090913D20019680933C2090933D20809149
S1130E903A2090913B2099234CF080913A209091F4
S1130EA03B20019680933A2090933B2080913820F8
S1130EB09091392099234CF08091382090913920D9
S1130EC00196809338209093392080913620909118
S1130ED0372099234CF08091362090913720019649
S1130EE08093362090933720809134209091352040
S1130EF099234CF080913420909135200196809371
S1130F00342090933520809132209091332099237E
S1130F104CF08091322090913320019680933220BE
S1130F209093332080912C2090912D2099234CF084
S1130F3080912C2090912D20019680932C209093C9
S1130F402D2080912A2090912B2099234CF0809180
S1130F502A2090912B20019680932A2090932B2075
S1130F6080912A2090912B200B9734F08FEF9FEFE4
S1130F7080932A2090932B208091302090913120CF
S1130F8099234CF0809130209091312001968093E8
S1130F90302090933120809130209091312004971B
S1130FA034F08FEF9FEF8093302090933120809125
S1130FB02E2090912F2099234CF080912E209091F7
S1130FC02F20019680932E2090932F2080912E2005
S1130FD090912F20039734F08FEF9FEF80932E2072
S1130FE090932F20809154219091552188359240DF
S1130FF04CF4809154219091552101968093542171
S113100090935521809124209091252099234CF090
S11310108091242090912520019680932420909300
S113102025208091282090912920992394F1809162
S1131030282090912920892BC9F481E00E949616DA
S113104080912820909129200196809328209093C4
S113105029200E94D21690E0809590958F70992750
S11310600697B9F481E00E94C61613C080E00E947E
S1131070961610922820109229200E94D21690E0F1
S1131080809590958F709927069719F480E00E94B7
S1131090C616FF91EF91BF91AF919F918F917F9170
S11310A06F915F914F913F912F910F900BBE0F90D5
S11310B00FBE0F901F90189581E0809308222FEFA8
S11310C08BE49DE1215080409040E1F700C0000096
S11310D0109208222FEF8BE49DE121508040904034
S11310E0E1F700C0000081E0809308222FEF8BE439
S11310F09DE1215080409040E1F700C00000109233
S113110008222FEF8BE49DE1215080409040E1F7CD
S113111000C0000081E0809308222FEF8BE49DE162
S1131120215080409040E1F700C000001092082256
S11311302FEF8BE49DE1215080409040E1F700C007
S1131140000008950F931F93CF93DF93CDB7DEB7BD
S11311506E97CDBFDEBF8091D6219091D721A0910B
S1131160D821B091D9218A839B83AC83BD838FE03E
S11311708C8781E0898B1A8A85E08B8B0E945F04BF
S113118041E06CE1CE0101960E94B70410921E204A
S113119010921F2006ED11E20E945F0422E0AE01CE
S11311A0425E5F4FBE01635E7F4FCE0101960E9497
S11311B02B058823B1F0F80180819181A281B3814C
S11311C04A815B816C817D81481759076A077B07D7
S11311D041F48C858F3029F48D8D8093592181E0E1
S11311E010C00E942B0280911E2090911F20813DEF
S11311F0974094F28FEF9FEF80931E2090931F20CF
S113120080E06E96CDBFDEBFDF91CF911F910F912D
S11312100895CF92DF92EF92FF920F931F93CF9393
S1131220DF93CDB7DEB76C97CDBFDEBFE82EC92EF6
S1131230F62ED72E0091D6211091D7212091D821B6
S11312403091D9210A831B832C833D8381E18C87D0
S113125081E0898B1A8A85E08B8BEA866B870E94F2
S11312605F0441E06CE1CE0101960E94B704109244
S11312701E2010921F20A8950E945F0422E04F2D8B
S11312805D2D6E2D7C2DCE0101960E942B058823A9
S113129041F08FEF9FEF80931E2090931F2081E0F9
S11312A010C00E942B0220911E2030911F20213D4E
S11312B037400CF38FEF9FEF80931E2090931F20F5
S11312C080E06C96CDBFDEBFDF91CF911F910F916F
S11312D0FF90EF90DF90CF9008950E94EE159091CB
S11312E00722891729F10E94EE15813061F480915B
S11312F05E21811108C010923C2010923D2081E0B3
S11313008093082211C00E94EE15813059F4809117
S11313105E21813039F410923C2010923D2080935C
S1131320082202C00E94EE150E94EE158093072247
S11313300E94F71590910622891771F00E94F71503
S1131340813031F410923A2010923B20809308228D
S11313500E94F715809306220E94001690910A229B
S1131360891769F00E940016813039F410923820F0
S11313701092392091E09093082280930A220E94CF
S113138008169091DF21891771F00E9408168130A8
S113139031F41092362010923720809308220E9454
S11313A008168093DF210E9411169091DE2189177F
S11313B071F00E941116813031F410923420109291
S11313C03520809308220E9411168093DE210E940A
S11313D01A1690910522891771F00E941A1681300D
S11313E031F41092322010923320809308220E940C
S11313F01A168093052280913C2090913D200196FD
S113140001F580913A2090913B200196D1F480918E
S11314103820909139200196A1F480913620909142
S11314203720019671F480913420909135200196F3
S113143041F48091322090913320019611F410925E
S113144008220895CF93DF93CDB7DEB76C97CDBF55
S1131450DEBF8091E2219091E321A091E421B0913B
S1131460E5218E839F83A887B9878091D6219091A7
S1131470D721A091D821B091D9218A839B83AC83B1
S1131480BD831C860E945F0441E06CE1CE0101969D
S11314900E94B7046C96CDBFDEBFDF91CF91089553
S11314A0CF93DF93CDB7DEB76C97CDBFDEBF80910E
S11314B0E2219091E321A091E421B091E5218E8372
S11314C09F83A887B9878091D6219091D721A09135
S11314D0D821B091D9218A839B83AC83BD8381E0D9
S11314E08C870E945F0441E06CE1CE0101960E946A
S11314F0B7046C96CDBFDEBFDF91CF910895CF9333
S1131500DF93CDB7DEB76C97CDBFDEBF8091E2210C
S11315109091E321A091E421B091E5218E839F83F2
S1131520A887B9878091D6219091D721A091D821FD
S1131530B091D9218A839B83AC83BD8382E08C875D
S11315400E945F0441E06CE1CE0101960E94B70461
S11315506C96CDBFDEBFDF91CF910895CF93DF931B
S1131560CDB7DEB76C97CDBFDEBF8091E2219091FD
S1131570E321A091E421B091E5218E839F83A88784
S1131580B9878091D6219091D721A091D821B0918B
S1131590D9218A839B83AC83BD838EE08C870E9490
S11315A05F0441E06CE1CE0101960E94B7046C96A1
S11315B0CDBFDEBFDF91CF9108950F931F93CF93DB
S11315C0DF93CDB7DEB76C97CDBFDEBF0091E221CC
S11315D01091E3212091E4213091E5210E831F83B2
S11315E0288739876A837B838C839D8388E08C87F3
S11315F00E945F0441E06CE1CE0101960E94B704B1
S11316006C96CDBFDEBFDF91CF911F910F910895EE
S1131610CF93DF93CDB7DEB76C97CDBFDEBF80919C
S1131620E2219091E321A091E421B091E5218E8300
S11316309F83A887B9878091D6219091D721A091C3
S1131640D821B091D9218A839B83AC83BD8380E167
S11316508C870E945F0441E06CE1CE0101960E94F8
S1131660B7046C96CDBFDEBFDF91CF9108950F9381
S11316701F93CF93DF93CCE2D1E00FE511E2A8955D
S11316808AE090E00E94E6030E9411168130A1F4E2
S1131690F80180819181019680839183C8010E9421
S11316A0B20381E00E94C61684E690E00E94E6033D
S11316B080E00E94C61617C00E941A16813099F461
S11316C0F80180819181019780839183C8010E94F0
S11316D0B20381E00E94AE1684E690E00E94E60325
S11316E080E00E94AE162197209749F6DF91CF91B2
S11316F01F910F910895182F66E082E00E94A901BE
S11317000E9456020E947B0266E082E00E94A901C8
S1131710C0E0D0E019C081E00E94AE162FEF81EE48
S113172094E0215080409040E1F700C0000080E048
S11317300E94AE162FEF81EE94E02150804090403D
S1131740E1F700C0000021961C161D0624F71D3089
S1131750C9F40E942B020E945F0484E690E00E9478
S1131760E60380E00E946D0262E288E00E94A90123
S11317700E94E7020E942B020E94490285E30E9414
S1131780C6010CC01E3051F40E942B020E945F045B
S113179084E690E00E94E6030E9451060E94370B03
S11317A00E942B020E94370BC0E0D0E0CDCF1092F4
S11317B0082201E010E0C0E0D6E0802F0E9422164B
S11317C0888581FF0DC0A8952FEF87EA91E6215007
S11317D080409040E1F700C00000888581FDF3CF90
S11317E00F5F1F4F0930110544F301E010E0E5CF0E
S11317F081E00E948B162FEF81EE94E0215080400F
S11318009040E1F700C0000080E00E948B162FEFAB
S113181081EE94E0215080409040E1F700C0000048
S113182008950F931F93CF93DF93CDB7DEB76E97D1
S1131830CDBFDEBF4091D6215091D7216091D821F0
S11318407091D9214A835B836C837D8395E09C8767
S11318508D870E945F0441E06CE1CE0101960E94F5
S1131860B70410921E2010921F2006ED11E20E9470
S11318705F0422E0AE01425E5F4FBE01635E7F4FB4
S1131880CE0101960E942B058823D9F0F8018081AE
S11318909181A281B3814A815B816C817D814817EA
S11318A059076A077B0769F48C85853051F48FEFFB
S11318B09FEF80931E2090931F200E94F80B81E0DD
S11318C010C00E942B0280911E2090911F20893EFF
S11318D093406CF28FEF9FEF80931E2090931F2014
S11318E080E06E96CDBFDEBFDF91CF911F910F9147
S11318F0089581E00E94110C882369F081E08093AF
S11319005E2180935B210E94AE1681E00E94BA168C
S113191085E00E94221608952F923F924F925F9283
S11319206F927F928F929F92AF92BF92CF92DF92EB
S1131930EF92FF920F931F93CF93DF93CDB7DEB750
S11319406E97CDBFDEBF782EA12CB12C06ED11E22F
S11319500F2EF3E06F2EF02D0F2EF2EB2F2EF02D25
S11319600F2EF5E13F2EF02D412C512C88248A9422
S1131970982CA895F80180819181A281B3818A83F2
S11319809B83AC83BD836C86F1E07F1207C080919A
S11319905C21813009F082E08D8701C07D8681E081
S11319A08E870E945F0441E0C5018D7F049709F092
S11319B040E06CE1CE0101960E94B704853529F41C
S11319C0C22CD32CE42CF52C07C00F2EF7E3CF2E1A
S11319D0D12CE12CF12CF02D10921E2010921F20FE
S11319E00E945F0422E0AE01425E5F4FBE01635E6F
S11319F07F4FCE0101960E942B058823F1F0F80158
S1131A0080819181A281B3814A815B816C817D81D6
S1131A10481759076A077B0781F48C85833069F47A
S1131A208FEF9FEF80931E2090931F200E94F80B4E
S1131A308F8581111EC084E01FC00E942B028091FB
S1131A401E2090911F20AA2797FDA095BA2FC81693
S1131A50D906EA06FB0620F680921E2090921F20EB
S1131A60FFEFAF1ABF0A88E0A816B10409F081CFCE
S1131A7002C081E001C080E06E96CDBFDEBFDF9181
S1131A80CF911F910F91FF90EF90DF90CF90BF9077
S1131A90AF909F908F907F906F905F904F903F900A
S1131AA02F90089581E00E948C0C811106C088E07B
S1131AB00E9422160E945C0808958091262090912D
S1131AC02720019619F483E00E942216089583E0EA
S1131AD00E948C0C811106C088E00E9422160E948C
S1131AE05C080895843079F0809126209091272015
S1131AF0019619F483E00E94221610922E2010926F
S1131B002F2010920822089584E00E948C0C8111E9
S1131B1006C088E00E9422160E945C080895843062
S1131B2079F08091262090912720019619F483E082
S1131B300E94221610922E2010922F20109208221A
S1131B400895AF92BF92CF92DF92EF92FF920F93DC
S1131B501F93CF93DF93CDB7DEB76E97CDBFDEBFB4
S1131B60A82E0F2EF5E0EF2EF12CF02D06ED11E24C
S1131B706894BB24B2F8CC24CA94DC2CA895F80150
S1131B8080819181A281B3818A839B83AC83BD834D
S1131B90BC86AD860E945F0441E06CE1CE010196F3
S1131BA00E94B70410921E2010921F200E945F040E
S1131BB022E0AE01425E5F4FBE01635E7F4FCE0105
S1131BC001960E942B058823D9F08A819B81AC81E0
S1131BD0BD81F80140815181628173818417950729
S1131BE0A607B70769F48C85843051F48FEF9FEF13
S1131BF080931E2090931F200E94F80B81E01BC04D
S1131C000E942B0240911E2050911F20662757FDF1
S1131C106095762F483351056105710538F2C092FD
S1131C201E20D0921F20F1E0EF1AF108E114F10414
S1131C3009F0A4CF80E06E96CDBFDEBFDF91CF91D7
S1131C401F910F91FF90EF90DF90CF90BF90AF90D6
S1131C500895EF92FF920F931F93CF93DF93CDB725
S1131C60DEB76E97CDBFDEBF7C018091D621909107
S1131C70D721A091D821B091D9218C839D83AE83A3
S1131C80BF838DE08E870E945F0441E06CE1CE014A
S1131C9003960E94B70410921E2010921F2006ED96
S1131CA011E20E945F0422E0AE014E5F5F4FBE016D
S1131CB06F5F7F4FCE0103960E942B05882311F19D
S1131CC0F80140815181628173818C819D81AE8153
S1131CD0BF8184179507A607B707A1F48E858D30B9
S1131CE089F48FEF9FEF80931E2090931F200E9412
S1131CF0F80B8CE1FE013396D70101900D928A9581
S1131D00E1F718C00E942B0280911E2090911F20A1
S1131D10893E934034F28FEF9FEF80931E2090937F
S1131D201F208F878CE1FE013396D70101900D921D
S1131D308A95E1F7C7016E96CDBFDEBFDF91CF91E3
S1131D401F910F91FF90EF9008951F93CF93DF930E
S1131D50CDB7DEB76C97CDBFDEBF182F823039F414
S1131D60CE0101960E94290E8D85813019F08E8551
S1131D70813031F486E00E9422160E945C081FC064
S1131D80812F0E94A10D90E08130910529F41092D9
S1131D902E2010922F2008C0892B31F488E00E9455
S1131DA022160E945C080BC080915D21823021F4D0
S1131DB081E00E94C61603C080E00E94C6166C969D
S1131DC0CDBFDEBFDF91CF911F9108951F93CF93B5
S1131DD0DF9380913C2090913D20181619060CF059
S1131DE044C00E94EE158130D1F580915E218111AD
S1131DF015C02091DA2180913C2090913D2030E063
S1131E0021503109281739074CF40E94790C8FEFBF
S1131E109FEF80933C2090933D2027C080915E21CA
S1131E20813061F42091DB2180913C2090913D2010
S1131E3030E02150310928173907BCF080915E2128
S1131E40813099F080915E21882379F080913C2043
S1131E5090913D2007974CF010925E2106C08FEFC1
S1131E609FEF80933C2090933D2080913A20909165
S1131E703B2018161906FCF40E94F7158130A9F4CA
S1131E802091DC2180913A2090913B2030E0215038
S1131E903109281739077CF48FEF9FEF80933A209C
S1131EA090933B200E94520D06C08FEF9FEF8093CA
S1131EB03A2090933B208091382090913920181635
S1131EC01906FCF40E9400168130A9F42091DC214B
S1131ED0809138209091392030E021503109281721
S1131EE039077CF48FEF9FEF80933820909339204B
S1131EF00E94670D06C08FEF9FEF80933820909368
S1131F003920809136209091372018161906FCF458
S1131F100E9408168130A9F42091DC21809136209A
S1131F209091372030E021503109281739077CF48B
S1131F308FEF9FEF80933620909337200E94840D7B
S1131F4006C08FEF9FEF80933620909337208091C7
S1131F50342090913520181619060CF060C0809139
S1131F60F4218031D1F58091222090912320019693
S1131F70A1F50E941116813049F52091DC21809150
S1131F8034209091352030E0215031092817390749
S1131F900CF045C0809122209091232001968093DB
S1131FA0222090932320C6E0D0E011E01093082271
S1131FB084E690E00E94E6031092082284E690E012
S1131FC00E94E6032197209789F729C08FEF9FEF9E
S1131FD0809334209093352022C00E9411168130C2
S1131FE0C1F42091DC21809134209091352030E09F
S1131FF0215031092817390794F48FEF9FEF80930C
S113200034209093352082E00E94A50E109208227D
S113201006C08FEF9FEF80933420909335208091FA
S11320203220909133201816190654F50E941A167E
S1132030813001F52091DD2180913220909133206F
S113204030E02150310928173907D4F48FEF9FEF7E
S1132050809332209093332080E00E94A50E80E08C
S11320600E94AE1680E00E94BA1610925B21109274
S1132070082206C08FEF9FEF809332209093332085
S1132080DF91CF911F9108950F931F93CF93DF9307
S1132090CDB7DEB76E97CDBFDEBF8091D6219091CC
S11320A0D721A091D821B091D9218A839B83AC8375
S11320B0BD831C860E945F0441E06CE1CE01019661
S11320C00E94B70410921E2010921F2006ED11E208
S11320D00E945F0422E0AE01425E5F4FBE01635E78
S11320E07F4FCE0101960E942B05882309F43FC03F
S11320F0F80180819181A281B3814A815B816C81E5
S11321007D81481759076A077B0789F58C858111FA
S11321102EC02E852093DA219F859093DB21888918
S11321208093DC212093CE219093CF218093D021E2
S1132130898980935E218A8980935D2180915D21C4
S1132140823021F481E00E94C61603C080E00E9420
S1132150C61680915E210E94AE168FEF9FEF80938A
S11321601E2090931F200E94F80B81E011C00E9452
S11321702B0280911E2090911F20813D97400CF4EA
S1132180A7CF8FEF9FEF80931E2090931F2080E0B6
S11321906E96CDBFDEBFDF91CF911F910F91089551
S11321A0CF93DF93CDB7DEB72597CDBFDEBF0E94B7
S11321B004040E94E3150E94E2160E9432030E9466
S11321C07F030E94880683E08093060881E090E004
S11321D00E945B168FEF0E94221624E02093DA21DE
S11321E095E09093DB2181E08093DC218093DD21D5
S11321F02093CE219093CF218093D0218093D1211D
S11322000F2EFCE2AF2EF7E1BF2EF02D0F2EF8E2D9
S1132210CF2EF7E1DF2EF02D0F2EF4E2EF2EF7E1B3
S1132220FF2EF02D02E117E12EEF36E14AEF56E1E1
S11322306BEE76E186EE93E00E941F010E94560247
S11322400E947B0220E097E288ED08B618BE84BFA6
S1132250909380002091820021FDFCCF08BEA895B8
S113226087E0E0EAF0E0828378940E94EE158093A0
S113227007220E94F715809306220E94001680937D
S11322800A220E9408168093DF210E94111680936F
S1132290DE210E941A16809305220E94D216809590
S11322A08F708D830E94DC1690E0809590958F70DE
S11322B09927049721F481E080935C2112C00E9445
S11322C0DC1690E0809590958F7099270C9719F4FF
S11322D010925C2106C010925C211092282010926A
S11322E029202D81223028F01092282010922920B4
S11322F0A8C38D81813009F0A4C3109226201092C6
S113230027209FC30E945F04A89580912420909168
S1132310252006973CF0A0922420B092252080E04E
S11323200E94C61680915D21813071F080915D21FB
S1132330882351F08091222090912320019621F04E
S1132340A0922220B092232080913C2090913D20A5
S113235099230CF040C080913A2090913B2099231E
S1132360D4F580913820909139209923A4F5809157
S1132370362090913720992374F5809134209091E0
S11323803520992344F5809132209091332099236C
S113239014F580912C2090912D209923E4F48091C0
S11323A02A2090912B209923B4F480912E2090918F
S11323B02F20992384F48091080681FD0CC080911C
S11323C0282090912920992334F4809124209091FD
S11323D0252099238CF022E0AE014E5F5F4FBE01B1
S11323E06F5F7F4F89EE91E20E942B0590E080930E
S11323F0E0219093E12114C021E0AE014E5F5F4FD4
S1132400BE016F5F7F4F89EE91E20E942B0590E041
S11324108093E0219093E12110922A2010922B20A6
S11324200E941C048B839C838B819C818C329740FB
S113243090F58091302090913120019661F503E070
S113244010E081E00E9496168FEF93ECE9E0815052
S11324509040E040E1F700C0000080E00E94961642
S1132460FFEF23EC89E0F15020408040E1F700C009
S11324700000015011090115110519F78091302050
S113248090913120019639F487E00E94221610922F
S11324903020109231208091E0219091E1214C97DD
S11324A009F065C1F30180819181A281B381809398
S11324B0E2219093E321A093E421B093E5210E94CB
S11324C0D21680958F7080930922863009F050C00F
S11324D0F10180819181A281B3818F3F9F4FAF4FE2
S11324E0BF4F09F044C1E4EFF1E28081883009F084
S11324F03EC18091542190915521883592400CF031
S113250036C10E94F80BF40160817181828193814C
S11325100E94DD0AF40180819181A281B381F201DC
S113252080839183A283B38382ED91E20E940C03A2
S11325300AE010E081E00E94AE16FFEF23EC89E090
S1132540F15020408040E1F700C0000080E00E948C
S1132550AE169FEFE3ECF9E09150E040F040E1F774
S113256000C00000015011090115110519F7FFC041
S1132570F20180819181A281B381F1014081518175
S113258062817381481759076A077B0709F0EFC016
S1132590E4EFF1E28081823009F47FC028F48823DB
S11325A051F0813059F1E1C08E3009F49AC0803184
S11325B009F4B0C0DAC00E94220AE6EFF1E22081F9
S11325C0F6012083E7EFF1E29081F7019083809197
S11325D0F8218093DC218093DD212093CE219093F8
S11325E0CF218093D0218093D1218091F9218093B0
S11325F05E218091FA2180935D21B7C00E94500A28
S1132600F401808190915D21891709F4AEC0809313
S11326105D21823079F481E00E94C61681E00E9437
S11326202216A0922420B0922520A0922220B092BB
S113263023209BC08130B9F480E00E94C6168091AB
S1132640262090912720019619F482E00E942216F8
S113265080E00E94A21680E00E94AE161092242010
S11326601092252082C080E00E94C6168091262008
S113267090912720019619F482E00E94221680E0AE
S11326800E94A21680E00E94AE1680E00E94BA1654
S1132690A0922420B092252068C00E947F0AF401F1
S11326A0808180935E2180915B21813019F41092A6
S11326B05B215BC080915E210E94AE1680915E21F9
S11326C0813031F480935A2185E00E9422164DC056
S11326D010925A2180E00E94BA1680E00E94A2164D
S11326E044C00E94AE0AF40180810E94A216F40143
S11326F0808180935E2180915E210E94AE1680E0ED
S11327000E94BA16F4018081813079F584E00E9438
S113271022162BC00E94080B809122209091232026
S1132720019631F08091222090912320439784F0E8
S113273086E00E9422160E945C08809122209091DB
S11327402320019671F0109222201092232009C0B8
S113275080912220909123200196809322209093AF
S1132760232010922420109225200E94F80B0E940E
S11327702B020E94DC1680FF11C08091CE21F6014D
S113278080838091CF21F7018083E0EDF1E28081A5
S11327908093DC2180818093DD210BC084E0F601ED
S11327A0808385E0F701808381E08093DC2180933E
S11327B0DD2180912E2090912F20019621F40E94FA
S11327C06D090E94E60E0E941116813009F02CC199
S11327D00E941A16813009F027C110922C20109201
S11327E02D2080930822A8950E941116813021F48F
S11327F00E941A16813029F0A0922C20B0922D202C
S11328000DC180912C2090912D2003970CF4FEC0D3
S1132810109208220AE010E0A89581E00E94961622
S113282081E00E948B1681E00E94A21681E00E9442
S1132830AE1681E00E94BA1681E00E94C6162FEF00
S11328408BE49DE1215080409040E1F700C00000FE
S113285080E00E94961680E00E948B1680E00E9421
S1132860A21680E00E94AE1680E00E94BA1680E0B4
S11328700E94C616EFEFFBE42DE1E150F04020404A
S1132880E1F700C00000015011090115110521F6FE
S1132890A8950E94A208A8950E94A208A8950E9443
S11328A0A20880E090E00E945B16E0E4F6E084E099
S11328B083878CE08187E0E0F6E098EF9387818757
S11328C089E30E94C601E8E4F0E0808184608083AB
S11328D08081816080830F2EF8EDFF2EF02D0F2E66
S11328E0FDEFCF2EF02D0F2EF7E2DF2EF02DE12C91
S11328F00FEF1FEF08B618BEF4BEC092800008BEEA
S1132900889508B618BEF4BED0928000E09082008C
S1132910E1FCFCCF08BE0E941A16811114C00E946B
S11329201116811110C00E94081681110CC00E945A
S11329300016811108C00E94EE15811104C00E9486
S1132940F7158823B9F210922C2010922D20809133
S11329502C2090912D2003970CF43FC00AE010E046
S1132960A89581E00E94961681E00E948B1681E072
S11329700E94A21681E00E94AE1681E00E94BA165F
S113298081E00E94C6168FEF93ECE9E081509040FD
S1132990E040E1F700C0000080E00E94961680E06D
S11329A00E948B1680E00E94A21680E00E94AE1660
S11329B080E00E94BA1680E00E94C616FFEF23EC66
S11329C089E0F15020408040E1F700C00000015050
S11329D011090115110521F6FFCF0E941A16811164
S11329E0B6CF0E9411168111B2CF0E940816811130
S11329F0AECF0E9400168111AACF0E94EE1581115C
S1132A00A6CF00932C2010932D2074CF0E941A1669
S1132A10882321F00E9411168111E5CE109208221C
S1132A20A0922C20B0922D208D818D50823018F4EC
S1132A308D810E947B0B9D81923009F063CC0E94B2
S1132A40D70BA8950E94A208A8950E94A208A89551
S1132A500E94A208BE016E5F7F4FCE0101960E94C4
S1132A6009090E94441080E8E0E6F6E08683EFEF6F
S1132A70F7E823E1E150F0402040E1F700C0000016
S1132A80E0E6F6E08583AA24AA94BA2C0F2EFEEE83
S1132A906F2EF1E27F2EF02D0F2EF6ED4F2EF1E288
S1132AA05F2EF02D0F2EFAEE2F2EF1E23F2EF02D99
S1132AB00F2EF5EF8F2EF1E29F2EF02D0F2EFAED53
S1132AC0CF2EF1E2DF2EF02D0F2EFBEDEF2EF1E2F3
S1132AD0FF2EF02D17CCCF93DF9340E056E0EA01B0
S1132AE018828FEF8093200680E496E023EBFC01AC
S1132AF020832FEB20936006A0E8B6E01C92E0EA66
S1132B00F6E0108228E1EC012A8BEA012B8B2C8B56
S1132B102D8B2E8B2F8BEC0129892861298B8089A1
S1132B208861808B81898861818B82898861828BAD
S1132B3083898861838B84898861848B8589886192
S1132B40858B86898861868B87898861878B509677
S1132B508C915097886150968C93509751968C9194
S1132B605197886151968C93519752968C915297B4
S1132B70886152968C93529753968C91539788619F
S1132B8053968C9387E0FA01808BDF91CF9108955F
S1132B908FEFE0E2F6E08483E0E4F6E031E03683B0
S1132BA020E1258390E2968380E88683E0E6F6E0E0
S1132BB0368332E0368334E0368338E03683268346
S1132BC09683858308950E946B150E94C815089505
S1132BD0E0E0F6E08085869581700895E0E4F6E013
S1132BE0808582FB882780F991E089270895E0E0B9
S1132BF0F6E0808583FB882780F991E08927089592
S1132C00E0E0F6E080858295817091E0892708955F
S1132C10E0E0F6E0808585FB882780F991E089274C
S1132C200895E0E0F6E0808586FB882780F991E04E
S1132C3089270895E0E0F6E080858095881F88273D
S1132C40881F0895CF93DF9300D0CDB7DEB78F3FB1
S1132C5021F4E0E2F6E0848329C0815021E030E0F1
S1132C60A90102C0440F551F8A95E2F7CA01809555
S1132C70E0E2F6E0848319821A820E94E81581302A
S1132C8029F48FEFE0E2F6E0848310C08FE39FE144
S1132C900197F1F700C0000089819A819C012F5FA0
S1132CA03F4F29833A83893E93403CF30F900F9022
S1132CB0DF91CF910895813021F4E0E4F6E085833B
S1132CC0089581E0E0E4F6E086830895813029F4F4
S1132CD082E0E0E4F6E08583089582E0E0E4F6E053
S1132CE086830895E0E0F6E0808582FB882780F9FA
S1132CF00895813029F480E1E0E4F6E085830895C5
S1132D0080E1E0E4F6E086830895E0E4F6E080857F
S1132D10829581700895813021F4E0E6F6E08583A0
S1132D20089581E0E0E6F6E086830895813029F491
S1132D3082E0E0E6F6E08583089582E0E0E6F6E0EE
S1132D4086830895813029F484E0E0E6F6E0858303
S1132D50089584E0E0E6F6E086830895813029F45E
S1132D6088E0E0E6F6E08583089588E0E0E6F6E0B2
S1132D7086830895813029F480E1E0E6F6E08583D6
S1132D80089580E1E0E6F6E086830895813029F431
S1132D9080E2E0E6F6E08583089580E2E0E6F6E08E
S1132DA086830895E0E8F6E080858F700895E0EA70
S1132DB0F6E080858F700895E0EAF6E080858295DC
S1132DC08F700895E0ECF8E080818065808382E074
S1132DD08093C1080895E0ECF8E08383828188231E
S1132DE0ECF7E0ECF8E082818823ECF7E0ECF8E023
S1132DF08381089580E00E94EB16089561157105A2
S1132E0079F0DC01680F791FE0ECF8E08D918383A1
S1132E1082818823ECF78381A617B707B9F7089551
S1132E2080E008956115710571F0DC01860F971F2C
S1132E30E0ECF8E0138222812223ECF723812D9326
S1132E40A817B907B9F7089580E00E947916089584
S1132E5081E00E94791608950E94851690E00895F5
S1132E60A29FB001B39FC001A39F700D811D1124C7
S1132E70911DB29F700D811D1124911D0895E0ECE8
S1132E80F1E0A785A7FDFDCFA485A860A4876050C5
S1132E90704F0C94991703D0808199270895E0EC22
S1132EA0F1E0378537FDFDCF348538603487FC0188
S1132EB0E050F04F0895DC01A40FB51F415050407D
S1132EC048F0CB01840F951F2E910E946C1741503E
S1132ED05040D0F70895262F0E944F170080021605
S1132EE019F00E947717019701970895262FE0ECB7
S1132EF0F1E0378537FDFDCF3485377F348737855B
S1132F0031FF09C036E3328738ED34BF31E033870F
S1132F10378537FDFDCF33E3328780839183128277
S1132F20248325E3228728ED31E024BF33870196EB
S1132F300895FB01DC0102C001900D924150504004
S10B2F40D8F70895F894FFCFBF
S1132F48070408450B0C1804121708051183108888
S1132F58151310F81C50C000000000000000FFFF0B
S1132F68FFFFFFFFFFFFFFFFFFFFFFFFFFFFFFFF65
S1132F78FFFFFFFFFFFFFFFFFFFFFFFFFFFF005EF5
S1132F88BCE2613FDD83C29C7E20A3FD1F419DC33B
S1132F98217FFCA2401E5F01E3BD3E6082DC237DED
S1132FA89FC1421CFEA0E1BF5D0380DE3C62BEE01F
S1132FB8025CDF81633D7C22C09E1D43A1FF46184D
S1132FC8FAA427799BC584DA3866E5BB5907DB85FB
S1132FD86739BAE406581947A5FB7826C49A653BAD
S1132FE8D987045AB8E6A7F91B45C6987A24F8A6DF
S1132FF8441A99C7257B3A6486D85B05E7B98CD20D
S1133008306EEDB3510F4E10F2AC2F7193CD114FBA
S1133018ADF3702ECC92D38D6F31B2EC0E50AFF16C
S1133028134DCE90722C6D33D18F0C52B0EE326C9E
S11330388ED0530DEFB1F0AE4C1291CF2D73CA94CC
S11330487628ABF517490856B4EA6937D58B57097A
S1133058EBB536688AD495CB2977F4AA4816E9B72C
S1133068550B88D6346A2B7597C94A14F6A8742A5E
S1113078C896154BA9F7B6E80A54D7896B35EC
S9030000FC
