:10000000F1C10000F7C00000F7C00000F7C0000019
:10001000F7C00000F7C00000F7C00000F7C0000004
:10002000F7C00000F7C00000F7C00000F7C00000F4
:10003000F7C00000F7C00000F7C00000F7C00000E4
:10004000F7C00000F7C00000F7C00000F7C00000D4
:10005000F7C00000F7C00000F7C00000F7C00000C4
:10006000F7C00000F7C00000F7C00000F7C00000B4
:10007000F7C00000F7C00000F7C00000F7C00000A4
:10008000F7C00000F7C00000F7C00000F7C0000094
:10009000F7C00000F7C00000F7C00000F7C0000084
:1000A000F7C00000F7C00000F7C00000F7C0000074
:1000B000F7C00000F7C00000F7C00000F7C0000064
:1000C000F7C00000F7C00000F7C00000F7C0000054
:1000D000F7C00000F7C00000F7C00000F7C0000044
:1000E000F7C00000F7C00000F7C00000F7C0000034
:1000F000F7C00000F7C00000F7C00000F7C0000024
:10010000F7C00000F7C00000F7C00000F7C0000013
:10011000F7C00000F7C00000F7C00000F7C0000003
:10012000F7C00000F7C00000F7C00000F7C00000F3
:10013000F7C00000F7C00000F7C00000F7C00000E3
:10014000F7C00000F7C00000F7C00000F7C00000D3
:10015000F7C00000F7C00000F7C00000F7C00000C3
:10016000F7C00000F7C00000F7C00000F7C00000B3
:10017000F7C00000F7C00000F7C00000F7C00000A3
:10018000F7C00000F7C00000F7C00000F7C0000093
:10019000F7C00000F7C00000F7C00000F7C0000083
:1001A000F7C00000F7C00000F7C00000F7C0000073
:1001B000F7C00000F7C00000F7C00000F7C0000063
:1001C000F7C00000F7C00000F7C00000F7C0000053
:1001D000F7C00000F7C00000F7C00000F7C0000043
:1001E000F7C00000F7C00000F7C00000F7C0000033
:1001F000F7C00000F7C00000F5C00000F3C0000029
:10020000F1C00000EFC00000EDC00000EBC0000036
:10021000E9C00000E7C00000E5C00000E3C0000046
:10022000E1C00000DFC00000DDC00000DBC0000056
:10023000D9C00000D7C00000D5C00000D3C0000066
:10024000F6C00000CFC00000CDC00000CBC0000051
:10025000C9C00000C7C00000C5C00000C3C0000086
:10026000C1C00000BFC00000BDC00000BBC0000096
:10027000B9C00000B7C00000B5C00000ABC70000A7
:10028000B1C00000AFC00000ADC00000ABC00000B6
:10029000A9C00000A7C00000A5C00000A3C00000C6
:1002A000A1C000009FC000009DC000009BC00000D6
:1002B00099C0000097C0000095C0000093C00000E6
:1002C00091C000008FC000008DC000008BC00000F6
:1002D00089C0000087C0000085C0000083C0000006
:1002E00081C000007FC000007DC000007BC0000016
:1002F00079C0000077C0000075C0000073C0000026
:1003000071C000006FC000006DC000006BC0000035
:1003100069C0000067C0000065C0000063C0000045
:1003200061C000005FC000005DC000005BC0000055
:1003300059C0000057C0000055C0000053C0000065
:1003400051C000004FC000004DC000004BC0000075
:1003500049C0000047C0000045C0000043C0000085
:1003600041C000003FC000003DC000003BC0000095
:1003700039C0000037C0000035C0000033C00000A5
:1003800031C000002FC000002DC000002BC00000B5
:1003900029C0000027C0000025C0000023C00000C5
:1003A00021C000001FC000001DC000001BC00000D5
:1003B00019C0000017C0000015C0000013C00000E5
:1003C00011C000000FC000000DC000000BC00000F5
:1003D00009C0000007C0000005C0000003C0000005
:1003E00001C0000011241FBECFEFCDBFDFE3DEBF91
:1003F00000E00CBF18BE19BE1ABE1BBE13E2A0E07F
:10040000B0E2E4EBF1E200E00BBF02C007900D9216
:10041000A83CB107D9F71BBE25E3A8ECB3E201C0A5
:100420001D92A23CB207E1F75DD70C94D8100F9251
:100430000FB60F921F9211242F923F924F925F920C
:100440006F927F928F929F92AF92BF92CF92DF92E4
:10045000EF92FF920F931F932F933F934F935F93CE
:100460006F937F938F939F93AF93BF93CF93DF93BC
:10047000EF93FF930CB70F9308B70F9309B70F9340
:100480000AB70F930BB70F930091292F0395009391
:10049000292F013041F4ADB7BEB7C0912A2FD091BA
:1004A0002B2FA993B9930E94550A8AD70F910BBF9E
:1004B0000F910ABF0F9109BF0F9108BF0F910CBF99
:1004C000FF91EF91DF91CF91BF91AF919F918F916C
:1004D0007F916F915F914F913F912F911F910F915C
:1004E000FF90EF90DF90CF90BF90AF909F908F9054
:1004F0007F906F905F904F903F902F901F900F9044
:100500000FBE0F9018958FB7F89408958FBF089578
:100510000E946B0D0091E82E03950093E82EA091A8
:100520001C2FB0911D2FCD91CDBFDD91DEBF0F915E
:100530000BBF0F910ABF0F9109BF0F9108BF0F9119
:100540000CBFFF91EF91DF91CF91BF91AF919F9140
:100550008F917F916F915F914F913F912F911F915B
:100560000F91FF90EF90DF90CF90BF90AF909F9052
:100570008F907F906F905F904F903F902F901F9043
:100580000F900FBE0F9018950F920FB60F921F92FB
:1005900011242F923F924F925F926F927F928F928F
:1005A0009F92AF92BF92CF92DF92EF92FF920F9302
:1005B0001F932F933F934F935F936F937F938F93EB
:1005C0009F93AF93BF93CF93DF93EF93FF930CB7BA
:1005D0000F9308B70F9309B70F930AB70F930BB791
:1005E0000F93ADB7BEB7C0912A2FD0912B2FA993EF
:1005F000B9930E946B0D0091ED2E0093112FA091E5
:100600001C2FB0911D2FA0932A2FB0932B2FCD918B
:10061000CDBFDD91DEBF0F910BBF0F910ABF0F91D0
:1006200009BF0F9108BF0F910CBFFF91EF91DF91B0
:10063000CF91BF91AF919F918F917F916F915F917A
:100640004F913F912F911F910F91FF90EF90DF906D
:10065000CF90BF90AF909F908F907F906F905F9062
:100660004F903F902F901F900F900FBE0F900895C6
:100670000E946B0D0091ED2E0093112FA0911C2F65
:10068000B0911D2FA0932A2FB0932B2FCD91CDBFCA
:10069000DD91DEBF0F910BBF0F910ABF0F9109BF14
:1006A0000F9108BF0F910CBFFF91EF91DF91CF9198
:1006B000BF91AF919F918F917F916F915F914F917A
:1006C0003F912F911F910F91FF90EF90DF90CF906E
:1006D000BF90AF909F908F907F906F905F904F9062
:1006E0003F902F901F900F900FBE0F901895089578
:1006F000089584E0E0E8F6E087830895089588E0AF
:10070000E0E8F6E0878308950F931F93DC0180E013
:1007100000E010E0980104171507260737075CF47E
:10072000ED91E827F0E0ED5FFF4D80810F5F1F4FF7
:100730002F4F3F4FF0CF1F910F910895CF93DF932D
:10074000EC0144E552E060E074E00E94941044E55E
:1007500052E060E070E0CE01D7DF682F84E596E0DC
:10076000DF91CF910C94AC108F929F92AF92BF9279
:10077000CF92DF92EF92FF920F931F93CF93DF936D
:10078000FC0184E592E0DF019C011D922150304084
:10079000E1F788E796E5A4E3B2E180839183A28341
:1007A000B38384839583A683B78380879187A28749
:1007B000B38784879587A687B787808B918BA28B19
:1007C000B38B848B958BA68BB78B808F918FA28FE9
:1007D000B38FEF01C45EDE4F88839983AA83BB8306
:1007E000249688839983AA83BB8341E050E060E02C
:1007F00070E0448F558F668F778F40A351A362A31B
:1008000073A344A355A366A377A340A751A762A7E8
:1008100073A714A615A616A617A610AA11AA12AA9F
:1008200013AADF01AC5DBE4F1D921D921D921C925A
:10083000139714961D921D921D921C92139702E01D
:1008400010E020E030E004AB15AB26AB37AB00AFD7
:1008500011AF22AF33AF44AF55AF66AF77AFA85EED
:10086000B1094D935D936D937C93139714960D93FB
:100870001D932D933C93139714960D931D932D93D5
:100880003C93139714964D935D936D937C931397BC
:1008900014960D931D932D933C931397149684E116
:1008A000882E912CA12CB12C8D929D92AD92BC9250
:1008B0001397149693E0C92ED12CE12CF12CCD92F4
:1008C000DD92ED92FC9213971496CD92DD92ED920B
:1008D000FC92139714964D935D936D937C931397AD
:1008E00014960D931D932D933C93139714960D938B
:1008F0001D932D933C93139714964D935D936D9395
:100900007C93139714960D931D932D933C931397FB
:1009100014968D929D92AD92BC9213971496CD929F
:10092000DD92ED92FC9213971496CD92DD92ED92AA
:10093000FC92139714961D921D921D921C92139770
:1009400014960D931D932D933C93139714968D92AB
:100950009D92AD92BC92139714961D921D921D927A
:100960001C92139714960D931D932D933C931397FC
:1009700014960D931D932D933C9313971496CD923B
:10098000DD92ED92FC9213971496CD92DD92ED924A
:10099000FC92139714961D921D921D921C92139710
:1009A00014960D931D932D933C93139714968D924B
:1009B0009D92AD92BC92139714961D921D921D921A
:1009C0001C92139714960D931D932D933C9313979C
:1009D00014960D931D932D933C9313971496CD92DB
:1009E000DD92ED92FC9213971496CD92DD92ED92EA
:1009F000FC92139714964D935D936D937C9313978C
:100A000014960D931D932D933C931397C855D109BC
:100A10008AE090E0A0E0B0E088839983AA83BB835A
:100A20002496488359836A837B8324964883598319
:100A30006A837B832496488359836A837B832496C5
:100A4000088319832A833B83249688839983AA8306
:100A5000BB83DF01A052BF4F4D935D936D937C9399
:100A6000139714964D935D936D937C9313971496FF
:100A70000D931D932D933C93139714960D931D93F3
:100A80002D933C93139714964D935D936D937C93A4
:100A9000139714961D921D921D921C9213971496F3
:100AA0001D921D921D921C921397A09682ED94E0C8
:100AB000A0E0B0E088839983AA83BB83249687ED66
:100AC00091E1A0E0B0E088839983AA83BB83DF0132
:100AD000AC5FBE4F1D921D921D921C9213971496EF
:100AE0004D935D936D937C93139714961D921D9275
:100AF0001D921C92139714961D921D921D921C928A
:100B0000139714961D921D921D921C92139758963E
:100B10004D935D936D937C93139714964D935D93D2
:100B20006D937C93139714964D935D936D937C9383
:100B3000139714964D935D936D937C931397E8539D
:100B4000FD4F86E798E9A0E0B0E080839183A2831F
:100B5000B383DF91CF911F910F91FF90EF90DF90C2
:100B6000CF90BF90AF909F908F900895CF9344E522
:100B700052E060E074E088E89CE20E94791084E52D
:100B800096E00E948410C82F44E552E060E070E0D7
:100B900088E89CE2B9DDC817C1F088E89CE2E4DD92
:100BA00044E552E060E074E088E89CE20E94941022
:100BB00044E552E060E070E088E89CE2A5DD682F43
:100BC00084E596E0CF910C94AC10CF910895FC0190
:100BD00084E290E08083918320E8228388E190E0A2
:100BE00086839783208713821482158280E090E0A9
:100BF000DF01A80FB91F19961D921C921A97029631
:100C00008C319105A9F70895CF9347E650E060E055
:100C100070E08FEF9BE20E94791087E690E00E94DF
:100C20008410C82F47E650E060E070E08FEF9BE251
:100C30006BDDC817C1F08FEF9BE2C9DF47E650E0DC
:100C400060E070E08FEF9BE20E94941047E650E076
:100C500060E070E08FEF9BE257DD682F87E690E061
:100C6000CF910C94AC10CF910895CF93DF93CDB773
:100C7000DEB7C654D109CDBFDEBF23961EAE1FAE70
:100C8000239727961FAE279726961FAE2697259661
:100C90001FAE259724961FAE249721961EAE1FAE39
:100CA00021971DAE1EAE1BAE1CAE8DE4E82E95E462
:100CB000D92E2CE2F22E39E6C32E4EE6B42E0FE0EA
:100CC00010E08091C20B87FFFCCF8091C30B26966A
:100CD0008FAF26978DAD9EAD9C012F5F3F4F2DAFFF
:100CE0003EAF26962FAD2697E1E0F0E0EC0FFD1F1A
:100CF000E80FF91F208321968EAD9FAD2197892B98
:100D000009F061C18BAD9CAD892B11F01BAE1CAEFF
:100D10008DAD9EAD4F977CF48DAD9EAD019721F4C6
:100D200089818D3441F409C08DAD9EAD029729F4BF
:100D30008A81853411F01DAE1EAE8DAD9EAD039738
:100D40000CF419C1EDADFEAD319781E090E08C0F50
:100D50009D1FE80FF91FA0809DE0A9120CC163E060
:100D600071E2CE0101960E94351063E071E280E0ED
:100D700090E00E94351089AF9AAF63E071E280E0A5
:100D800090E00E9435108FAB98AF63E071E280E095
:100D900090E00E9435108DAB9EAB63E071E280E085
:100DA00090E00E9435108BAB9CAB63E071E280E079
:100DB00090E00E9435101DAE1EAE65E071E2CE01DE
:100DC000C9960E943810892B09F4FDC068E071E2D1
:100DD000CE01C7960E943810892B09F498C0EF8E77
:100DE000D8A2F9A2CAA2BBA280E78CA385E78DA3F3
:100DF00084E78EA381E68FA38CE688A789A7FAA64D
:100E00001BA69BA40E94710F20E8829FC0011124A1
:100E100089298BA79BA40E94680F20E4829FC001B0
:100E2000112489298BA79BA40E945F0F20E2829F37
:100E3000C001112489298BA79BA40E94570F20E190
:100E4000829FC001112489298BA79BA40E944E0F69
:100E500028E0829FC001112489298BA79BA40E94AE
:100E6000450F24E0829FC001112489298BA79BA4F0
:100E70000E943D0F880F89298BA79BA4F8D7892949
:100E80008BA71CA69CA40E94B30F20E8829FC001E0
:100E9000112489298CA79CA40E94AA0F20E4829F78
:100EA000C001112489298CA79CA40E94A10F20E2D3
:100EB000829FC001112489298CA79CA40E94990FAC
:100EC00020E1829FC001112489298CA79CA40E9443
:100ED000900F28E0829FC001112489298CA79CA42F
:100EE0000E94870F24E0829FC001112489298CA7CA
:100EF0009CA40E947F0F880F89298CA79CA4F9D7F6
:100F000089298CA7ADA621960EAF1FAF219761E16D
:100F100071E2CE01C9960E943810892B09F453C0A2
:100F200064E171E2CE01C7960E943810892B09F462
:100F30004AC06DE171E2CE01C5960E943810892B3E
:100F400009F441C061E271E2CE01C3960E943810FB
:100F5000892B21F081E090E00E94BB0F64E271E2F6
:100F6000CE01C3960E943810892B69F180E090E091
:100F70000E94BB0F28C02BAD3CAD21968EAD9FAD1E
:100F8000219728173907BCF48091C30BEBADFCAD5A
:100F90008FE190E08C0F9D1FE80FF91F80818093F7
:100FA000C30B8091C20B87FFFCCF8BAD9CAD01962C
:100FB0008BAF9CAF08C01BAE1CAE21961EAE1FAE01
:100FC00021971DAE1EAE81E027968FAF279779CE71
:100FD000E3C7CF93DF931F921F92CDB7DEB789830C
:100FE0006A8320E042E050E0BE016F5F7F4F8CE7F4
:100FF000E6D78FE891E00197F1F700C000000F906D
:101000000F90DF91CF910895682F80E0E2CF682F95
:1010100080E4DFCF1F93CF93DF93E9E2F1E220E09A
:1010200030E09081981310C0E901CC0FDD1FC20F92
:10103000D31FC85DDE4D1881812FE9DF8A818823A7
:1010400051F08352E4DF07C02F5F3F4F33962035C6
:10105000310539F710E2812FDF91CF911F9108956B
:10106000FF920F931F93CF93DF931F92CDB7DEB7FD
:101070008C011982FF24F394F8018081882399F070
:10108000833829F49981911102C0F98209C09981AC
:10109000913029F41982F8018081BCDF01C0B7DFEB
:1010A0000F5F1F4FE9CF0F90DF91CF911F910F91ED
:1010B000FF900895606820E4829FC0011124862B70
:1010C000A3CF81E0A1CF682F80E083CF9091CA2386
:1010D000982B9093CA23892F886090E0F4CF84E006
:1010E000F5CF809102208061809302202FEF83EC66
:1010F00099E0215080409040E1F700C000008091CD
:101100000220816081DF8091022081607DDF84E1A7
:101110007BDF8091012078DF8091002075DF8BE6F6
:1011200073DF2FEF87E893E1215080409040E1F793
:1011300000C000008CE068DF8091022065DFCFCF27
:1011400088ED84BF82E0809350008091510081FF40
:10115000FCCF88ED84BF81E0809340000895FC01BE
:101160008081807F80838CE081870895CF93CFB783
:10117000F89480E498E0F3DFE0E4F8E08081807F99
:10118000816080838181887C818383818071838376
:101190008681807F836086838781807F8783A0E9C3
:1011A000B8E08C918D7F8C938485848710A211A2E6
:1011B00081E09DE786A397A310A611A612A613A609
:1011C000CFBFCF91089588ED84BF81E0E8E7F0E0DC
:1011D0008183089508958F929F92AF92BF92CF928C
:1011E000DF92EF92FF920F931F931F9283E08F93F2
:1011F000812C912C8EE5A82EBB24B394C12CD12C2C
:1012000095EEE92E97E2F92E06E010E026E042E4A2
:1012100059E260E070E085E396E005D50F900F900D
:101220001F910F91FF90EF90DF90CF90BF90AF9004
:101230009F908F9008959ADF83E08093060887E05F
:101240008093A20093DCE0DC80E090E074D4809393
:10125000E52E9093E62EBFDF1092DC2E1092DD2E4D
:101260001092DE2E1092DF2E1092E02E80919C2D97
:1012700090919D2DA0919E2DB0919F2D0297A1053B
:10128000B105F0F480919C2D90919D2DA0919E2D03
:10129000B0919F2D0196A11DB11D80939C2D90931F
:1012A0009D2DA0939E2DB0939F2D88E89CE246DA59
:1012B00020E030E045E060E080E075D584DF0BC0E1
:1012C00010929C2D10929D2D10929E2D10929F2D6C
:1012D00088E89CE233DA22E330E040E060E080E03E
:1012E00062D5F9CF8F929F92AF92BF92CF92DF9249
:1012F000EF92FF920F931F9323DFB8D545D668DE98
:10130000F0DEDFDE60E080E0D5DE88E192E2A8DE9C
:1013100053D11F9283E08F93812C912C2EE5A22E26
:10132000BB24B394C12CD12C31EAE32E3AE2F32E44
:1013300002E010E022E04EEF5BE260E070E08BE163
:1013400099E071D498D00F900F9080E090E01F91B9
:101350000F91FF90EF90DF90CF90BF90AF909F9054
:101360008F900895E0911E2FF0E0E953FD4D90819C
:10137000E92FF0E0E15EF04DE081F0E0E953FD4D52
:10138000808128E0929F800D11248093ED2E089596
:10139000BAD84091E92E5091EA2E6091EB2E7091CF
:1013A000EC2E4F5F5F4F6F4F7F4F4093E92E50936E
:1013B000EA2E6093EB2E7093EC2EA8D80ED3E8CFD4
:1013C000CF93DF931F92CDB7DEB78091E82E8130A7
:1013D00009F04DC098D89091292F992319F0915078
:1013E0009093292F9091292F91113DC09091E72E34
:1013F000911139C08983B6DF9091ED2EE92FF0E08D
:10140000EE0FFF1FEE5BFA4C0190F081E02DE093B0
:101410001C2FF0931D2F2091112F8981921719F104
:1014200040A551A562A573A54F5F5F4F6F4F7F4FDA
:1014300040A751A762A773A74091152F5091162F6F
:101440006091172F7091182F4F5F5F4F6F4F7F4F35
:101450004093152F5093162F6093172F7093182FCA
:10146000898306D989810F90DF91CF914FC80F9062
:10147000DF91CF9108958091E82E811115C072DF20
:10148000E091ED2EE093112FF0E0EE0FFF1FEE5BE9
:10149000FA4C8081918180931C2F90931D2F809313
:1014A0002A2F90932B2F34C808951F93CF93DF9347
:1014B00016D329D840912C2F50912D2F60912E2F8B
:1014C00070912F2F4F5F5F4F6F4F7F4F40932C2FA7
:1014D00050932D2F60932E2F70932F2F17D890910C
:1014E000E82E913009F04CC08091142F813009F41E
:1014F00047C038F0823019F49093142F02C0109234
:10150000142FC091122FD091132F11E08AA18F3385
:10151000B9F10E9483024C8D5D8D6E8D7F8D4115DA
:1015200051056105710531F1415051096109710998
:101530004C8F5D8F6E8F7F8F452B462B472BD1F4C1
:1015400098A1292F277321F0987C98A319A301C093
:1015500019A298A193FD0EC090911E2F2EA1922B3F
:1015600090931E2FECA1F0E0E15EF04D90812DA153
:10157000922B90830E84DF85C02D0E948602C6CFF9
:10158000DF91CF911F910895FC01158220E030E09A
:10159000FC01E20FF31F16822F5F3F4F2830310509
:1015A000B9F70895680F791F8617970721F0FC0196
:1015B0001192CF01F9CF08958F929F92AF92BF926F
:1015C000CF92DF92EF92FF920F931F93CF93DF930F
:1015D0001F92CDB7DEB7FDD110922C2F10922D2F78
:1015E00010922E2F10922F2F1092292F1092E72E4B
:1015F00010921B2F1092E82E1092152F1092162F7A
:101600001092172F1092182F1092E92E1092EA2E96
:101610001092EB2E1092EC2E10921E2FEFE1FFE2B3
:1016200011924FE2E732F407D9F71092112F10927E
:10163000ED2E10921C2F10921D2F10922A2F109217
:101640002B2F60E475E080E090E3ACDF60E870E0B1
:1016500082E495E3A7DFE0E0F0E327EB32E2CF019D
:10166000805C9F4F8687978722AF33AF45E38030FA
:10167000940711F0FC01F3CF10920E3510920F3544
:1016800087EB92E280933A3590933B351092122F7C
:101690001092132F80E090E38093192F90931A2FCC
:1016A00060E570E080EB9FE27DDFE0EBFFE227EB9F
:1016B00032E2CF014096108281839283268737875A
:1016C0004FE2803F940711F0FC01F3CF1092F02F0E
:1016D0001092F12F1092F22F87EB92E28093FE2F5F
:1016E0009093FF2F80EB9FE28093272F9093282FDA
:1016F000F9D11F9283E08F93812C912C40E8A42E86
:10170000B12CC12CD12C50E3E52E5FE2F52E0FEF6A
:101710001FEF2FE34FEA5FE260E070E088EC99E0B2
:1017200082D2AE014F5F5F4F69EB72E28FE333D23B
:1017300051D1D7D10F900F900F90DF91CF911F9182
:101740000F91FF90EF90DF90CF90BF90AF909F9060
:101750008F900895CF93DF931F92CDB7DEB70E948D
:1017600083029091292F91113EC09091E72E911103
:101770003AC08983F7DD9091ED2EE92FF0E0EE0F6E
:10178000FF1FEE5BFA4C0190F081E02DE0931C2FDF
:10179000F0931D2F2091112F8981921721F140A5DF
:1017A00051A562A573A54F5F5F4F6F4F7F4F40A755
:1017B00051A762A773A74091152F5091162F6091E2
:1017C000172F7091182F4F5F5F4F6F4F7F4F4093D0
:1017D000152F5093162F6093172F7093182F89830E
:1017E0000E94C40289810F90DF91CF910C948602F0
:1017F0002F923F924F925F926F927F929F92AF9201
:10180000BF92CF92DF92EF92FF920F931F93CF93ED
:10181000DF9300D000D0CDB7DEB7982E69837A83EE
:101820001A012B833C83270138010E948302E09038
:10183000192FF0901A2FED82FE82E114F10409F4C1
:10184000B0C0D7011E962D913C911F972093192F60
:1018500030931A2F0E948602E980FA80ED81FE8182
:10186000E082F18292A210A211A2148E158E168E21
:10187000178EC282D3824682578260867186248206
:101880003582A286B3862B813C812487358717A2B7
:10189000492D46954695469544A3292D277023A3A7
:1018A00081E090E0A0E0B0E07C018D0104C0EE0C8E
:1018B000FF1C001F111F4A95D2F7E6A204C0880F33
:1018C000991FAA1FBB1F2A95D2F785A3128A138AD4
:1018D000148A158A108E118E168A178A10A611A6E0
:1018E00012A613A610AA11AA12AA13AA14A615A624
:1018F00016A617A614AA15AA16AA17AA10AE11AEF4
:1019000087EB92E282AF93AF14AE15AE16AE17AE70
:10191000CF01E3D00E948302E92DF0E0EE0FFF1F1C
:10192000EE5BFA4CED80FE80E082F1820E9486023E
:101930008D819E8150D00E948302E091122FF09100
:10194000132FD7011E96ED93FC931F9750961D926F
:101950001C925197309711F0E08AF18AED80FE8059
:10196000E092122FF092132F90911E2FD70196968E
:101970002C919697922B90931E2F9496EC9194977E
:10198000F0E0E15EF04D908195962C91922B908342
:1019900090911B2F9F5F90931B2F0E94860280E0E7
:1019A00003C00E94860282E42696CDBFDEBFDF918F
:1019B000CF911F910F91FF90EF90DF90CF90BF904C
:1019C000AF909F907F906F905F904F903F902F903F
:1019D0000895089508950C9477030C9478030F9359
:1019E0001F938C01222717FD2095322FFA010083C7
:1019F000319710833197208331971082319780E897
:101A0000808331971082319782E08083319783E021
:101A10008083319784E08083319785E0808331979C
:101A200086E08083319787E08083319788E08083E8
:101A3000319789E08083319780E18083319781E11C
:101A40008083319782E18083319783E1808331976E
:101A500084E18083319785E18083319786E18083BB
:101A6000319787E18083319788E18083319789E1DD
:101A70008083319780E28083319781E28083319740
:101A800082E28083319783E280833197608331974C
:101A90008B011083319786E28083319787E28083C0
:101AA000319788E28083319789E28083319780E3A0
:101AB0008083319781E38083319710823197108240
:101AC000319710823197108231971082CA0189971D
:101AD0001F910F9108950C9479030C947E030C943C
:101AE0007F03089563E270E08EEE9EE25BDDEEEE32
:101AF000FEE227EB32E2CF010796108281839283C8
:101B0000258336834FE28A30940711F0FC01F3CF2E
:101B100010920A2F10920B2F10920C2F87EB92E24B
:101B200080930F2F9093102F8EEE9EE2809340357E
:101B30009093413508950F931F93CF93DF938C01BA
:101B40008091292F811120C00E948302C091272FEC
:101B5000D091282F209731F029813A812093272F87
:101B60003093282F0E948602209771F083E08883AB
:101B70000B831C8319821A8287EB92E28E879F87E0
:101B8000CE0102DDCE0102C080E090E0DF91CF9176
:101B90001F910F910895FF920F931F93CF93DF939F
:101BA000F82E8B01EA018091292F882311F082E120
:101BB0001BC00E9483029FEFF91205C0E0912A2FFB
:101BC000F0912B2FF2A0EF2DF0E0EE0FFF1FEE5B58
:101BD000FA4C0190F081E02D309719F0E130F105D9
:101BE00029F40E94860283E4888305C002AF13AF04
:101BF0000E9486021882DF91CF911F910F91FF9072
:101C00000895237033272330310561F4FC01411519
:101C100051056105710531F04150510961097109A2
:101C20001192F5CF08952F923F924F925F926F924B
:101C30007F928F929F92AF92BF92CF92DF92EF925C
:101C4000FF920F931F93CF93DF93CDB7DEB7299702
:101C5000CDBFDEBF8A839B836C837D834E835F838E
:101C60002983088719873701150126016401AF8C84
:101C7000B8A00E9483029091292F992321F00E94FD
:101C800086028CE33FC02981822E912C880C991CFE
:101C9000F401EE5BFA4C4F0120813181232B69F571
:101CA00021E030E0208331830E9486029501B20159
:101CB000A101C701A6DF95014E815F816C817D8105
:101CC0008A819B818CDE8201710128853985A3017F
:101CD000BC0189818DDDD82E811106C08091E82E4E
:101CE000813079F437DD0DC00E948302F401108247
:101CF00011820E9486028D2D05C00E94860288E214
:101D000001C080E02996CDBFDEBFDF91CF911F914A
:101D10000F91FF90EF90DF90CF90BF90AF909F908A
:101D20008F907F906F905F904F903F902F9008958D
:101D3000CF92DF92EF92FF926B017C018091292F6D
:101D400081112CC08091E72E811128C0C114D104CB
:101D5000E104F10419F10E948302E0912A2FF0912D
:101D60002B2FA4A1B0E0A15EB04D95A190952C9130
:101D700092239C93911107C026A1209590911E2F2C
:101D8000922390931E2FC48ED58EE68EF78E0E94DE
:101D90008602FF90EF90DF90CF90DCCCFF90EF9029
:101DA000DF90CF900895CF92DF92EF92FF92582F5D
:101DB000F9018091292F81112FC08091E72E811187
:101DC0002DC0262F30E0ACE3B0E036D16B017C01B2
:101DD000C40ED11CE11CF11C252F30E0A0E1BEE0B7
:101DE0002BD1C60ED71EE81EF91EA8EEB3E0A70140
:101DF000960131D16B017C019F011ED128EE33E0A9
:101E000040E050E0F7D0C20ED31EE41EF51EC7011D
:101E1000B6018EDF80E003C085E501C082E3FF905C
:101E2000EF90DF90CF9008958CEF8093000680E8CC
:101E3000809320068093400692E090936006A0E88D
:101E4000B6E092E29C93E0EAF6E092E4908310928E
:101E5000E00610920007809320078FE08093C00770
:101E600088E152968C93858B868B0895DDCFE0EECA
:101E7000F6E08085809581700895E0EEF6E080853B
:101E80008695817091E089270895E0EEF6E08085DF
:101E900082FB882780F991E089270895E0EEF6E03B
:101EA000808583FB882780F991E089270895E0EEFB
:101EB000F6E080858295817091E089270895E0EEB3
:101EC000F6E0808585FB882780F991E089270895D1
:101ED000E0EEF6E0808586FB882780F991E089278F
:101EE0000895E0EEF6E080858095881F8827881F9A
:101EF0000895E0E0F7E08085809581700895E0E046
:101F0000F7E080858695817091E089270895E0E06B
:101F1000F7E0808582FB882780F991E08927089582
:101F2000E0E0F7E0808583FB882780F991E089274E
:101F30000895E0E0F7E080858295817091E089273F
:101F40000895E0E0F7E0808585FB882780F991E03F
:101F500089270895E0E0F7E0808586FB882780F9EF
:101F600091E089270895E0E0F7E080858095881F5B
:101F70008827881F0895813019F48093C507089534
:101F800081E08093C6070895E0ECFBE080818064E7
:101F900080831092C10B0895E0E4F6E088E3808B23
:101FA000818B80E980938504E1E8F4E0808188609A
:101FB0008083E4E8F4E080818160808308958093E9
:101FC00086048091840486FFFCCFFB01460F571FD7
:101FD000E417F50741F08191809387048091840490
:101FE00086FFFCCFF5CF211103C083E080938304EB
:101FF00080E00895A1E21A2EAA1BBB1BFD010DC0B3
:10200000AA1FBB1FEE1FFF1FA217B307E407F507A8
:1020100020F0A21BB30BE40BF50B661F771F881F84
:10202000991F1A9469F760957095809590959B011A
:10203000AC01BD01CF010895A29FB001B39FC001C3
:10204000A39F700D811D1124911DB29F700D811DE4
:102050001124911D0895F0DFA59F900DB49F900D60
:10206000A49F800D911D1124089548EC53E21AC0DD
:10207000FB0151915523A9F0BF01DC014D9145179A
:102080004111E1F759F4CD010190002049F04D9143
:1020900040154111C9F3FB014111EFCF81E090E000
:1020A00001970895FA01A191B081009719F4109752
:1020B000E1F0CD01DC01CD010D90002011F4C00153
:1020C00013C0FB012191222319F02015D9F7F3CF7A
:1020D000FB012191201519F41E92119606C02223AE
:1020E000C1F70D900020A1F7D001FA01A193B083B0
:1020F0000895E0ECF1E0A785A7FDFDCFA485A860D9
:10210000A4876050704F4BC003D0808199270895F9
:10211000E0ECF1E0378537FDFDCF3485386034875A
:10212000FC01E050F04F0895DC01A40FB51F4150B1
:10213000504040F0CB01840F951F2E9105D04150A7
:102140005040D8F70895262FE3DF0080021611F0E3
:1021500004D0019701970895262FE0ECF1E0378530
:1021600037FDFDCF3485377F3487378531FF09C090
:1021700036E3328738ED34BF31E03387378537FDBA
:10218000FDCF33E33287808391831282248325E35A
:10219000228728ED31E024BF338701960895FB01A3
:1021A000DC0102C001900D9241505040D8F70895D3
:0421B000F894FFCFD1
:1021B4005F7228005EBCE2613FDD83C29C7E20A387
:1021C400FD1F419DC3217FFCA2401E5F01E3BD3E74
:1021D4006082DC237D9FC1421CFEA0E1BF5D0380C1
:1021E400DE3C62BEE0025CDF81633D7C22C09E1D5A
:1021F40043A1FF4618FAA427799BC584DA3866E51B
:10220400BB5907DB856739BAE406581947A5FB783B
:1022140026C49A653BD987045AB8E6A7F91B45C674
:10222400987A24F8A6441A99C7257B3A6486D85B21
:1022340005E7B98CD2306EEDB3510F4E10F2AC2FCE
:102244007193CD114FADF3702ECC92D38D6F31B20B
:10225400EC0E50AFF1134DCE90722C6D33D18F0C28
:1022640052B0EE326C8ED0530DEFB1F0AE4C1291F1
:10227400CF2D73CA947628ABF517490856B4EA698A
:1022840037D58B5709EBB536688AD495CB2977F4C3
:10229400AA4816E9B7550B88D6346A2B7597C94AEC
:1022A40014F6A8742AC896154BA9F7B6E80A54D7A9
:1022B400896B352C00726400696E707574616C6C86
:1022C4000077720072656C617943746C00636831E5
:1022D400006F6E006F666600B14100B24300B34503
:1022E40000B44700B54900B64A00B74C00B84E00E8
:1022F400B95000BA5200B74D01B84F01B95101BAF3
:102304005301BB5400BC5600BD5800BE5A00BF5C0C
:1023140000BB5501BC5701BD5901BE5B01BF5D0146
:10232400C05E00C16000C26300C36500C46700C032
:102334005F01C16101C26401C36601C46801C5696A
:1023440000C66A00C76B00C86C00C96D00CA6E0085
:10235400CB7100CC7400CD7700CE7A00CA6F01CB6C
:102364007201CC7501CD7801CE7B01CA7002CB73AA
:1023740002CC7602CD7902CE7C02CF7D00D07E00E5
:10238400D18000D28100D38200D48400D58600D6C7
:102394008800D78900D88A00D98B00DA8C00DB8DBD
:1023A40000DC8F00DD9300A74100A84300A945008D
:1023B400AA4700AB4900AC8300AD8500AE8700AFEF
:1023C4008300B0FC000000008345839383658393FE
:1023D400835A834C83678372838900312E835683A7
:1023E4008583453F838583453F83453F284129496C
:1023F4004400322E83458393836583938356838578
:10240400284229494400332E8350834383578387CA
:1024140083458343839328432900342E834583567D
:10242400838D836783728389284429494400352E28
:1024340083888352836783728389284429494400AB
:10244400362E834C8383837283933F834C3F28448B
:1024540029494400372E834C838383728393837189
:102464003F2844294944003F0075432F4F532D49C9
:10247400492049646C65000000010002000100036A
:102484000001000200010004000100020001000339
:102494000001000200010005000100020001000328
:1024A4000001000200010004000100020001000319
:1024B4000001000200010006000100020001000307
:1024C40000010002000100040001000200010003F9
:1024D40000010002000100050001000200010003E8
:1024E40000010002000100040001000200010003D9
:1024F40000010002000100070001000200010003C6
:1025040000010002000100040001000200010003B8
:1025140000010002000100050001000200010003A7
:102524000001000200010004000100020001000398
:102534000001000200010006000100020001000386
:102544000001000200010004000100020001000378
:102554000001000200010005000100020001000367
:102564000001000200010004000100020001000358
:0825740000010002000100005B
:00000001FF
