:10000000F1C10000F7C00000F7C00000F7C0000019
:10001000F7C00000F7C00000F7C00000F7C0000004
:10002000F7C00000F7C00000F7C00000F7C00000F4
:10003000F7C00000F7C00000F7C00000F7C00000E4
:10004000F7C00000F7C00000F7C00000F7C00000D4
:10005000F7C00000F7C00000F7C00000F7C00000C4
:10006000F7C00000F7C00000F7C00000F7C00000B4
:10007000F7C00000F7C00000F7C00000F7C00000A4
:10008000F7C00000F7C00000F7C00000F7C0000094
:10009000F7C00000F7C00000F7C00000F7C0000084
:1000A000F7C00000F7C00000F7C00000F7C0000074
:1000B000F7C00000F7C00000F7C00000F7C0000064
:1000C000F7C00000F7C00000F7C00000F7C0000054
:1000D000F7C00000F7C00000F7C00000F7C0000044
:1000E000F7C00000F7C00000F7C00000F7C0000034
:1000F000F7C00000F7C00000F7C00000F7C0000024
:10010000F7C00000F7C00000F7C00000F7C0000013
:10011000F7C00000F7C00000F7C00000F7C0000003
:10012000F7C00000F7C00000F7C00000F7C00000F3
:10013000F7C00000F7C00000F7C00000F7C00000E3
:10014000F7C00000F7C00000F7C00000F7C00000D3
:10015000F7C00000F7C00000F7C00000F7C00000C3
:10016000F7C00000F7C00000F7C00000F7C00000B3
:10017000F7C00000F7C00000F7C00000F7C00000A3
:10018000F7C00000F7C00000F7C00000F7C0000093
:10019000F7C00000F7C00000F7C00000F7C0000083
:1001A000F7C00000F7C00000F7C00000F7C0000073
:1001B000F7C00000F7C00000F7C00000F7C0000063
:1001C000F7C00000F7C00000F7C00000F7C0000053
:1001D000F7C00000F7C00000F7C00000F7C0000043
:1001E000F7C00000F7C00000F7C00000F7C0000033
:1001F000F7C00000F7C00000F5C00000F3C0000029
:10020000F1C00000EFC00000EDC00000EBC0000036
:10021000E9C00000E7C00000E5C00000E3C0000046
:10022000E1C00000DFC00000DDC00000DBC0000056
:10023000D9C00000D7C00000D5C00000D3C0000066
:10024000F6C00000CFC00000CDC00000CBC0000051
:10025000C9C00000C7C00000C5C00000C3C0000086
:10026000C1C00000BFC00000BDC00000BBC0000096
:10027000B9C00000B7C00000B5C000000C944C0924
:10028000B1C00000AFC00000ADC00000ABC00000B6
:10029000A9C00000A7C00000A5C00000A3C00000C6
:1002A000A1C000009FC000009DC000009BC00000D6
:1002B00099C0000097C0000095C0000093C00000E6
:1002C00091C000008FC000008DC000008BC00000F6
:1002D00089C0000087C0000085C0000083C0000006
:1002E00081C000007FC000007DC000007BC0000016
:1002F00079C0000077C0000075C0000073C0000026
:1003000071C000006FC000006DC000006BC0000035
:1003100069C0000067C0000065C0000063C0000045
:1003200061C000005FC000005DC000005BC0000055
:1003300059C0000057C0000055C0000053C0000065
:1003400051C000004FC000004DC000004BC0000075
:1003500049C0000047C0000045C0000043C0000085
:1003600041C000003FC000003DC000003BC0000095
:1003700039C0000037C0000035C0000033C00000A5
:1003800031C000002FC000002DC000002BC00000B5
:1003900029C0000027C0000025C0000023C00000C5
:1003A00021C000001FC000001DC000001BC00000D5
:1003B00019C0000017C0000015C0000013C00000E5
:1003C00011C000000FC000005DC400000BC00000A1
:1003D00009C0000007C0000005C0000003C0000005
:1003E00001C0000011241FBECFEFCDBFDFE3DEBF91
:1003F00000E00CBF18BE19BE1ABE1BBE13E2A0E07F
:10040000B0E2E6E4F3E200E00BBF02C007900D9219
:10041000AC3DB107D9F71BBE26E3ACEDB3E201C09A
:100420001D92AD33B207E1F7D3D70C94A1110F920F
:100430000FB60F921F9211242F923F924F925F920C
:100440006F927F928F929F92AF92BF92CF92DF92E4
:10045000EF92FF920F931F932F933F934F935F93CE
:100460006F937F938F939F93AF93BF93CF93DF93BC
:10047000EF93FF930CB70F9308B70F9309B70F9340
:100480000AB70F930BB70F930091A42F0395009316
:10049000A42F013041F4ADB7BEB7C091A52FD091C4
:1004A000A62FA993B9930E94CE0A0E94570A0F91D2
:1004B0000BBF0F910ABF0F9109BF0F9108BF0F919A
:1004C0000CBFFF91EF91DF91CF91BF91AF919F91C1
:1004D0008F917F916F915F914F913F912F911F91DC
:1004E0000F91FF90EF90DF90CF90BF90AF909F90D3
:1004F0008F907F906F905F904F903F902F901F90C4
:100500000F900FBE0F9018958FB7F89408958FBF76
:1005100008950E94E60D0091632F03950093632FC9
:10052000A091972FB091982FCD91CDBFDD91DEBFD7
:100530000F910BBF0F910ABF0F9109BF0F9108BF19
:100540000F910CBFFF91EF91DF91CF91BF91AF91D0
:100550009F918F917F916F915F914F913F912F91DB
:100560001F910F91FF90EF90DF90CF90BF90AF90D1
:100570009F908F907F906F905F904F903F902F90C3
:100580001F900F900FBE0F9018950F920FB60F92FD
:100590001F9211242F923F924F925F926F927F92FF
:1005A0008F929F92AF92BF92CF92DF92EF92FF9283
:1005B0000F931F932F933F934F935F936F937F936B
:1005C0008F939F93AF93BF93CF93DF93EF93FF935B
:1005D0000CB70F9308B70F9309B70F930AB70F9390
:1005E0000BB70F93ADB7BEB7C091A52FD091A62F73
:1005F000A993B9930E94E60D0091682F00938C2F68
:10060000A091972FB091982FA093A52FB093A62FCC
:10061000CD91CDBFDD91DEBF0F910BBF0F910ABF12
:100620000F9109BF0F9108BF0F910CBFFF91EF9180
:10063000DF91CF91BF91AF919F918F917F916F91FA
:100640005F914F913F912F911F910F91FF90EF90EC
:10065000DF90CF90BF90AF909F908F907F906F90E2
:100660005F904F903F902F901F900F900FBE0F9074
:1006700008950E94E60D0091682F00938C2FA091A1
:10068000972FB091982FA093A52FB093A62FCD911F
:10069000CDBFDD91DEBF0F910BBF0F910ABF0F9150
:1006A00009BF0F9108BF0F910CBFFF91EF91DF9130
:1006B000CF91BF91AF919F918F917F916F915F91FA
:1006C0004F913F912F911F910F91FF90EF90DF90ED
:1006D000CF90BF90AF909F908F907F906F905F90E2
:1006E0004F903F902F901F900F900FBE0F90189536
:1006F0000895089584E0E0E8F6E08783089508957A
:1007000088E0E0E8F6E0878308951092152C809148
:10071000C20BFDCF0F931F93DC0180E000E010E0DF
:10072000980104171507260737075CF4ED91E827B1
:10073000F0E0ED5FFF4D80810F5F1F4F2F4F3F4F68
:10074000F0CF1F910F910895CF93DF93EC0144E513
:1007500052E060E074E00E945D1144E552E060E028
:1007600070E0CE01D7DF682F84E596E0DF91CF916E
:100770000C9475118F929F92AF92BF92CF92DF929D
:10078000EF92FF920F931F93CF93DF93FC0184E5C9
:1007900092E0DF019C011D9221503040E1F788E793
:1007A00096E5A4E3B2E180839183A283B38384833B
:1007B0009583A683B78380879187A287B387848731
:1007C0009587A687B787808B918BA28BB38B848B01
:1007D000958BA68BB78B808F918FA28FB38FEF01F4
:1007E000C45EDE4F88839983AA83BB832496888363
:1007F0009983AA83BB8341E050E060E070E0448FBE
:10080000558F668F778F40A351A362A373A344A330
:1008100055A366A377A340A751A762A773A714A601
:1008200015A616A617A610AA11AA12AA13AADF01C6
:10083000AC5DBE4F1D921D921D921C921397149693
:100840001D921D921D921C92139702E010E020E071
:1008500030E004AB15AB26AB37AB00AF11AF22AF26
:1008600033AF44AF55AF66AF77AFA85EB1094D93D4
:100870005D936D937C93139714960D931D932D9315
:100880003C93139714960D931D932D933C931397BC
:1008900014964D935D936D937C93139714960D93DB
:1008A0001D932D933C931397149684E1882E912CDD
:1008B000A12CB12C8D929D92AD92BC92139714965F
:1008C00093E0C92ED12CE12CF12CCD92DD92ED924A
:1008D000FC9213971496CD92DD92ED92FC921397B1
:1008E00014964D935D936D937C93139714960D938B
:1008F0001D932D933C93139714960D931D932D9355
:100900003C93139714964D935D936D937C9313973B
:1009100014960D931D932D933C93139714968D92DB
:100920009D92AD92BC9213971496CD92DD92ED926A
:10093000FC9213971496CD92DD92ED92FC92139750
:1009400014961D921D921D921C92139714960D934E
:100950001D932D933C93139714968D929D92AD9277
:10096000BC92139714961D921D921D921C92139780
:1009700014960D931D932D933C93139714960D93FA
:100980001D932D933C9313971496CD92DD92ED9287
:10099000FC9213971496CD92DD92ED92FC921397F0
:1009A00014961D921D921D921C92139714960D93EE
:1009B0001D932D933C93139714968D929D92AD9217
:1009C000BC92139714961D921D921D921C92139720
:1009D00014960D931D932D933C93139714960D939A
:1009E0001D932D933C9313971496CD92DD92ED9227
:1009F000FC9213971496CD92DD92ED92FC92139790
:100A000014964D935D936D937C93139714960D9369
:100A10001D932D933C931397C855D1098AE090E01C
:100A2000A0E0B0E088839983AA83BB83249648839F
:100A300059836A837B832496488359836A837B83A3
:100A40002496488359836A837B8324960883198379
:100A50002A833B83249688839983AA83BB83DF01FF
:100A6000A052BF4F4D935D936D937C931397149653
:100A70004D935D936D937C93139714960D931D93F3
:100A80002D933C93139714960D931D932D933C93A4
:100A9000139714964D935D936D937C9313971496CF
:100AA0001D921D921D921C92139714961D921D92D9
:100AB0001D921C921397A09682ED94E0A0E0B0E006
:100AC00088839983AA83BB83249687ED91E1A0E074
:100AD000B0E088839983AA83BB83DF01AC5FBE4FFC
:100AE0001D921D921D921C92139714964D935D9327
:100AF0006D937C93139714961D921D921D921C92D8
:100B0000139714961D921D921D921C921397149682
:100B10001D921D921D921C92139758964D935D93B2
:100B20006D937C93139714964D935D936D937C9383
:100B3000139714964D935D936D937C93139714962E
:100B40004D935D936D937C931397E853FD4F86E728
:100B500098E9A0E0B0E080839183A283B383DF9122
:100B6000CF911F910F91FF90EF90DF90CF90BF90AA
:100B7000AF909F908F900895CF9344E552E060E04E
:100B800074E081ED9CE20E94421184E596E00E94AF
:100B90004D11C82F44E552E060E070E081ED9CE229
:100BA000B9DDC817C1F081ED9CE2E4DD44E552E017
:100BB00060E074E081ED9CE20E945D1144E552E04A
:100BC00060E070E081ED9CE2A5DD682F84E596E0B1
:100BD000CF910C947511CF910895FC0184E290E0BF
:100BE0008083918320E8228388E190E08683978345
:100BF000208713821482158280E090E0DF01A80F25
:100C0000B91F19961D921C921A9702968C31910564
:100C1000A9F70895CF9347E650E060E070E088E4DC
:100C20009CE20E94421187E690E00E944D11C82F7D
:100C300047E650E060E070E088E49CE26BDDC817B6
:100C4000C1F088E49CE2C9DF47E650E060E070E074
:100C500088E49CE20E945D1147E650E060E070E0AD
:100C600088E49CE257DD682F87E690E0CF910C94F2
:100C70007511CF9108958F708A3010F4805D0895BA
:100C8000895A0895CF93DF931F92CDB7DEB71982AB
:100C90008091C30B89832091DE233091DF23C9012A
:100CA00001968093DE239093DF234981F901EB5D68
:100CB000F04D4083FC01EB5DF04D80818D3021F4DF
:100CC0001092DE231092DF230F90DF91CF910895D1
:100CD000CF93DF93CDB7DEB7A697CDBFDEBF1B8E18
:100CE0001C8E18A21F8E1E8E1D8E198E1A8E1F8AA4
:100CF000188E1D8A1E8A8DE4582E95E4492E2CE20A
:100D0000722E3CE6632E41E6342E54E7252E809168
:100D1000152C813009F0FFCF63E071E286E19CE29F
:100D20000E94FE1063E071E280E090E00E94FE10FD
:100D30005C0163E071E280E090E00E94FE106C01D3
:100D400063E071E280E090E00E94FE107C0163E0CD
:100D500071E280E090E00E94FE108C0163E071E29D
:100D600080E090E00E94FE1089A39AA363E071E204
:100D700080E090E00E94FE108BA39CA363E071E2F0
:100D800080E090E00E94FE108DA39EA363E071E2DC
:100D900080E090E00E94FE104C011F8A188E65E0F2
:100DA00071E2C5010E940111892B09F497C068E026
:100DB00071E2C6010E940111892B09F4A8CF598262
:100DC0004A827B8289E68C838EE68D8380E78E83E0
:100DD00085E78F83288639866A866B867C860E94A3
:100DE000ED0F182F0E94E40F20E4829FC001112410
:100DF00040E8149F90011124182F122B0E94DB0F42
:100E000020E2829FC0011124182B0E94D30F40E1E1
:100E1000849FC0011124182B0E94CA0F28E0829FD2
:100E2000C0011124182B0E94C10F44E0849FC0010F
:100E30001124182B0E94B90F082F000F012B0E94BC
:100E4000B30F082B802F82958F7015DF8D87802F31
:100E50008F7011DF8E877F860E942F10182F0E94BF
:100E6000261020E4829FC001112440E8149F9001C5
:100E70001124182F122B0E941D1020E2829FC00106
:100E80001124182B0E94151040E1849FC0011124E9
:100E9000182B0E940C1028E0829FC0011124182BEF
:100EA0000E94031044E0849FC0011124182B0E946B
:100EB000FB0F082F000F012B0E94F50F082B802F2E
:100EC00082958F70D8DE888B802F8F70D4DE898BCF
:100ED0007A8A8DE08B8B83E190E09DC061E171E2C5
:100EE000C5010E940111892B09F411CF64E171E25F
:100EF000C6010E940111892B09F490C06DE171E2D5
:100F0000C7010E940111892BB1F061E271E2C801B1
:100F10000E940111892B21F081E090E00E9437109E
:100F200064E271E2C8010E940111892B21F080E086
:100F300090E00E94371068E271E2C7010E9401113F
:100F4000892BB1F061E271E2C8010E940111892B85
:100F500021F081E090E00E94401064E271E2C8015B
:100F60000E940111892B21F080E090E00E94401046
:100F70006CE271E2C7010E940111892BB1F061E2BC
:100F800071E2C8010E940111892B21F081E090E0FB
:100F90000E944A1064E271E2C8010E940111892B8B
:100FA00021F080E090E00E944A1060E371E2C70106
:100FB0000E940111892BB1F061E271E2C8010E9427
:100FC0000111892B21F081E090E00E94541064E22D
:100FD00071E2C8010E940111892B21F080E090E0AC
:100FE0000E94541059824A827B8292E79C8325E6B4
:100FF0002D836E823F8249E7488783E489872A866A
:101000006B867C869FE69D878BE68E877F868DE04C
:10101000888B80E190E0898F9A8F79CE64E371E2CA
:10102000C6010E940111892B09F471CEC7010E94EB
:10103000741080E290E00E946D10C8010E9474104C
:1010400080E290E00E946D1089A19AA10E94741024
:1010500080E290E00E946D108BA19CA10E94741010
:1010600080E290E00E946D108DA19EA10E947410FC
:1010700080E290E00E946D10C4010E9474108DE027
:1010800090E00E946D108AE090E00E946D103FCECB
:101090000C949510CF93DF931F921F92CDB7DEB7BC
:1010A00089836A8320E042E050E0BE016F5F7F4F9A
:1010B0008CE70E94A8108FE891E00197F1F700C03B
:1010C00000000F900F90DF91CF910895682F80E07E
:1010D000E1CF682F80E4DECF1F93CF93DF93EDE362
:1010E000F1E220E030E09081981310C0E901CC0FCC
:1010F000DD1FC20FD31FC45CDE4D1881812FE9DFD5
:101100008A81882351F08352E4DF07C02F5F3F4F6D
:1011100033962035310539F710E2812FDF91CF91D9
:101120001F910895FF920F931F93CF93DF931F9208
:10113000CDB7DEB78C011982FF24F394F8018081CA
:10114000882399F0833829F49981911102C0F9829A
:1011500009C09981913029F41982F8018081BCDF9E
:1011600001C0B7DF0F5F1F4FE9CF0F90DF91CF9125
:101170001F910F91FF900895606820E4829FC00145
:101180001124862BA3CF81E0A1CF682F80E082CFEE
:101190009091E023982B9093E023892F886090E032
:1011A000F4CF84E0F5CF809102208061809302200B
:1011B0002FEF83EC99E0215080409040E1F700C090
:1011C000000080910220816081DF80910220816097
:1011D0007DDF84E17BDF8091012078DF809100203A
:1011E00075DF8BE673DF2FEF87E893E121508040B6
:1011F0009040E1F700C000008CE068DF80910220A1
:1012000065DFCFCF88ED84BF82E08093500080916E
:10121000510081FFFCCF88ED84BF81E080934000C6
:101220000895FC018081807F80838CE08187089510
:10123000CF93CFB7F89480E498E0F3DFE0E4F8E0F0
:101240008081807F816080838181887C81838381AC
:10125000807183838681807F836086838781807F9E
:101260008783A0E9B8E08C918D7F8C9384858487F7
:1012700010A211A281E09DE786A397A310A611A654
:1012800012A613A6CFBFCF91089588ED84BF81E049
:10129000E8E7F0E08183089508958F929F92AF92DE
:1012A000BF92CF92DF92EF92FF920F931F93CF9353
:1012B0001F92C3E0CF93812C912C8EE5A82EBB24E6
:1012C000B394C12CD12C9BEFE92E97E2F92E06E0C6
:1012D00010E026E048E559E260E070E088E696E03C
:1012E0001DD51F92CF9329E5E22E29E2F22E07E0C9
:1012F00010E027E046EB5AE260E070E085E893E01A
:101300000DD50F900F900F900F90CF911F910F91CF
:10131000FF90EF90DF90CF90BF90AF909F908F9015
:10132000089586DF83E08093060887E08093A2001B
:1013300023DC70DC80E090E079D48093602F909380
:10134000612FABDF1092572F1092582F1092592F08
:1013500010925A2F10925B2F8091E52D9091E62DDF
:10136000A091E72DB091E82D0297A105B105F0F409
:101370008091E52D9091E62DA091E72DB091E82D7B
:101380000196A11DB11D8093E52D9093E62DA093AC
:10139000E72DB093E82D81ED9CE2D6D920E030E036
:1013A00045E060E080E07AD570DF0BC01092E52D5B
:1013B0001092E62D1092E72D1092E82D81ED9CE21F
:1013C000C3D922E330E040E060E080E067D5F9CFA8
:1013D0008F929F92AF92BF92CF92DF92EF92FF9245
:1013E0000F931F930FDFBED598D652DEDCDECBDE27
:1013F00060E080E0C1DE8CE292E294DE5FD657D1FD
:101400001F9283E08F93812C912C3EE5A32EBB2469
:10141000B394C12CD12C47EBE42E4AE2F42E02E027
:1014200010E022E044E15CE260E070E081E999E0F4
:1014300075D499D00F900F9080E090E01F910F919C
:10144000FF90EF90DF90CF90BF90AF909F908F90E4
:101450000895E091992FF0E0E552FD4D9081E92F3C
:10146000F0E0E656F04DE081F0E0E552FD4D808180
:1014700028E0929F800D11248093682F089544D80E
:101480004091642F5091652F6091662F7091672F66
:101490004F5F5F4F6F4F7F4F4093642F5093652F87
:1014A0006093662F7093672F32D812D3E8CFCF9313
:1014B000DF931F92CDB7DEB78091632F813009F0A3
:1014C0004EC022D89091A42F992319F09150909357
:1014D000A42F9091A42F91113DC09091622F911152
:1014E00039C08983B6DF9091682FE92FF0E0EE0FC5
:1014F000FF1FE354FA4C0190F081E02DE093972F09
:10150000F093982F20918C2F8981921719F140A583
:1015100051A562A573A54F5F5F4F6F4F7F4F40A7E7
:1015200051A762A773A74091902F5091912F60917E
:10153000922F7091932F4F5F5F4F6F4F7F4F40936C
:10154000902F5093912F6093922F7093932F8983B4
:1015500090D889810F90DF91CF910C9487020F90E2
:10156000DF91CF9108958091632F811116C071DFB3
:10157000E091682FE0938C2FF0E0EE0FFF1FE35413
:10158000FA4C808191818093972F9093982F80932C
:10159000A52F9093A62F0C94890208951F93CF93A3
:1015A000DF9318D30E9484024091A72F5091A82F57
:1015B0006091A92F7091AA2F4F5F5F4F6F4F7F4FA0
:1015C0004093A72F5093A82F6093A92F7093AA2F11
:1015D0000E9487029091632F913009F04CC0809156
:1015E0008F2F813009F447C038F0823019F490937E
:1015F0008F2F02C010928F2FC0918D2FD0918E2FE0
:1016000011E08AA18F33B9F10E9484024C8D5D8D67
:101610006E8D7F8D411551056105710531F1415088
:101620005109610971094C8F5D8F6E8F7F8F452B3A
:10163000462B472BD1F498A1292F277321F0987CB2
:1016400098A319A301C019A298A193FD0EC090916F
:10165000992F2EA1922B9093992FECA1F0E0E656B2
:10166000F04D90812DA1922B90830E84DF85C02DAB
:101670000E948702C6CFDF91CF911F910895FC0190
:10168000158220E030E0FC01E20FF31F16822F5F8D
:101690003F4F28303105B9F70895680F791F861735
:1016A000970721F0FC011192CF01F9CF08958F9295
:1016B0009F92AF92BF92CF92DF92EF92FF920F93E1
:1016C0001F93CF93DF931F92CDB7DEB7FDD110925A
:1016D000A72F1092A82F1092A92F1092AA2F109224
:1016E000A42F1092622F1092962F1092632F1092B7
:1016F000902F1092912F1092922F1092932F109260
:10170000642F1092652F1092662F1092672F1092FF
:10171000992FEAE9FFE211924FE2E23AF407D9F792
:1017200010928C2F1092682F1092972F1092982F52
:101730001092A52F1092A62F60E475E08BE790E33E
:10174000ACDF60E870E08DEB95E3A7DFEBE7F0E35B
:101750002BEC32E2CF01805C9F4F8687978722AFC8
:1017600033AF45E38B37940711F0FC01F3CF1092B0
:10177000893510928A358BEC92E28093B53590933F
:10178000B63510928D2F10928E2F8BE790E38093B9
:10179000942F9093952F60E570E08BE290E37DDFCE
:1017A000EBE2F0E32BEC32E2CF0140961082818332
:1017B00092832687378740E38B36940711F0FC012C
:1017C000F3CF10926B3010926C3010926D308BEC26
:1017D00092E28093793090937A308BE290E3809319
:1017E000A22F9093A32FF9D11F9283E08F93812C86
:1017F000912C40E8A42EB12CC12CD12C5BEAE52E13
:101800005FE2F52E0FEF1FEF2FE34AE250E360E0B7
:1018100070E08FE39AE082D2AE014F5F5F4F6DECD4
:1018200072E28FE333D251D1D7D10F900F900F9046
:10183000DF91CF911F910F91FF90EF90DF90CF90AC
:10184000BF90AF909F908F900895CF93DF931F929A
:10185000CDB7DEB70E9484029091A42F91113EC0B3
:101860009091622F91113AC08983F3DD9091682F96
:10187000E92FF0E0EE0FFF1FE354FA4C0190F081E6
:10188000E02DE093972FF093982F20918C2F898152
:10189000921721F140A551A562A573A54F5F5F4F37
:1018A0006F4F7F4F40A751A762A773A74091902F1A
:1018B0005091912F6091922F7091932F4F5F5F4FB6
:1018C0006F4F7F4F4093902F5093912F6093922FA3
:1018D0007093932F89830E94C50289810F90DF91B5
:1018E000CF910C9487022F923F924F925F926F920A
:1018F0007F929F92AF92BF92CF92DF92EF92FF9230
:101900000F931F93CF93DF9300D000D0CDB7DEB7F6
:10191000982E69837A831A012B833C83270138012F
:101920000E948402E090942FF090952FED82FE8229
:10193000E114F10409F4B0C0D7011E962D913C9139
:101940001F972093942F3093952F0E948702E98050
:10195000FA80ED81FE81E082F18292A210A211A2B2
:10196000148E158E168E178EC282D38246825782AF
:101970006086718624823582A286B3862B813C8163
:101980002487358717A2492D46954695469544A349
:10199000292D277023A381E090E0A0E0B0E07C0136
:1019A0008D0104C0EE0CFF1C001F111F4A95D2F7D9
:1019B000E6A204C0880F991FAA1FBB1F2A95D2F761
:1019C00085A3128A138A148A158A108E118E168A9C
:1019D000178A10A611A612A613A610AA11AA12AA57
:1019E00013AA14A615A616A617A614AA15AA16AA0F
:1019F00017AA10AE11AE8BEC92E282AF93AF14AE89
:101A000015AE16AE17AECF01E3D00E948402E92DC9
:101A1000F0E0EE0FFF1FE354FA4CED80FE80E08211
:101A2000F1820E9487028D819E8150D00E948402A3
:101A3000E0918D2FF0918E2FD7011E96ED93FC93A0
:101A40001F9750961D921C925197309711F0E08A83
:101A5000F18AED80FE80E0928D2FF0928E2F909192
:101A6000992FD70196962C919697922B9093992F18
:101A70009496EC919497F0E0E656F04D908195960F
:101A80002C91922B90839091962F9F5F9093962FFD
:101A90000E94870280E003C00E94870282E42696AB
:101AA000CDBFDEBFDF91CF911F910F91FF90EF90DF
:101AB000DF90CF90BF90AF909F907F906F905F909E
:101AC0004F903F902F900895089508950C947803B7
:101AD0000C9479030F931F938C01222717FD2095F7
:101AE000322FFA0100833197108331972083319789
:101AF0001082319780E8808331971082319782E09D
:101B00008083319783E08083319784E080833197AD
:101B100085E08083319786E08083319787E08083FA
:101B2000319788E08083319789E08083319780E125
:101B30008083319781E18083319782E1808331977F
:101B400083E18083319784E18083319785E18083CD
:101B5000319786E18083319787E18083319788E1EF
:101B60008083319789E18083319780E28083319748
:101B700081E28083319782E28083319783E28083A0
:101B80003197608331978B011083319786E2808390
:101B9000319787E28083319788E28083319789E2A9
:101BA0008083319780E38083319781E3808331970D
:101BB00010823197108231971082319710823197BD
:101BC0001082CA0189971F910F9108950C947A038E
:101BD0000C947F030C948003089563E270E089E61F
:101BE0009FE25BDDE9E6FFE22BEC32E2CF010796F4
:101BF000108281839283258336834FE28538940750
:101C000011F0FC01F3CF1092852F1092862F1092C5
:101C1000872F8BEC92E280938A2F90938B2F89E60B
:101C20009FE28093BB359093BC3508950F931F932B
:101C3000CF93DF938C018091A42F811120C00E944B
:101C40008402C091A22FD091A32F209731F0298137
:101C50003A812093A22F3093A32F0E9487022097CE
:101C600071F083E088830B831C8319821A828BECCA
:101C700092E28E879F87CE0102DDCE0102C080E016
:101C800090E0DF91CF911F910F910895FF920F93F4
:101C90001F93CF93DF93F82E8B01EA018091A42F3D
:101CA000882311F082E11BC00E9484029FEFF91289
:101CB00005C0E091A52FF091A62FF2A0EF2DF0E046
:101CC000EE0FFF1FE354FA4C0190F081E02D3097A6
:101CD00019F0E130F10529F40E94870283E488833A
:101CE00005C002AF13AF0E9487021882DF91CF9127
:101CF0001F910F91FF9008952370332723303105F2
:101D000061F4FC01411551056105710531F0415047
:101D10005109610971091192F5CF08952F923F92EF
:101D20004F925F926F927F928F929F92AF92BF92EB
:101D3000CF92DF92EF92FF920F931F93CF93DF9397
:101D4000CDB7DEB72997CDBFDEBF8A839B836C8377
:101D50007D834E835F8329830887198737011501A7
:101D600026016401AF8CB8A00E9484029091A42F38
:101D7000992321F00E9487028CE33FC02981822EA3
:101D8000912C880C991CF401E354FA4C4F012081EA
:101D90003181232B69F521E030E0208331830E94DB
:101DA00087029501B201A101C701A6DF95014E810D
:101DB0005F816C817D818A819B818CDE82017101D2
:101DC00028853985A301BC0189818DDDD82E81113B
:101DD00006C08091632F813079F437DD0DC00E94F9
:101DE0008402F401108211820E9487028D2D05C0A9
:101DF0000E94870288E201C080E02996CDBFDEBF45
:101E0000DF91CF911F910F91FF90EF90DF90CF90D6
:101E1000BF90AF909F908F907F906F905F904F900A
:101E20003F902F900895CF92DF92EF92FF926B0137
:101E30007C018091A42F81112CC08091622F81118F
:101E400028C0C114D104E104F10419F10E948402F4
:101E5000E091A52FF091A62FA4A1B0E0A656B04D19
:101E600095A190952C9192239C93911107C026A146
:101E700020959091992F92239093992FC48ED58E6F
:101E8000E68EF78E0E948702FF90EF90DF90CF9052
:101E9000DCCCFF90EF90DF90CF900895CF92DF924F
:101EA000EF92FF92582FF9018091A42F81112FC03A
:101EB0008091622F81112DC0262F30E0ACE3B0E07D
:101EC00084D16B017C01C40ED11CE11CF11C252FB7
:101ED00030E0A0E1BEE079D1C60ED71EE81EF91EA3
:101EE000A8EEB3E0A70196017FD16B017C019F01B1
:101EF0006CD128EE33E040E050E045D1C20ED31E55
:101F0000E41EF51EC701B6018EDF80E003C085E543
:101F100001C082E3FF90EF90DF90CF9008958CEFA7
:101F20008093000680E88093200698E8909340060E
:101F300092E090936006A0E8B6E092E29C93E0EA1B
:101F4000F6E092E490831092E006109200078093EE
:101F500020078FE08093C00788E152968C93858B91
:101F6000868B0895DCCFE0EEF6E080858095817069
:101F70000895E0EEF6E080858695817091E08927EE
:101F80000895E0EEF6E0808582FB882780F991E0F5
:101F900089270895E0EEF6E0808583FB882780F9A5
:101FA00091E089270895E0EEF6E0808582958170C2
:101FB00091E089270895E0EEF6E0808585FB88278B
:101FC00080F991E089270895E0EEF6E0808586FBB0
:101FD000882780F991E089270895E0EEF6E0808572
:101FE0008095881F8827881F0895E0E0F7E08085A6
:101FF000809581700895E0E0F7E080858695817096
:1020000091E089270895E0E0F7E0808582FB88274A
:1020100080F991E089270895E0E0F7E0808583FB6F
:10202000882780F991E089270895E0E0F7E080852E
:102030008295817091E089270895E0E0F7E080853E
:1020400085FB882780F991E089270895E0E0F7E093
:10205000808586FB882780F991E089270895E0E054
:10206000F7E080858095881F8827881F0895813034
:1020700019F48093C507089581E08093C6070895F9
:10208000813021F482E08093C507089582E0809337
:10209000C6070895813021F484E08093C507089530
:1020A00084E08093C6070895813021F488E080930E
:1020B000C507089588E08093C607089580E480935B
:1020C000A7088CE08093A608E5EAF8E0108283E098
:1020D000808388E08093A40808959091A10895FFDB
:1020E000FCCF8093A00808950F931F93CF93DF93A5
:1020F000EC0100E010E0888190E0EFDF89918D3005
:1021000039F0882329F00F5F1F4F0233110599F72B
:10211000DF91CF911F910F910895E0ECFBE080815A
:10212000806480831092C10B0895E0E4F6E088E3B8
:10213000808B818B80E980938504E1E8F4E08081E5
:1021400088608083E4E8F4E0808181608083089582
:10215000809386048091840486FFFCCFFB01460FA8
:10216000571FE417F50741F0819180938704809110
:10217000840486FFFCCFF5CF211103C083E0809358
:10218000830480E00895A1E21A2EAA1BBB1BFD0167
:102190000DC0AA1FBB1FEE1FFF1FA217B307E40746
:1021A000F50720F0A21BB30BE40BF50B661F771F9E
:1021B000881F991F1A9469F760957095809590957E
:1021C0009B01AC01BD01CF010895A29FB001B39F57
:1021D000C001A39F700D811D1124911DB29F700D30
:1021E000811D1124911D0895F0DFA59F900DB49FCE
:1021F000900DA49F800D911D112408954CED53E284
:102200001AC0FB0151915523A9F0BF01DC014D918A
:1022100045174111E1F759F4CD010190002049F033
:102220004D9140154111C9F3FB014111EFCF81E000
:1022300090E001970895FA01A191B081009719F4F7
:102240001097E1F0CD01DC01CD010D90002011F4DB
:10225000C00113C0FB012191222319F02015D9F7E9
:10226000F3CFFB012191201519F41E92119606C09F
:102270002223C1F70D900020A1F7D001FA01A1930C
:10228000B0830895E0ECF1E0A785A7FDFDCFA4851C
:10229000A860A4876050704F4BC003D080819927FD
:1022A0000895E0ECF1E0378537FDFDCF34853860E7
:1022B0003487FC01E050F04F0895DC01A40FB51FF6
:1022C0004150504040F0CB01840F951F2E9105D016
:1022D00041505040D8F70895262FE3DF00800216C2
:1022E00011F004D0019701970895262FE0ECF1E05A
:1022F000378537FDFDCF3485377F3487378531FF0C
:1023000009C036E3328738ED34BF31E03387378593
:1023100037FDFDCF33E3328780839183128224839C
:1023200025E3228728ED31E024BF33870196089505
:10233000FB01DC0102C001900D9241505040D8F7E2
:062340000895F894FFCFA0
:102346005F7228005EBCE2613FDD83C29C7E20A3F3
:10235600FD1F419DC3217FFCA2401E5F01E3BD3EE0
:102366006082DC237D9FC1421CFEA0E1BF5D03802D
:10237600DE3C62BEE0025CDF81633D7C22C09E1DC6
:1023860043A1FF4618FAA427799BC584DA3866E587
:10239600BB5907DB856739BAE406581947A5FB78A8
:1023A60026C49A653BD987045AB8E6A7F91B45C6E1
:1023B600987A24F8A6441A99C7257B3A6486D85B8E
:1023C60005E7B98CD2306EEDB3510F4E10F2AC2F3B
:1023D6007193CD114FADF3702ECC92D38D6F31B278
:1023E600EC0E50AFF1134DCE90722C6D33D18F0C95
:1023F60052B0EE326C8ED0530DEFB1F0AE4C12915E
:10240600CF2D73CA947628ABF517490856B4EA69F6
:1024160037D58B5709EBB536688AD495CB2977F42F
:10242600AA4816E9B7550B88D6346A2B7597C94A58
:1024360014F6A8742AC896154BA9F7B6E80A54D715
:10244600896B352C00726400696E707574616C6CF2
:102456000077720072656C617943746C0063683151
:10246600006F6E006F666600636832006368330053
:10247600636834007753656E736F7200B14100B2C2
:102486004300B34500B44700B54900B64A00B74C0F
:1024960000B84E00B95000BA5200B74D01B84F010E
:1024A600B95101BA5301BB5400BC5600BD5800BE19
:1024B6005A00BF5C00BB5501BC5701BD5901BE5B4C
:1024C60001BF5D01C05E00C16000C26300C365005C
:1024D600C46700C05F01C16101C26401C36601C473
:1024E6006801C56900C66A00C76B00C86C00C96D83
:1024F60000CA6E00CB7100CC7400CD7700CE7A0096
:10250600CA6F01CB7201CC7501CD7801CE7B01CAB1
:102516007002CB7302CC7602CD7902CE7C02CF7DDF
:1025260000D07E00D18000D28100D38200D4840006
:10253600D58600D68800D78900D88A00D98B00DADC
:102546008C00DB8D00DC8F00DD9300A74100A843E3
:1025560000A94500AA4700AB4900AC8300AD850041
:10256600AE8700AF8300B0FC000000008345839374
:1025760083658393835A834C83678372838900318F
:102586002E8356838583453F838583453F83453F19
:10259600284129494400322E8345839383658393DA
:1025A60083568385284229494400332E835083432A
:1025B6008357838783458343839328432900342E97
:1025C60083458356838D836783728389284429498B
:1025D6004400352E83888352836783728389284417
:1025E60029494400362E834C8383837283933F8329
:1025F6004C3F284429494400372E834C83838372F9
:10260600839383713F2844294944003F0075432F33
:102616004F532D49492049646C65000000010002B2
:102626000001000300010002000100040001000295
:102636000001000300010002000100050001000284
:102646000001000300010002000100040001000275
:102656000001000300010002000100060001000263
:102666000001000300010002000100040001000255
:102676000001000300010002000100050001000244
:102686000001000300010002000100040001000235
:102696000001000300010002000100070001000222
:1026A6000001000300010002000100040001000215
:1026B6000001000300010002000100050001000204
:1026C60000010003000100020001000400010002F5
:1026D60000010003000100020001000600010002E3
:1026E60000010003000100020001000400010002D5
:1026F60000010003000100020001000500010002C4
:1027060000010003000100020001000400010002B4
:0C271600000100030001000200010000AF
:00000001FF
