:10000000F1C10000F7C00000F7C00000F7C0000019
:10001000F7C00000F7C00000F7C00000F7C0000004
:10002000F7C00000F7C00000F7C00000F7C00000F4
:10003000F7C00000F7C00000F7C00000F7C00000E4
:10004000F7C00000F7C00000F7C00000F7C00000D4
:10005000F7C00000F7C00000F7C00000F7C00000C4
:10006000F7C00000F7C00000F7C00000F7C00000B4
:10007000F7C00000F7C00000F7C00000F7C00000A4
:10008000F7C00000F7C00000F7C00000F7C0000094
:10009000F7C00000F7C00000F7C00000F7C0000084
:1000A000F7C00000F7C00000F7C00000F7C0000074
:1000B000F7C00000F7C00000F7C00000F7C0000064
:1000C000F7C00000F7C00000F7C00000F7C0000054
:1000D000F7C00000F7C00000F7C00000F7C0000044
:1000E000F7C00000F7C00000F7C00000F7C0000034
:1000F000F7C00000F7C00000F7C00000F7C0000024
:10010000F7C00000F7C00000F7C00000F7C0000013
:10011000F7C00000F7C00000F7C00000F7C0000003
:10012000F7C00000F7C00000F7C00000F7C00000F3
:10013000F7C00000F7C00000F7C00000F7C00000E3
:10014000F7C00000F7C00000F7C00000F7C00000D3
:10015000F7C00000F7C00000F7C00000F7C00000C3
:10016000F7C00000F7C00000F7C00000F7C00000B3
:10017000F7C00000F7C00000F7C00000F7C00000A3
:10018000F7C00000F7C00000F7C00000F7C0000093
:10019000F7C00000F7C00000F7C00000F7C0000083
:1001A000F7C00000F7C00000F7C00000F7C0000073
:1001B000F7C00000F7C00000F7C00000F7C0000063
:1001C000F7C00000F7C00000F7C00000F7C0000053
:1001D000F7C00000F7C00000F7C00000F7C0000043
:1001E000F7C00000F7C00000F7C00000F7C0000033
:1001F000F7C00000F7C00000F5C00000F3C0000029
:10020000F1C00000EFC00000EDC00000EBC0000036
:10021000E9C00000E7C00000E5C00000E3C0000046
:10022000E1C00000DFC00000DDC00000DBC0000056
:10023000D9C00000D7C00000D5C00000D3C0000066
:10024000F6C00000CFC00000CDC00000CBC0000051
:10025000C9C00000C7C00000C5C00000C3C0000086
:10026000C1C00000BFC00000BDC00000BBC0000096
:10027000B9C00000B7C00000B5C0000031C6000022
:10028000B1C00000AFC00000ADC00000ABC00000B6
:10029000A9C00000A7C00000A5C00000A3C00000C6
:1002A000A1C000009FC000009DC000009BC00000D6
:1002B00099C0000097C0000095C0000093C00000E6
:1002C00091C000008FC000008DC000008BC00000F6
:1002D00089C0000087C0000085C0000083C0000006
:1002E00081C000007FC000007DC000007BC0000016
:1002F00079C0000077C0000075C0000073C0000026
:1003000071C000006FC000006DC000006BC0000035
:1003100069C0000067C0000065C0000063C0000045
:1003200061C000005FC000005DC000005BC0000055
:1003300059C0000057C0000055C0000053C0000065
:1003400051C000004FC000004DC000004BC0000075
:1003500049C0000047C0000045C0000043C0000085
:1003600041C000003FC000003DC000003BC0000095
:1003700039C0000037C0000035C0000033C00000A5
:1003800031C000002FC000002DC000002BC00000B5
:1003900029C0000027C0000025C0000023C00000C5
:1003A00021C000001FC000001DC000001BC00000D5
:1003B00019C0000017C0000015C0000013C00000E5
:1003C00011C000000FC000000DC000000BC00000F5
:1003D00009C0000007C0000005C0000003C0000005
:1003E00001C0000011241FBECFEFCDBFDFE3DEBF91
:1003F00000E00CBF18BE19BE1ABE1BBE13E2A0E07F
:10040000B0E2E0E1FDE100E00BBF02C007900D9219
:10041000A23AB107D9F71BBE25E3A2EAB3E201C0B5
:100420001D92AA39B207E1F7E3D50C94860E0F921C
:100430000FB60F921F9211242F923F924F925F920C
:100440006F927F928F929F92AF92BF92CF92DF92E4
:10045000EF92FF920F931F932F933F934F935F93CE
:100460006F937F938F939F93AF93BF93CF93DF93BC
:10047000EF93FF930CB70F9308B70F9309B70F9340
:100480000AB70F930BB70F930091012F03950093B9
:10049000012F013041F4ADB7BEB7C091022FD0910A
:1004A000032FA993B99387D611D60F910BBF0F9144
:1004B0000ABF0F9109BF0F9108BF0F910CBFFF91A9
:1004C000EF91DF91CF91BF91AF919F918F917F91EC
:1004D0006F915F914F913F912F911F910F91FF90DD
:1004E000EF90DF90CF90BF90AF909F908F907F90D4
:1004F0006F905F904F903F902F901F900F900FBE86
:100500000F9018958FB7F89408958FBF08950E94A3
:10051000EA0B0091C02E03950093C02EA091F42EFB
:10052000B091F52ECD91CDBFDD91DEBF0F910BBF08
:100530000F910ABF0F9109BF0F9108BF0F910CBF18
:10054000FF91EF91DF91CF91BF91AF919F918F91EB
:100550007F916F915F914F913F912F911F910F91DB
:10056000FF90EF90DF90CF90BF90AF909F908F90D3
:100570007F906F905F904F903F902F901F900F90C3
:100580000FBE0F9018950F920FB60F921F92112465
:100590002F923F924F925F926F927F928F929F9293
:1005A000AF92BF92CF92DF92EF92FF920F931F9381
:1005B0002F933F934F935F936F937F938F939F936B
:1005C000AF93BF93CF93DF93EF93FF930CB70F934A
:1005D00008B70F9309B70F930AB70F930BB70F9391
:1005E000ADB7BEB7C091022FD091032FA993B99395
:1005F0000E94EA0B0091C52E0093E92EA091F42EE3
:10060000B091F52EA093022FB093032FCD91CDBFC3
:10061000DD91DEBF0F910BBF0F910ABF0F9109BF94
:100620000F9108BF0F910CBFFF91EF91DF91CF9118
:10063000BF91AF919F918F917F916F915F914F91FA
:100640003F912F911F910F91FF90EF90DF90CF90EE
:10065000BF90AF909F908F907F906F905F904F90E2
:100660003F902F901F900F900FBE0F9008950E9403
:10067000EA0B0091C52E0093E92EA091F42EB091C3
:10068000F52EA093022FB093032FCD91CDBFDD9116
:10069000DEBF0F910BBF0F910ABF0F9109BF0F91E2
:1006A00008BF0F910CBFFF91EF91DF91CF91BF91E8
:1006B000AF919F918F917F916F915F914F913F91FA
:1006C0002F911F910F91FF90EF90DF90CF90BF90EF
:1006D000AF909F908F907F906F905F904F903F90E2
:1006E0002F901F900F900FBE0F90189508950895AA
:1006F00084E0E0E8F6E087830895089588E0E0E884
:10070000F6E0878308950F931F93DC0180E000E0FB
:1007100010E0980104171507260737075CF4ED91E0
:10072000E827F0E0ED5FFF4D80810F5F1F4F2F4FF7
:100730003F4FF0CF1F910F910895CF93DF93EC01BE
:1007400044E552E060E074E00E94420E44E552E06D
:1007500060E070E0CE01D7DF682F84E596E0DF919E
:10076000CF910C945A0E8F929F92AF92BF92CF92DC
:10077000DF92EF92FF920F931F93CF93DF93FC01D1
:1007800084E592E0DF019C011D9221503040E1F7A9
:1007900088E796E5A4E3B2E180839183A283B383E3
:1007A00084839583A683B78380879187A287B38745
:1007B00084879587A687B787808B918BA28BB38B15
:1007C000848B958BA68BB78B808F918FA28FB38FE5
:1007D000EF01C45EDE4F88839983AA83BB8324968E
:1007E00088839983AA83BB8341E050E060E070E096
:1007F000448F558F668F778F40A351A362A373A355
:1008000044A355A366A377A340A751A762A773A7E4
:1008100014A615A616A617A610AA11AA12AA13AAFC
:10082000DF01AC5DBE4F1D921D921D921C9213976D
:1008300014961D921D921D921C92139702E010E0D7
:1008400020E030E004AB15AB26AB37AB00AF11AF07
:1008500022AF33AF44AF55AF66AF77AFA85EB109F3
:100860004D935D936D937C93139714960D931D9305
:100870002D933C93139714960D931D932D933C93B6
:10088000139714964D935D936D937C9313971496E1
:100890000D931D932D933C931397149684E1882E0A
:1008A000912CA12CB12C8D929D92AD92BC9213975C
:1008B000149693E0C92ED12CE12CF12CCD92DD922F
:1008C000ED92FC9213971496CD92DD92ED92FC92EC
:1008D000139714964D935D936D937C931397149691
:1008E0000D931D932D933C93139714960D931D9385
:1008F0002D933C93139714964D935D936D937C9336
:10090000139714960D931D932D933C931397149660
:100910008D929D92AD92BC9213971496CD92DD92DA
:10092000ED92FC9213971496CD92DD92ED92FC928B
:10093000139714961D921D921D921C921397149654
:100940000D931D932D933C93139714968D929D9226
:10095000AD92BC92139714961D921D921D921C92FB
:10096000139714960D931D932D933C931397149600
:100970000D931D932D933C9313971496CD92DD9276
:10098000ED92FC9213971496CD92DD92ED92FC922B
:10099000139714961D921D921D921C9213971496F4
:1009A0000D931D932D933C93139714968D929D92C6
:1009B000AD92BC92139714961D921D921D921C929B
:1009C000139714960D931D932D933C9313971496A0
:1009D0000D931D932D933C9313971496CD92DD9216
:1009E000ED92FC9213971496CD92DD92ED92FC92CB
:1009F000139714964D935D936D937C931397149670
:100A00000D931D932D933C931397C855D1098AE0FC
:100A100090E0A0E0B0E088839983AA83BB8324960A
:100A2000488359836A837B832496488359836A83E6
:100A30007B832496488359836A837B832496088327
:100A400019832A833B83249688839983AA83BB8353
:100A5000DF01A052BF4F4D935D936D937C9313972D
:100A600014964D935D936D937C93139714960D9309
:100A70001D932D933C93139714960D931D932D93D3
:100A80003C93139714964D935D936D937C931397BA
:100A900014961D921D921D921C92139714961D92EE
:100AA0001D921D921C921397A09682ED94E0A0E0F7
:100AB000B0E088839983AA83BB83249687ED91E174
:100AC000A0E0B0E088839983AA83BB83DF01AC5F99
:100AD000BE4F1D921D921D921C92139714964D931A
:100AE0005D936D937C93139714961D921D921D92A6
:100AF0001C92139714961D921D921D921C9213978F
:100B000014961D921D921D921C92139758964D9308
:100B10005D936D937C93139714964D935D936D93B2
:100B20007C93139714964D935D936D937C931397D9
:100B300014964D935D936D937C931397E853FD4FFB
:100B400086E798E9A0E0B0E080839183A283B38335
:100B5000DF91CF911F910F91FF90EF90DF90CF9099
:100B6000BF90AF909F908F900895CF9344E552E04F
:100B700060E074E080E69CE20E94270E84E596E047
:100B80000E94320EC82F44E552E060E070E080E63B
:100B90009CE2B9DDC817C1F080E69CE2E4DD44E5E3
:100BA00052E060E074E080E69CE20E94420E44E580
:100BB00052E060E070E080E69CE2A5DD682F84E50D
:100BC00096E0CF910C945A0ECF910895FC0184E2E7
:100BD00090E08083918320E8228388E190E08683FF
:100BE0009783208713821482158280E090E0DF01D2
:100BF000A80FB91F19961D921C921A9702968C3154
:100C00009105A9F70895CF9347E650E060E070E0C2
:100C100087ED9BE20E94270E87E690E00E94320E4D
:100C2000C82F47E650E060E070E087ED9BE26BDDA7
:100C3000C817C1F087ED9BE2C9DF47E650E060E0EE
:100C400070E087ED9BE20E94420E47E650E060E0D4
:100C500070E087ED9BE257DD682F87E690E0CF914B
:100C60000C945A0ECF910895CF93DF93CDB7DEB792
:100C70006B97CDBFDEBF1F8A188E1B8E1A8E198E02
:100C80001D8A1E8A41E08091C20B87FF25C080919A
:100C9000C30B8A8F8D899E899C012F5F3F4F2D8BBF
:100CA0003E8B2A8DE1E0F0E0EC0FFD1FE80FF91F0D
:100CB00020838D899E89459714F01D8A1E8AED89AF
:100CC000FE8981E090E08C0F9D1FE80FF91F808165
:100CD0008D3011F41D8A1E8A4B8FD5CF4FC7CF930D
:100CE000DF931F921F92CDB7DEB789836A8320E01E
:100CF00042E050E0BE016F5F7F4F8CE752D78FE834
:100D000091E00197F1F700C000000F900F90DF9184
:100D1000CF910895682F80E0E2CF682F80E4DFCF85
:100D20001F93CF93DF93E4E0F1E220E030E0908185
:100D3000981310C0E901CC0FDD1FC20FD31FCD5F88
:100D4000DE4D1881812FE9DF8A81882351F083529B
:100D5000E4DF07C02F5F3F4F33962035310539F769
:100D600010E2812FDF91CF911F910895FF920F9391
:100D70001F93CF93DF931F92CDB7DEB78C011982FB
:100D8000FF24F394F8018081882399F0833829F4B3
:100D90009981911102C0F98209C09981913029F499
:100DA0001982F8018081BCDF01C0B7DF0F5F1F4FE0
:100DB000E9CF0F90DF91CF911F910F91FF90089590
:100DC000606820E4829FC0011124862BA3CF81E0BC
:100DD000A1CF682F80E083CF9091A223982B90938E
:100DE000A223892F886090E0F4CF84E0F5CF809132
:100DF00002208061809302202FEF83EC99E0215044
:100E000080409040E1F700C00000809102208160A6
:100E100081DF8091022081607DDF84E17BDF809132
:100E2000012078DF8091002075DF8BE673DF2FEFE4
:100E300087E893E1215080409040E1F700C0000036
:100E40008CE068DF8091022065DFCFCF88ED84BF22
:100E500082E0809350008091510081FFFCCF88EDAB
:100E600084BF81E0809340000895FC018081807FF1
:100E700080838CE081870895CF93CFB7F89480E486
:100E800098E0F3DFE0E4F8E08081807F8160808398
:100E90008181887C81838381807183838681807F47
:100EA000836086838781807F8783A0E9B8E08C9107
:100EB0008D7F8C938485848710A211A281E09DE7A9
:100EC00086A397A310A611A612A613A6CFBFCF91F3
:100ED000089588ED84BF81E0E8E7F0E0818308951C
:100EE00008958F929F92AF92BF92CF92DF92EF922E
:100EF000FF920F931F931F9283E08F93812C912C6D
:100F00008EE5A82EBB24B394C12CD12C9DEBE92EE9
:100F100097E2F92E06E010E026E04AE159E260E0AF
:100F200070E084E396E0FED40F900F901F910F9134
:100F3000FF90EF90DF90CF90BF90AF909F908F90F9
:100F400008959ADF83E08093060887E08093A200EB
:100F50000CDE59DE80E090E06DD48093BD2E90933E
:100F6000BE2EBFDF1092B42E1092B52E1092B62E68
:100F70001092B72E1092B82E8091742D9091752DED
:100F8000A091762DB091772D0297A105B105F0F4CF
:100F90008091742D9091752DA091762DB091772D23
:100FA0000196A11DB11D8093742D9093752DA09372
:100FB000762DB093772D80E69CE2BFDB20E030E019
:100FC00045E060E080E06ED584DF0BC01092742DA8
:100FD0001092752D1092762D1092772D80E69CE25E
:100FE000ACDB22E330E040E060E080E05BD5F9CFAD
:100FF0008F929F92AF92BF92CF92DF92EF92FF9229
:101000000F931F9323DFB1D5B1D568DEF0DEDFDEAD
:1010100060E080E0D5DE83EF91E2A8DE51D11F923F
:1010200083E08F93812C912C2EE5A22EBB24B394C8
:10103000C12CD12C39E7E32E3AE2F32E02E010E086
:1010400022E046ED5BE260E070E081EA97E06AD47E
:1010500098D00F900F9080E090E01F910F91FF903B
:10106000EF90DF90CF90BF90AF909F908F900895BA
:10107000E091F62EF0E0EE55FD4D9081E92FF0E085
:10108000E950F14DE081F0E0EE55FD4D808128E022
:10109000929F800D11248093C52E089533DA4091DC
:1010A000C12E5091C22E6091C32E7091C42E4F5FFD
:1010B0005F4F6F4F7F4F4093C12E5093C22E60936E
:1010C000C32E7093C42E21DA08D3E8CFCF93DF93D9
:1010D0001F92CDB7DEB78091C02E813009F04DC090
:1010E00011DA9091012F992319F091509093012FCB
:1010F0009091012F91113DC09091BF2E911139C057
:101100008983B6DF9091C52EE92FF0E0EE0FFF1F27
:10111000E65EFA4C0190F081E02DE093F42EF0931E
:10112000F52E2091E92E8981921719F140A551A53C
:1011300062A573A54F5F5F4F6F4F7F4F40A751A7C9
:1011400062A773A74091ED2E5091EE2E6091EF2E85
:101150007091F02E4F5F5F4F6F4F7F4F4093ED2E9A
:101160005093EE2E6093EF2E7093F02E89837FDAEA
:1011700089810F90DF91CF91C8C90F90DF91CF91F6
:1011800008958091C02E811115C072DFE091C52EA7
:10119000E093E92EF0E0EE0FFF1FE65EFA4C80814F
:1011A00091818093F42E9093F52E8093022F90934B
:1011B000032FADC908951F93CF93DF930FD3A2D907
:1011C0004091042F5091052F6091062F7091072FA9
:1011D0004F5F5F4F6F4F7F4F4093042F5093052F0A
:1011E0006093062F7093072F90D99091C02E913065
:1011F00009F04AC08091EC2E813009F445C038F0E6
:10120000823019F49093EC2E02C01092EC2EC09113
:10121000EA2ED091EB2E11E08AA18F33A9F172D979
:101220004C8D5D8D6E8D7F8D41155105610571056C
:1012300031F141505109610971094C8F5D8F6E8FF9
:101240007F8F452B462B472BD1F498A1292F27734D
:1012500021F0987C98A319A301C019A298A193FD2D
:101260000EC09091F62E2EA1922B9093F62EECA10B
:10127000F0E0E950F14D90812DA1922B90830E84E6
:10128000DF85C02D42D9C8CFDF91CF911F9108953E
:10129000FC01158220E030E0FC01E20FF31F168212
:1012A0002F5F3F4F28303105B9F70895680F791F38
:1012B0008617970721F0FC011192CF01F9CF08950D
:1012C0008F929F92AF92BF92CF92DF92EF92FF9256
:1012D0000F931F93CF93DF931F92CDB7DEB7FAD151
:1012E0001092042F1092052F1092062F1092072FA4
:1012F0001092012F1092BF2E1092F32E1092C02E3A
:101300001092ED2E1092EE2E1092EF2E1092F02EE3
:101310001092C12E1092C22E1092C32E1092C42E83
:101320001092F62EE7EFFEE211924EE2EF3FF40745
:10133000D9F71092E92E1092C52E1092F42E109229
:10134000F52E1092022F1092032F60E475E088EDC5
:101350009FE2ACDF60E870E08AE195E3A7DFE8EDAB
:10136000FFE222E932E2CF01805C9F4F86879787B8
:1013700022AF33AF44E3883D940711F0FC01F3CF73
:101380001092E6341092E73482E992E280931235AB
:10139000909313351092EA2E1092EB2E88ED9FE277
:1013A0008093F12E9093F22E60E570E088E89FE242
:1013B0007DDFE8E8FFE222E932E2CF0140961082C9
:1013C00081839283268737874FE2883C940711F008
:1013D000FC01F3CF1092C82F1092C92F1092CA2F80
:1013E00082E992E28093D62F9093D72F88E89FE2EC
:1013F0008093FF2E9093002FF4D11F9283E08F9360
:10140000812C912C40E8A42EB12CC12CD12C58E079
:10141000E52E5FE2F52E0FEF1FEF2FE347E85FE2C7
:1014200060E070E08EE498E07DD2AE014F5F5F4FE8
:1014300064E972E28FE32ED24ED1D2D10F900F9099
:101440000F90DF91CF911F910F91FF90EF90DF9060
:10145000CF90BF90AF909F908F900895CF93DF93E0
:101460001F92CDB7DEB74ED89091012F91113DC09C
:101470009091BF2E911139C08983FADD9091C52ECC
:10148000E92FF0E0EE0FFF1FE65EFA4C0190F081CD
:10149000E02DE093F42EF093F52E2091E92E898132
:1014A000921719F140A551A562A573A54F5F5F4F33
:1014B0006F4F7F4F40A751A762A773A74091ED2EB2
:1014C0005091EE2E6091EF2E7091F02E4F5F5F4F96
:1014D0006F4F7F4F4093ED2E5093EE2E6093EF2E83
:1014E0007093F02E89834FD889810F90DF91CF912F
:1014F0000CC82F923F924F925F926F927F929F9271
:10150000AF92BF92CF92DF92EF92FF920F931F9311
:10151000CF93DF9300D000D0CDB7DEB7982E69838C
:101520007A831A012B833C83270138010E948202AF
:10153000E090F12EF090F22EED82FE82E114F104A3
:1015400009F4B0C0D7011E962D913C911F972093AE
:10155000F12E3093F22E0E948502E980FA80ED810F
:10156000FE81E082F18292A210A211A2148E158E49
:10157000168E178EC282D38246825782608671860B
:1015800024823582A286B3862B813C8124873587CD
:1015900017A2492D46954695469544A3292D2770B7
:1015A00023A381E090E0A0E0B0E07C018D0104C0C5
:1015B000EE0CFF1C001F111F4A95D2F7E6A204C0D3
:1015C000880F991FAA1FBB1F2A95D2F785A3128ADD
:1015D000138A148A158A108E118E168A178A10A6FD
:1015E00011A612A613A610AA11AA12AA13AA14A62B
:1015F00015A616A617A614AA15AA16AA17AA10AEFB
:1016000011AE82E992E282AF93AF14AE15AE16AE80
:1016100017AECF01E1D00E948202E92DF0E0EE0F7B
:10162000FF1FE65EFA4CED80FE80E082F1820E94B0
:1016300085028D819E8150D00E948202E091EA2E27
:10164000F091EB2ED7011E96ED93FC931F975096C9
:101650001D921C925197309711F0E08AF18AED802B
:10166000FE80E092EA2EF092EB2E9091F62ED701BA
:1016700096962C919697922B9093F62E9496EC91A9
:101680009497F0E0E950F14D908195962C91922B32
:1016900090839091F32E9F5F9093F32E0E9485028A
:1016A00080E003C00E94850282E42696CDBFDEBFA3
:1016B000DF91CF911F910F91FF90EF90DF90CF902E
:1016C000BF90AF909F907F906F905F904F903F90B2
:1016D0002F9008950895089509C809C80F931F937E
:1016E0008C01222717FD2095322FFA0100833197B4
:1016F00010833197208331971082319780E880835F
:1017000031971082319782E08083319783E0808324
:10171000319784E08083319785E08083319786E03C
:101720008083319787E08083319788E08083319789
:1017300089E08083319780E18083319781E18083E4
:10174000319782E18083319783E18083319784E10F
:101750008083319785E18083319786E1808331975B
:1017600087E18083319788E18083319789E18083A5
:10177000319780E28083319781E28083319782E2E2
:101780008083319783E280833197608331978B0127
:101790001083319786E28083319787E28083319787
:1017A00088E28083319789E28083319780E3808368
:1017B000319781E38083319710823197108231977E
:1017C00010823197108231971082CA0189971F9138
:1017D0000F9108950C9478030C947D030C947E0370
:1017E000089563E270E086EC9EE260DDE6ECFEE2E6
:1017F00022E932E2CF01079610828183928325830A
:1018000036834EE2823E940711F0FC01F3CF109232
:10181000E22E1092E32E1092E42E82E992E280935F
:10182000E72E9093E82E86EC9EE2809318359093F5
:10183000193508950F931F93CF93DF938C018091F7
:10184000012F811120C00E948202C091FF2ED091F1
:10185000002F209731F029813A812093FF2E309379
:10186000002F0E948502209771F083E088830B830C
:101870001C8319821A8282E992E28E879F87CE01A9
:1018800007DDCE0102C080E090E0DF91CF911F9193
:101890000F910895FF920F931F93CF93DF93F82E2C
:1018A0008B01EA018091012F882311F082E11BC096
:1018B0000E9482029FEFF91205C0E091022FF09181
:1018C000032FF2A0EF2DF0E0EE0FFF1FE65EFA4CC3
:1018D0000190F081E02D309719F0E130F10529F405
:1018E0000E94850283E4888305C002AF13AF0E9483
:1018F00085021882DF91CF911F910F91FF9008957B
:10190000237033272330310561F4FC014115510563
:101910006105710531F04150510961097109119258
:10192000F5CF08952F923F924F925F926F927F92E0
:101930008F929F92AF92BF92CF92DF92EF92FF92DF
:101940000F931F93CF93DF93CDB7DEB72997CDBF0A
:10195000DEBF8A839B836C837D834E835F83298371
:10196000088719873701150126016401AF8CB8A0DB
:101970000E9482029091012F992321F00E948502FA
:101980008CE33FC02981822E912C880C991CF40194
:10199000E65EFA4C4F0120813181232B69F521E06D
:1019A00030E0208331830E9485029501B201A101BC
:1019B000C701A6DF95014E815F816C817D818A819F
:1019C0009B818CDE8201710128853985A301BC01D0
:1019D00089818FDDD82E811106C08091C02E813083
:1019E00079F43CDD0DC00E948202F4011082118264
:1019F0000E9485028D2D05C00E94850288E201C0EB
:101A000080E02996CDBFDEBFDF91CF911F910F916E
:101A1000FF90EF90DF90CF90BF90AF909F908F900E
:101A20007F906F905F904F903F902F900895CF924E
:101A3000DF92EF92FF926B017C018091012F811167
:101A40002CC08091BF2E811128C0C114D104E104A3
:101A5000F10419F10E948202E091022FF091032F0C
:101A6000A4A1B0E0A950B14D95A190952C919223DD
:101A70009C93911107C026A120959091F62E922358
:101A80009093F62EC48ED58EE68EF78E0E94850238
:101A9000FF90EF90DF90CF90E1CCFF90EF90DF9040
:101AA000CF900895CF92DF92EF92FF92582FF901D5
:101AB0008091012F81112FC08091BF2E81112DC0E7
:101AC000262F30E0ACE3B0E0A9D06B017C01C40E5E
:101AD000D11CE11CF11C252F30E0A0E1BEE09ED01E
:101AE000C60ED71EE81EF91EA8EEB3E0A7019601A8
:101AF000A4D06B017C019F0191D028EE33E040E03F
:101B000050E06AD0C20ED31EE41EF51EC701B60116
:101B10008EDF80E003C085E501C082E3FF90EF9097
:101B2000DF90CF9008958CEF8093000680E880933B
:101B300020068093400692E090936006A0E8B6E00D
:101B400092E29C93E0EAF6E092E490831092E00641
:101B500010920007809320078FE08093C00788E1F0
:101B600052968C93858B868B0895DDCFE0ECFBE05D
:101B70008081806480831092C10B0895E0E4F6E0D8
:101B800088E3808B818B80E980938504E1E8F4E031
:101B9000808188608083E4E8F4E0808181608083D4
:101BA0000895809386048091840486FFFCCFFB0116
:101BB000460F571FE417F50741F081918093870482
:101BC0008091840486FFFCCFF5CF211103C083E010
:101BD0008093830480E00895A1E21A2EAA1BBB1B08
:101BE000FD010DC0AA1FBB1FEE1FFF1FA217B307E9
:101BF000E407F50720F0A21BB30BE40BF50B661FFF
:101C0000771F881F991F1A9469F7609570958095C2
:101C100090959B01AC01BD01CF010895A29FB00139
:101C2000B39FC001A39F700D811D1124911DB29F10
:101C3000700D811D1124911D0895F0DFA59F900D59
:101C4000B49F900DA49F800D911D11240895E0EC88
:101C5000F1E0A785A7FDFDCFA485A860A48760500B
:101C6000704F4BC003D0808199270895E0ECF1E0DC
:101C7000378537FDFDCF348538603487FC01E0506F
:101C8000F04F0895DC01A40FB51F4150504040F0C3
:101C9000CB01840F951F2E9105D041505040D8F7AD
:101CA0000895262FE3DF0080021611F004D001977B
:101CB00001970895262FE0ECF1E0378537FDFDCF41
:101CC0003485377F3487378531FF09C036E3328763
:101CD00038ED34BF31E03387378537FDFDCF33E34F
:101CE0003287808391831282248325E3228728ED23
:101CF00031E024BF338701960895FB01DC0102C067
:101D000001900D9241505040D8F70895F894FFCFBC
:101D10005F7228005EBCE2613FDD83C29C7E20A32F
:101D2000FD1F419DC3217FFCA2401E5F01E3BD3E1C
:101D30006082DC237D9FC1421CFEA0E1BF5D038069
:101D4000DE3C62BEE0025CDF81633D7C22C09E1D02
:101D500043A1FF4618FAA427799BC584DA3866E5C3
:101D6000BB5907DB856739BAE406581947A5FB78E4
:101D700026C49A653BD987045AB8E6A7F91B45C61D
:101D8000987A24F8A6441A99C7257B3A6486D85BCA
:101D900005E7B98CD2306EEDB3510F4E10F2AC2F77
:101DA0007193CD114FADF3702ECC92D38D6F31B2B4
:101DB000EC0E50AFF1134DCE90722C6D33D18F0CD1
:101DC00052B0EE326C8ED0530DEFB1F0AE4C12919A
:101DD000CF2D73CA947628ABF517490856B4EA6933
:101DE00037D58B5709EBB536688AD495CB2977F46C
:101DF000AA4816E9B7550B88D6346A2B7597C94A95
:101E000014F6A8742AC896154BA9F7B6E80A54D751
:101E1000896B35B14100B24300B34500B44700B50A
:101E20004900B64A00B74C00B84E00B95000BA524B
:101E300000B74D01B84F01B95101BA5301BB54006D
:101E4000BC5600BD5800BE5A00BF5C00BB5501BC6B
:101E50005701BD5901BE5B01BF5D01C05E00C1609D
:101E600000C26300C36500C46700C05F01C16101B7
:101E7000C26401C36601C46801C56900C66A00C7BF
:101E80006B00C86C00C96D00CA6E00CB7100CC74C9
:101E900000CD7700CE7A00CA6F01CB7201CC7501FC
:101EA000CD7801CE7B01CA7002CB7302CC7602CD15
:101EB0007902CE7C02CF7D00D07E00D18000D2811D
:101EC00000D38200D48400D58600D68800D789004C
:101ED000D88A00D98B00DA8C00DB8D00DC8F00DD26
:101EE0009300A74100A84300A94500AA4700AB49B9
:101EF00000AC8300AD8500AE8700AF8300B0FC006E
:101F00000000008345839383658393835A834C83C6
:101F1000678372838900312E8356838583453F838F
:101F20008583453F83453F284129494400322E831C
:101F30004583938365839383568385284229494447
:101F400000332E83508343835783878345834383A2
:101F50009328432900342E83458356838D836783DA
:101F6000728389284429494400352E83888352830B
:101F70006783728389284429494400362E834C8321
:101F800083837283933F834C3F284429494400371D
:101F90002E834C83838372839383713F2844294922
:101FA00044003F0075432F4F532D49492049646C2D
:101FB00065000000010002000100030001000200B2
:101FC0000100040001000200010003000100020002
:101FD00001000500010002000100030001000200F1
:101FE00001000400010002000100030001000200E2
:101FF00001000600010002000100030001000200D0
:1020000001000400010002000100030001000200C1
:1020100001000500010002000100030001000200B0
:1020200001000400010002000100030001000200A1
:10203000010007000100020001000300010002008E
:102040000100040001000200010003000100020081
:102050000100050001000200010003000100020070
:102060000100040001000200010003000100020061
:10207000010006000100020001000300010002004F
:102080000100040001000200010003000100020041
:102090000100050001000200010003000100020030
:1020A0000100040001000200010003000100020021
:0220B00001002D
:00000001FF
