:10000000F1C10000F7C00000F7C00000F7C0000019
:10001000F7C00000F7C00000F7C00000F7C0000004
:10002000F7C00000F7C00000F7C00000F7C00000F4
:10003000F7C00000F7C00000F7C00000F7C00000E4
:10004000F7C00000F7C00000F7C00000F7C00000D4
:10005000F7C00000F7C00000F7C00000F7C00000C4
:10006000F7C00000F7C00000F7C00000F7C00000B4
:10007000F7C00000F7C00000F7C00000F7C00000A4
:10008000F7C00000F7C00000F7C00000F7C0000094
:10009000F7C00000F7C00000F7C00000F7C0000084
:1000A000F7C00000F7C00000F7C00000F7C0000074
:1000B000F7C00000F7C00000F7C00000F7C0000064
:1000C000F7C00000F7C00000F7C00000F7C0000054
:1000D000F7C00000F7C00000F7C00000F7C0000044
:1000E000F7C00000F7C00000F7C00000F7C0000034
:1000F000F7C00000F7C00000F7C00000F7C0000024
:10010000F7C00000F7C00000F7C00000F7C0000013
:10011000F7C00000F7C00000F7C00000F7C0000003
:10012000F7C00000F7C00000F7C00000F7C00000F3
:10013000F7C00000F7C00000F7C00000F7C00000E3
:10014000F7C00000F7C00000F7C00000F7C00000D3
:10015000F7C00000F7C00000F7C00000F7C00000C3
:10016000F7C00000F7C00000F7C00000F7C00000B3
:10017000F7C00000F7C00000F7C00000F7C00000A3
:10018000F7C00000F7C00000F7C00000F7C0000093
:10019000F7C00000F7C00000F7C00000F7C0000083
:1001A000F7C00000F7C00000F7C00000F7C0000073
:1001B000F7C00000F7C00000F7C00000F7C0000063
:1001C000F7C00000F7C00000F7C00000F7C0000053
:1001D000F7C00000F7C00000F7C00000F7C0000043
:1001E000F7C00000F7C00000F7C00000F7C0000033
:1001F000F7C00000F7C00000F5C00000F3C0000029
:10020000F1C00000EFC00000EDC00000EBC0000036
:10021000E9C00000E7C00000E5C00000E3C0000046
:10022000E1C00000DFC00000DDC00000DBC0000056
:10023000D9C00000D7C00000D5C00000D3C0000066
:10024000F7C00000CFC00000CDC00000CBC0000050
:10025000C9C00000C7C00000C5C00000C3C0000086
:10026000C1C00000BFC00000BDC00000BBC0000096
:10027000B9C00000B7C00000B5C000000C94DA0996
:10028000B1C00000AFC00000ADC00000ABC00000B6
:10029000A9C00000A7C00000A5C00000A3C00000C6
:1002A000A1C000009FC000009DC000009BC00000D6
:1002B00099C0000097C0000095C0000093C00000E6
:1002C00091C000008FC000008DC000008BC00000F6
:1002D00089C0000087C0000085C0000083C0000006
:1002E00081C000007FC000007DC000007BC0000016
:1002F00079C0000077C0000075C0000073C0000026
:1003000071C000006FC000006DC000006BC0000035
:1003100069C0000067C0000065C0000063C0000045
:1003200061C000005FC000005DC000005BC0000055
:1003300059C0000057C0000055C0000053C0000065
:1003400051C000004FC000004DC000004BC0000075
:1003500049C0000047C0000045C0000043C0000085
:1003600041C000003FC000003DC000003BC0000095
:1003700039C0000037C0000035C0000033C00000A5
:1003800031C000002FC000002DC000002BC00000B5
:1003900029C0000027C0000025C0000023C00000C5
:1003A00021C000001FC000001DC000001BC00000D5
:1003B00019C0000017C0000015C0000013C00000E5
:1003C00011C000000FC000000DC000000BC00000F5
:1003D00009C0000007C0000005C0000003C0000005
:1003E00001C0000011241FBECFEFCDBFDFE3DEBF91
:1003F00000E00CBF18BE19BE1ABE1BBE13E2A0E07F
:10040000B0E2E0E4F4E200E00BBF02C007900D921E
:10041000AC3DB107D9F71BBE25E3ACEDB3E201C09B
:100420001D92A63DB207E1F70E94620A0C941E12CB
:100430000F920FB60F921F9211242F923F924F925C
:100440005F926F927F928F929F92AF92BF92CF9264
:10045000DF92EF92FF920F931F932F933F934F934F
:100460005F936F937F938F939F93AF93BF93CF933C
:10047000DF93EF93FF930CB70F9308B70F9309B770
:100480000F930AB70F930BB70F9300913D2F03956E
:1004900000933D2F013041F4ADB7BEB7C0913E2F60
:1004A000D0913F2FA993B9930E944B0B0E94D30A7E
:1004B0000F910BBF0F910ABF0F9109BF0F9108BF9A
:1004C0000F910CBFFF91EF91DF91CF91BF91AF9151
:1004D0009F918F917F916F915F914F913F912F915C
:1004E0001F910F91FF90EF90DF90CF90BF90AF9052
:1004F0009F908F907F906F905F904F903F902F9044
:100500001F900F900FBE0F9018958FB7F894089515
:100510008FBF08950E94630E0091FC2E03950093F7
:10052000FC2EA091302FB091312FCD91CDBFDD9118
:10053000DEBF0F910BBF0F910ABF0F9109BF0F9143
:1005400008BF0F910CBFFF91EF91DF91CF91BF9149
:10055000AF919F918F917F916F915F914F913F915B
:100560002F911F910F91FF90EF90DF90CF90BF9050
:10057000AF909F908F907F906F905F904F903F9043
:100580002F901F900F900FBE0F9018950F920FB6DF
:100590000F921F9211242F923F924F925F926F926F
:1005A0007F928F929F92AF92BF92CF92DF92EF9203
:1005B000FF920F931F932F933F934F935F936F93EC
:1005C0007F938F939F93AF93BF93CF93DF93EF93DB
:1005D000FF930CB70F9308B70F9309B70F930AB7A0
:1005E0000F930BB70F93ADB7BEB7C0913E2FD0910D
:1005F0003F2FA993B9930E94630E0091012F00939E
:10060000252FA091302FB091312FA0933E2FB09382
:100610003F2FCD91CDBFDD91DEBF0F910BBF0F916D
:100620000ABF0F9109BF0F9108BF0F910CBFFF9137
:10063000EF91DF91CF91BF91AF919F918F917F917A
:100640006F915F914F913F912F911F910F91FF906B
:10065000EF90DF90CF90BF90AF909F908F907F9062
:100660006F905F904F903F902F901F900F900FBE14
:100670000F9008950E94630E0091012F0093252F83
:10068000A091302FB091312FA0933E2FB0933F2FE8
:10069000CD91CDBFDD91DEBF0F910BBF0F910ABF92
:1006A0000F9109BF0F9108BF0F910CBFFF91EF9100
:1006B000DF91CF91BF91AF919F918F917F916F917A
:1006C0005F914F913F912F911F910F91FF90EF906C
:1006D000DF90CF90BF90AF909F908F907F906F9062
:1006E0005F904F903F902F901F900F900FBE0F90F4
:1006F00018950895089584E0E0E8F6E0878308956A
:10070000089588E0E0E8F6E0878308950F931F934B
:10071000DC0180E000E010E09801041715072607CF
:1007200037075CF4ED91E827F0E0ED5FFF4D808145
:100730000F5F1F4F2F4F3F4FF0CF1F910F91089525
:10074000CF93DF93EC0144E552E060E074E00E9457
:10075000DA1144E552E060E070E0CE01D7DF682FA7
:1007600084E596E0DF91CF910C94F2118F929F92E5
:10077000AF92BF92CF92DF92EF92FF920F931F93AF
:10078000CF93DF93FC0184E592E0DF019C011D9291
:1007900021503040E1F788E796E5A4E3B2E1808399
:1007A0009183A283B38384839583A683B783808751
:1007B0009187A287B38784879587A687B787808B21
:1007C000918BA28BB38B848B958BA68BB78B808FF1
:1007D000918FA28FB38FEF01C45EDE4F8883998320
:1007E000AA83BB83249688839983AA83BB8341E031
:1007F00050E060E070E0448F558F668F778F40A3A4
:1008000051A362A373A344A355A366A377A340A7F0
:1008100051A762A773A714A615A616A617A610AA15
:1008200011AA12AA13AADF01AC5DBE4F1D921D9240
:100830001D921C92139714961D921D921D921C924C
:10084000139702E010E020E030E004AB15AB26ABDC
:1008500037AB00AF11AF22AF33AF44AF55AF66AF88
:1008600077AFA85EB1094D935D936D937C93139719
:1008700014960D931D932D933C93139714960D93FB
:100880001D932D933C93139714964D935D936D9305
:100890007C93139714960D931D932D933C9313976C
:1008A000149684E1882E912CA12CB12C8D929D92CE
:1008B000AD92BC921397149693E0C92ED12CE12CE3
:1008C000F12CCD92DD92ED92FC9213971496CD927D
:1008D000DD92ED92FC92139714964D935D936D9378
:1008E0007C93139714960D931D932D933C9313971C
:1008F00014960D931D932D933C93139714964D933B
:100900005D936D937C93139714960D931D932D9384
:100910003C93139714968D929D92AD92BC9213972F
:100920001496CD92DD92ED92FC9213971496CD928F
:10093000DD92ED92FC92139714961D921D921D92DA
:100940001C92139714960D931D932D933C9313971C
:1009500014968D929D92AD92BC92139714961D920F
:100960001D921D921C92139714960D931D932D9317
:100970003C93139714960D931D932D933C931397CB
:100980001496CD92DD92ED92FC9213971496CD922F
:10099000DD92ED92FC92139714961D921D921D927A
:1009A0001C92139714960D931D932D933C931397BC
:1009B00014968D929D92AD92BC92139714961D92AF
:1009C0001D921D921C92139714960D931D932D93B7
:1009D0003C93139714960D931D932D933C9313976B
:1009E0001496CD92DD92ED92FC9213971496CD92CF
:1009F000DD92ED92FC92139714964D935D936D9357
:100A00007C93139714960D931D932D933C931397FA
:100A1000C855D1098AE090E0A0E0B0E088839983CE
:100A2000AA83BB832496488359836A837B83249655
:100A3000488359836A837B832496488359836A83D6
:100A40007B832496088319832A833B832496888397
:100A50009983AA83BB83DF01A052BF4F4D935D935F
:100A60006D937C93139714964D935D936D937C9344
:100A7000139714960D931D932D933C9313971496EF
:100A80000D931D932D933C93139714964D935D9363
:100A90006D937C93139714961D921D921D921C9238
:100AA000139714961D921D921D921C921397A09657
:100AB00082ED94E0A0E0B0E088839983AA83BB83B1
:100AC000249687ED91E1A0E0B0E088839983AA8322
:100AD000BB83DF01AC5FBE4F1D921D921D921C9225
:100AE000139714964D935D936D937C93139714967F
:100AF0001D921D921D921C92139714961D921D9289
:100B00001D921C92139714961D921D921D921C9279
:100B1000139758964D935D936D937C93139714960A
:100B20004D935D936D937C93139714964D935D93C2
:100B30006D937C93139714964D935D936D937C9373
:100B40001397E853FD4F86E798E9A0E0B0E0808373
:100B50009183A283B383DF91CF911F910F91FF9077
:100B6000EF90DF90CF90BF90AF909F908F900895BF
:100B7000CF9344E552E060E074E08CE99CE20E948F
:100B8000BF1184E596E00E94CA11C82F44E552E0E7
:100B900060E070E08CE99CE2B9DDC817C1F08CE937
:100BA0009CE2E4DD44E552E060E074E08CE99CE224
:100BB0000E94DA1144E552E060E070E08CE99CE2CA
:100BC000A5DD682F84E596E0CF910C94F211CF91CA
:100BD0000895FC0184E290E08083918320E82283E1
:100BE00088E190E0868397832087138214821582A0
:100BF00080E090E0DF01A80FB91F19961D921C92AA
:100C00001A9702968C319105A9F70895CF9347E67C
:100C100050E060E070E083E19CE20E94BF1187E653
:100C200090E00E94CA11C82F47E650E060E070E0F3
:100C300083E19CE26BDDC817C1F083E19CE2C9DF70
:100C400047E650E060E070E083E19CE20E94DA1148
:100C500047E650E060E070E083E19CE257DD682FFA
:100C600087E690E0CF910C94F211CF9108958F70A8
:100C70008A3010F4805D0895895A0895CF93DF93E8
:100C8000CDB7DEB7C355D109CDBFDEBF2F961EAE9F
:100C90001FAE2F9763961FAE639762961FAE629743
:100CA00061961FAE619760961FAE60972D961EAE3F
:100CB0001FAE2D972B961EAE1FAE2B9729961EAEFC
:100CC0001FAE29978091C20B87FFFCCF8091C30B89
:100CD00062968FAF62972B968EAD9FAD2B979C013E
:100CE0002F5F3F4F2B962EAF3FAF2B9762962FADC6
:100CF0006297E1E0F0E0EC0FFD1FE80FF91F2083A1
:100D00002D968EAD9FAD2D97892B09F016C2299691
:100D10008EAD9FAD2997892B21F029961EAE1FAE6F
:100D200029972B968EAD9FAD2B97C3979CF42B964E
:100D30008EAD9FAD2B97019721F489818D3451F4AD
:100D40000DC02B968EAD9FAD2B97029739F48A81FB
:100D5000853421F02B961EAE1FAE2B972B968EADB1
:100D60009FAD2B9703970CF41CC22B96EEADFFADF5
:100D70002B97319781E090E08C0F9D1FE80FF91FB2
:100D8000208164962FAF64972D3009F00AC263E08A
:100D900071E2CE0101960E947B1163E071E280E076
:100DA00090E00E947B115C0163E071E280E090E0E2
:100DB0000E947B116C0163E071E280E090E00E9490
:100DC0007B117C0163E071E280E090E00E947B1186
:100DD0008C0163E071E280E090E00E947B114C01A5
:100DE00063E071E280E090E00E947B113C0163E0EF
:100DF00071E280E090E00E947B112C0163E071E2DF
:100E000080E090E00E947B111C012B961EAE1FAE6D
:100E10002B9765E071E2C5010E947E11892B09F4D0
:100E2000ABC068E071E2C6010E947E11892B09F413
:100E3000B8C14DE44BAB85E48CAB1CE21DAB89E63D
:100E40008EAB8EE68FAB80E788AF85E789AF84E70E
:100E50008AAF81E68BAF8CE68CAF8DAF1EAF0E9460
:100E60006A10082F0E94611020E4829FC0011124A3
:100E700040E8049F90011124082F022B0E94581073
:100E800020E2829FC0011124082B0E94501040E1F3
:100E9000849FC0011124082B0E94471028E0829FE4
:100EA000C0011124082B0E943E1044E0849FC00121
:100EB0001124082B0E943610F82EFF0CF02A0E94F5
:100EC0003010F82A8F2D82958F70D1DE8FAF8F2D45
:100ED0008F70CDDE21968FAF219722961FAF22977C
:100EE0000E94AC10082F0E94A31020E4829FC00132
:100EF000112440E8049F90011124082F022B0E9426
:100F00009A1020E2829FC0011124082B0E949210A7
:100F100040E1849FC0011124082B0E94891028E021
:100F2000829FC0011124082B0E94801044E0849FFE
:100F3000C0011124082B0E947810F82EFF0CF02A13
:100F40000E947210F82A8F2D82958F7090DE239662
:100F50008FAF23978F2D8F708ADE24968FAF2497C3
:100F600025961FAF259764962FAD649726962FAFD1
:100F7000269783E190E0A9C061E171E2C5010E947A
:100F80007E11892B09F40DC164E171E2C6010E9452
:100F90007E11892B09F49EC06DE171E2C7010E94A8
:100FA0007E11892BB1F061E271E2C8010E947E11CD
:100FB000892B21F081E090E00E94B41064E271E29C
:100FC000C8010E947E11892B21F080E090E00E94F0
:100FD000B41068E271E2C7010E947E11892BB1F062
:100FE00061E271E2C8010E947E11892B21F081E04B
:100FF00090E00E94BD1064E271E2C8010E947E117F
:10100000892B21F080E090E00E94BD106CE271E23B
:10101000C7010E947E11892BB1F061E271E2C80123
:101020000E947E11892B21F081E090E00E94C71080
:1010300064E271E2C8010E947E11892B21F080E0F8
:1010400090E00E94C71060E371E2C7010E947E1128
:10105000892BB1F061E271E2C8010E947E11892BF7
:1010600021F081E090E00E94D11064E271E2C801B9
:101070000E947E11892B21F080E090E00E94D11027
:101080009DE49BAB25E42CAB8CE28DAB92E79EAB51
:1010900095E69FAB9CE698AF21E629AF29E72AAFFA
:1010A00023E42BAF24E72CAF9DAF8EAF9FE69FAF1D
:1010B0009BE621969FAF219722968FAF22978DE0D6
:1010C00023968FAF239780E190E02D968EAF9FAF50
:1010D0002D9767C064E371E2C6010E947E11892BDF
:1010E00009F45FC0C7010E94F11080E290E00E9405
:1010F000EA10C8010E94F11080E290E00E94EA101C
:10110000C4010E94F11080E290E00E94EA10C30145
:101110000E94F11080E290E00E94EA10C2010E9459
:10112000F11080E290E00E94EA10C1010E94F110EB
:101130008DE090E00E94EA1034C029962EAD3FADBC
:1011400029972D968EAD9FAD2D9728173907ECF472
:101150008091C30B2996EEADFFAD299783E390E014
:101160008C0F9D1FE80FF91F80818093C30B809126
:10117000C20B87FFFCCF29968EAD9FAD29970196B4
:1011800029968EAF9FAF29970CC029961EAE1FAE31
:1011900029972D961EAE1FAE2D972B961EAE1FAE15
:1011A0002B9781E063968FAF63978CCD0C941211CF
:1011B000CF93DF931F921F92CDB7DEB789836A83E7
:1011C00020E042E050E0BE016F5F7F4F8CE70E945D
:1011D00025118FE891E00197F1F700C000000F9012
:1011E0000F90DF91CF910895682F80E0E1CF682FB5
:1011F00080E4DECF1F93CF93DF93EDE3F1E220E0B5
:1012000030E09081981310C0E901CC0FDD1FC20FB0
:10121000D31FC45CDE4D1881812FE9DF8A818823CA
:1012200051F08352E4DF07C02F5F3F4F33962035E4
:10123000310539F710E2812FDF91CF911F91089589
:10124000FF920F931F93CF93DF931F92CDB7DEB71B
:101250008C011982FF24F394F8018081882399F08E
:10126000833829F49981911102C0F98209C09981CA
:10127000913029F41982F8018081BCDF01C0B7DF09
:101280000F5F1F4FE9CF0F90DF91CF911F910F910B
:10129000FF900895606820E4829FC0011124862B8E
:1012A000A3CF81E0A1CF682F80E082CF9091DE2391
:1012B000982B9093DE23892F886090E0F4CF84E010
:1012C000F5CF809102208061809302202FEF83EC84
:1012D00099E0215080409040E1F700C000008091EB
:1012E0000220816081DF8091022081607DDF84E1C6
:1012F0007BDF8091012078DF8091002075DF8BE615
:1013000073DF2FEF87E893E1215080409040E1F7B1
:1013100000C000008CE068DF8091022065DFCFCF45
:1013200088ED84BF82E0809350008091510081FF5E
:10133000FCCF88ED84BF81E0809340000895FC01DC
:101340008081807F80838CE081870895CF93CFB7A1
:10135000F89480E498E0F3DFE0E4F8E08081807FB7
:10136000816080838181887C818383818071838394
:101370008681807F836086838781807F8783A0E9E1
:10138000B8E08C918D7F8C938485848710A211A204
:1013900081E09DE786A397A310A611A612A613A627
:1013A000CFBFCF91089588ED84BF81E0E8E7F0E0FA
:1013B0008183089508958F929F92AF92BF92CF92AA
:1013C000DF92EF92FF920F931F931F9283E08F9310
:1013D000812C912C8EE5A82EBB24B394C12CD12C4A
:1013E00099EFE92E97E2F92E06E010E026E046E5B7
:1013F00059E260E070E08EE396E00DD50F900F901B
:101400001F910F91FF90EF90DF90CF90BF90AF9022
:101410009F908F9008959ADF83E08093060887E07D
:101420008093A200A5DBF2DB80E090E07CD4809387
:10143000F92E9093FA2EBFDF1092F02E1092F12E1B
:101440001092F22E1092F32E1092F42E8091B02D65
:101450009091B12DA091B22DB091B32D0297A1051D
:10146000B105F0F48091B02D9091B12DA091B22DE5
:10147000B091B32D0196A11DB11D8093B02D909315
:10148000B12DA093B22DB093B32D8CE99CE258D925
:1014900020E030E045E060E080E07DD584DF0BC0F7
:1014A0001092B02D1092B12D1092B22D1092B32D3A
:1014B0008CE99CE245D922E330E040E060E080E046
:1014C0006AD5F9CF8F929F92AF92BF92CF92DF925F
:1014D000EF92FF920F931F9323DFC1D59BD666DE59
:1014E000F0DEDFDE60E080E0D5DE8CE292E2A8DEB6
:1014F00062D65AD11F9283E08F93812C912C2EE5D6
:10150000A22EBB24B394C12CD12C35EBE32E3AE2AE
:10151000F32E02E010E022E042E15CE260E070E0E5
:101520008BE09AE078D49CD00F900F9080E090E010
:101530001F910F91FF90EF90DF90CF90BF90AF90F1
:101540009F908F900895E091322FF0E0E552FD4D8D
:101550009081E92FF0E0ED5CF04DE081F0E0E552A4
:10156000FD4D808128E0929F800D11248093012FF2
:1015700008950E9485024091FD2E5091FE2E6091AB
:10158000FF2E7091002F4F5F5F4F6F4F7F4F409343
:10159000FD2E5093FE2E6093FF2E7093002F0E941D
:1015A000880213D3E6CFCF93DF931F92CDB7DEB778
:1015B0008091FC2E813009F04FC00E9485029091ED
:1015C0003D2F992319F0915090933D2F90913D2FED
:1015D00091113DC09091FB2E911139C08983B3DFE9
:1015E0009091012FE92FF0E0EE0FFF1FEA5AFA4C1D
:1015F0000190F081E02DE093302FF093312F209176
:10160000252F8981921719F140A551A562A573A5CF
:101610004F5F5F4F6F4F7F4F40A751A762A773A7E0
:101620004091292F50912A2F60912B2F70912C2FB0
:101630004F5F5F4F6F4F7F4F4093292F50932A2F5B
:1016400060932B2F70932C2F898314D889810F904E
:10165000DF91CF910C9488020F90DF91CF91089584
:101660008091FC2E811116C06EDFE091012FE09376
:10167000252FF0E0EE0FFF1FEA5AFA4C808191818E
:101680008093302F9093312F80933E2F90933F2F54
:101690000C948A0208951F93CF93DF9318D30E946E
:1016A00085024091402F5091412F6091422F7091BF
:1016B000432F4F5F5F4F6F4F7F4F4093402F5093AB
:1016C000412F6093422F7093432F0E948802909184
:1016D000FC2E913009F04CC08091282F813009F404
:1016E00047C038F0823019F49093282F02C010922E
:1016F000282FC091262FD091272F11E08AA18F3358
:10170000B9F10E9485024C8D5D8D6E8D7F8D4115E6
:1017100051056105710531F14150510961097109A6
:101720004C8F5D8F6E8F7F8F452B462B472BD1F4CF
:1017300098A1292F277321F0987C98A319A301C0A1
:1017400019A298A193FD0EC09091322F2EA1922B39
:101750009093322FECA1F0E0ED5CF04D90812DA143
:10176000922B90830E84DF85C02D0E948802C6CF05
:10177000DF91CF911F910895FC01158220E030E0A8
:10178000FC01E20FF31F16822F5F3F4F2830310517
:10179000B9F70895680F791F8617970721F0FC01A4
:1017A0001192CF01F9CF08958F929F92AF92BF927D
:1017B000CF92DF92EF92FF920F931F93CF93DF931D
:1017C0001F92CDB7DEB7FDD11092402F1092412F5E
:1017D0001092422F1092432F10923D2F1092FB2E09
:1017E00010922F2F1092FC2E1092292F10922A2F38
:1017F00010922B2F10922C2F1092FD2E1092FE2E55
:101800001092FF2E1092002F1092322FE3E3FFE28E
:1018100011924FE2EB33F407D9F71092252F109273
:10182000012F1092302F1092312F10923E2F1092D4
:101830003F2F60E475E084E190E3ACDF60E870E0A6
:1018400086E595E3A7DFE4E1F0E32BEC32E2CF019C
:10185000805C9F4F8687978722AF33AF45E3843103
:10186000940711F0FC01F3CF10922235109223352A
:101870008BEC92E280934E3590934F351092262F49
:101880001092272F84E190E380932D2F90932E2F99
:1018900060E570E084EC9FE27DDFE4ECFFE22BEC9E
:1018A00032E2CF0140961082818392832687378768
:1018B00040E38430940711F0FC01F3CF1092043020
:1018C00010920530109206308BEC92E28093123029
:1018D0009093133084EC9FE280933B2F90933C2FA6
:1018E000F9D11F9283E08F93812C912C40E8A42E94
:1018F000B12CC12CD12C54E4E52E5FE2F52E0FEF74
:101900001FEF2FE343EC5FE260E070E089EB9AE0C9
:1019100082D2AE014F5F5F4F6DEC72E28FE333D244
:1019200051D1D7D10F900F900F90DF91CF911F9190
:101930000F91FF90EF90DF90CF90BF90AF909F906E
:101940008F900895CF93DF931F92CDB7DEB70E949B
:10195000850290913D2F91113EC09091FB2E9111E7
:101960003AC08983F0DD9091012FE92FF0E0EE0F6E
:10197000FF1FEA5AFA4C0190F081E02DE093302FDE
:10198000F093312F2091252F8981921721F140A5C5
:1019900051A562A573A54F5F5F4F6F4F7F4F40A763
:1019A00051A762A773A74091292F50912A2F6091C8
:1019B0002B2F70912C2F4F5F5F4F6F4F7F4F4093B6
:1019C000292F50932A2F60932B2F70932C2F8983CC
:1019D0000E94C60289810F90DF91CF910C948802FA
:1019E0002F923F924F925F926F927F929F92AF920F
:1019F000BF92CF92DF92EF92FF920F931F93CF93FC
:101A0000DF9300D000D0CDB7DEB7982E69837A83FC
:101A10001A012B833C83270138010E948502E09044
:101A20002D2FF0902E2FED82FE82E114F10409F4A7
:101A3000B0C0D7011E962D913C911F9720932D2F5A
:101A400030932E2F0E948802E980FA80ED81FE817A
:101A5000E082F18292A210A211A2148E158E168E2F
:101A6000178EC282D3824682578260867186248214
:101A70003582A286B3862B813C812487358717A2C5
:101A8000492D46954695469544A3292D277023A3B5
:101A900081E090E0A0E0B0E07C018D0104C0EE0C9C
:101AA000FF1C001F111F4A95D2F7E6A204C0880F41
:101AB000991FAA1FBB1F2A95D2F785A3128A138AE2
:101AC000148A158A108E118E168A178A10A611A6EE
:101AD00012A613A610AA11AA12AA13AA14A615A632
:101AE00016A617A614AA15AA16AA17AA10AE11AE02
:101AF0008BEC92E282AF93AF14AE15AE16AE17AE7A
:101B0000CF01E3D00E948502E92DF0E0EE0FFF1F28
:101B1000EA5AFA4CED80FE80E082F1820E9488024F
:101B20008D819E8150D00E948502E091262FF091F8
:101B3000272FD7011E96ED93FC931F9750961D9269
:101B40001C925197309711F0E08AF18AED80FE8067
:101B5000E092262FF092272F9091322FD701969660
:101B60002C919697922B9093322F9496EC91949778
:101B7000F0E0ED5CF04D908195962C91922B908346
:101B800090912F2F9F5F90932F2F0E94880280E0CB
:101B900003C00E94880282E42696CDBFDEBFDF919B
:101BA000CF911F910F91FF90EF90DF90CF90BF905A
:101BB000AF909F907F906F905F904F903F902F904D
:101BC0000895089508950C9479030C947A030F9363
:101BD0001F938C01222717FD2095322FFA010083D5
:101BE000319710833197208331971082319780E8A5
:101BF000808331971082319782E08083319783E030
:101C00008083319784E08083319785E080833197AA
:101C100086E08083319787E08083319788E08083F6
:101C2000319789E08083319780E18083319781E12A
:101C30008083319782E18083319783E1808331977C
:101C400084E18083319785E18083319786E18083C9
:101C5000319787E18083319788E18083319789E1EB
:101C60008083319780E28083319781E2808331974E
:101C700082E28083319783E280833197608331975A
:101C80008B011083319786E28083319787E28083CE
:101C9000319788E28083319789E28083319780E3AE
:101CA0008083319781E3808331971082319710824E
:101CB000319710823197108231971082CA0189972B
:101CC0001F910F9108950C947B030C9480030C9446
:101CD0008103089563E270E082E09FE25BDDE2E071
:101CE000FFE22BEC32E2CF010796108281839283D0
:101CF000258336834FE28E31940711F0FC01F3CF38
:101D000010921E2F10921F2F1092202F8BEC92E218
:101D10008093232F9093242F82E09FE28093543569
:101D20009093553508950F931F93CF93DF938C01B4
:101D300080913D2F811120C00E948502C0913B2FD0
:101D4000D0913C2F209731F029813A8120933B2F6D
:101D500030933C2F0E948802209771F083E08883A3
:101D60000B831C8319821A828BEC92E28E879F87E9
:101D7000CE0102DDCE0102C080E090E0DF91CF9184
:101D80001F910F910895FF920F931F93CF93DF93AD
:101D9000F82E8B01EA0180913D2F882311F082E11A
:101DA0001BC00E9485029FEFF91205C0E0913E2FF3
:101DB000F0913F2FF2A0EF2DF0E0EE0FFF1FEA5A57
:101DC000FA4C0190F081E02D309719F0E130F105E7
:101DD00029F40E94880283E4888305C002AF13AF10
:101DE0000E9488021882DF91CF911F910F91FF907E
:101DF0000895237033272330310561F4FC01411528
:101E000051056105710531F04150510961097109B0
:101E10001192F5CF08952F923F924F925F926F9259
:101E20007F928F929F92AF92BF92CF92DF92EF926A
:101E3000FF920F931F93CF93DF93CDB7DEB7299710
:101E4000CDBFDEBF8A839B836C837D834E835F839C
:101E50002983088719873701150126016401AF8C92
:101E6000B8A00E94850290913D2F992321F00E94F5
:101E700088028CE33FC02981822E912C880C991C0A
:101E8000F401EA5AFA4C4F0120813181232B69F584
:101E900021E030E0208331830E9488029501B20165
:101EA000A101C701A6DF95014E815F816C817D8113
:101EB0008A819B818CDE8201710128853985A3018D
:101EC000BC0189818DDDD82E811106C08091FC2E48
:101ED000813079F437DD0DC00E948502F401108253
:101EE00011820E9488028D2D05C00E94880288E21E
:101EF00001C080E02996CDBFDEBFDF91CF911F9159
:101F00000F91FF90EF90DF90CF90BF90AF909F9098
:101F10008F907F906F905F904F903F902F9008959B
:101F2000CF92DF92EF92FF926B017C0180913D2F67
:101F300081112CC08091FB2E811128C0C114D104C5
:101F4000E104F10419F10E948502E0913E2FF09125
:101F50003F2FA4A1B0E0AD5CB04D95A190952C9120
:101F600092239C93911107C026A120959091322F26
:101F700092239093322FC48ED58EE68EF78E0E94D8
:101F80008802FF90EF90DF90CF90DCCCFF90EF9035
:101F9000DF90CF900895CF92DF92EF92FF92582F6B
:101FA000F90180913D2F81112FC08091FB2E81116D
:101FB0002DC0262F30E0ACE3B0E084D16B017C0172
:101FC000C40ED11CE11CF11C252F30E0A0E1BEE0C5
:101FD00079D1C60ED71EE81EF91EA8EEB3E0A70100
:101FE00096017FD16B017C019F016CD128EE33E01B
:101FF00040E050E045D1C20ED31EE41EF51EC701DD
:10200000B6018EDF80E003C085E501C082E3FF906A
:10201000EF90DF90CF9008958CEF8093000680E8DA
:102020008093200698E89093400692E09093600693
:10203000A0E8B6E092E29C93E0EAF6E092E49083B6
:102040001092E00610920007809320078FE08093A3
:10205000C00788E152968C93858B868B0895DCCFE0
:10206000E0EEF6E08085809581700895E0EEF6E080
:1020700080858695817091E089270895E0EEF6E0ED
:10208000808582FB882780F991E089270895E0EE1A
:10209000F6E0808583FB882780F991E08927089501
:1020A000E0EEF6E080858295817091E089270895C1
:1020B000E0EEF6E0808585FB882780F991E08927AE
:1020C0000895E0EEF6E0808586FB882780F991E0B0
:1020D00089270895E0EEF6E080858095881F88279F
:1020E000881F0895E0E0F7E080858095817008956D
:1020F000E0E0F7E080858695817091E0892708957A
:10210000E0E0F7E0808582FB882780F991E089276D
:102110000895E0E0F7E0808583FB882780F991E06F
:1021200089270895E0E0F7E080858295817091E04D
:1021300089270895E0E0F7E0808585FB882780F90E
:1021400091E089270895E0E0F7E0808586FB882705
:1021500080F991E089270895E0E0F7E08085809597
:10216000881F8827881F0895813019F48093C50738
:10217000089581E08093C6070895813021F482E0BC
:102180008093C507089582E08093C6070895813043
:1021900021F484E08093C507089584E08093C60706
:1021A0000895813021F488E08093C507089588E080
:1021B0008093C607089580E48093A7088CE08093FD
:1021C000A608E5EAF8E0108283E0808388E0809347
:1021D000A40808959091A10895FFFCCF8093A008D2
:1021E00008950F931F93CF93DF93EC0100E010E06D
:1021F000888190E0EFDF89918D3039F0882329F0D4
:102200000F5F1F4F0233110599F7DF91CF911F9197
:102210000F910895E0ECFBE0808180648083109250
:10222000C10B0895E0E4F6E088E3808B818B80E9C0
:1022300080938504E1E8F4E0808188608083E4E8AD
:10224000F4E080818160808308958093860480918A
:10225000840486FFFCCFFB01460F571FE417F507E8
:1022600041F08191809387048091840486FFFCCFA4
:10227000F5CF211103C083E08093830480E00895AB
:10228000A1E21A2EAA1BBB1BFD010DC0AA1FBB1F7A
:10229000EE1FFF1FA217B307E407F50720F0A21BEC
:1022A000B30BE40BF50B661F771F881F991F1A9459
:1022B00069F760957095809590959B01AC01BD0183
:1022C000CF010895A29FB001B39FC001A39F700DDD
:1022D000811D1124911DB29F700D811D1124911D2E
:1022E0000895F0DFA59F900DB49F900DA49F800DE1
:1022F000911D112408954CED53E21AC0FB01519138
:102300005523A9F0BF01DC014D9145174111E1F7BB
:1023100059F4CD010190002049F04D914015411133
:10232000C9F3FB014111EFCF81E090E001970895DF
:10233000FA01A191B081009719F41097E1F0CD0155
:10234000DC01CD010D90002011F4C00113C0FB0190
:102350002191222319F02015D9F7F3CFFB01219108
:10236000201519F41E92119606C02223C1F70D9074
:102370000020A1F7D001FA01A193B0830895E0EC09
:10238000F1E0A785A7FDFDCFA485A860A4876050D4
:10239000704F4BC003D0808199270895E0ECF1E0A5
:1023A000378537FDFDCF348538603487FC01E05038
:1023B000F04F0895DC01A40FB51F4150504040F08C
:1023C000CB01840F951F2E9105D041505040D8F776
:1023D0000895262FE3DF0080021611F004D0019744
:1023E00001970895262FE0ECF1E0378537FDFDCF0A
:1023F0003485377F3487378531FF09C036E332872C
:1024000038ED34BF31E03387378537FDFDCF33E317
:102410003287808391831282248325E3228728EDEB
:1024200031E024BF338701960895FB01DC0102C02F
:1024300001900D9241505040D8F70895F894FFCF85
:102440005F7228005EBCE2613FDD83C29C7E20A3F8
:10245000FD1F419DC3217FFCA2401E5F01E3BD3EE5
:102460006082DC237D9FC1421CFEA0E1BF5D038032
:10247000DE3C62BEE0025CDF81633D7C22C09E1DCB
:1024800043A1FF4618FAA427799BC584DA3866E58C
:10249000BB5907DB856739BAE406581947A5FB78AD
:1024A00026C49A653BD987045AB8E6A7F91B45C6E6
:1024B000987A24F8A6441A99C7257B3A6486D85B93
:1024C00005E7B98CD2306EEDB3510F4E10F2AC2F40
:1024D0007193CD114FADF3702ECC92D38D6F31B27D
:1024E000EC0E50AFF1134DCE90722C6D33D18F0C9A
:1024F00052B0EE326C8ED0530DEFB1F0AE4C129163
:10250000CF2D73CA947628ABF517490856B4EA69FB
:1025100037D58B5709EBB536688AD495CB2977F434
:10252000AA4816E9B7550B88D6346A2B7597C94A5D
:1025300014F6A8742AC896154BA9F7B6E80A54D71A
:10254000896B352C00726400696E707574616C6CF7
:102550000077720072656C617943746C0063683156
:10256000006F6E006F666600636832006368330058
:10257000636834007753656E736F7200B14100B2C7
:102580004300B34500B44700B54900B64A00B74C14
:1025900000B84E00B95000BA5200B74D01B84F0113
:1025A000B95101BA5301BB5400BC5600BD5800BE1E
:1025B0005A00BF5C00BB5501BC5701BD5901BE5B51
:1025C00001BF5D01C05E00C16000C26300C3650061
:1025D000C46700C05F01C16101C26401C36601C478
:1025E0006801C56900C66A00C76B00C86C00C96D88
:1025F00000CA6E00CB7100CC7400CD7700CE7A009B
:10260000CA6F01CB7201CC7501CD7801CE7B01CAB6
:102610007002CB7302CC7602CD7902CE7C02CF7DE4
:1026200000D07E00D18000D28100D38200D484000B
:10263000D58600D68800D78900D88A00D98B00DAE1
:102640008C00DB8D00DC8F00DD9300A74100A843E8
:1026500000A94500AA4700AB4900AC8300AD850046
:10266000AE8700AF8300B0FC000000008345839379
:1026700083658393835A834C836783728389003194
:102680002E8356838583453F838583453F83453F1E
:10269000284129494400322E8345839383658393DF
:1026A00083568385284229494400332E835083432F
:1026B0008357838783458343839328432900342E9C
:1026C00083458356838D8367837283892844294990
:1026D0004400352E8388835283678372838928441C
:1026E00029494400362E834C8383837283933F832E
:1026F0004C3F284429494400372E834C83838372FE
:10270000839383713F2844294944003F0075432F38
:102710004F532D49492049646C65000000010002B7
:10272000000100030001000200010004000100029A
:102730000001000300010002000100050001000289
:10274000000100030001000200010004000100027A
:102750000001000300010002000100060001000268
:10276000000100030001000200010004000100025A
:102770000001000300010002000100050001000249
:10278000000100030001000200010004000100023A
:102790000001000300010002000100070001000227
:1027A000000100030001000200010004000100021A
:1027B0000001000300010002000100050001000209
:1027C00000010003000100020001000400010002FA
:1027D00000010003000100020001000600010002E8
:1027E00000010003000100020001000400010002DA
:1027F00000010003000100020001000500010002C9
:1028000000010003000100020001000400010002B9
:0C281000000100030001000200010000B4
:00000001FF
