:10000000F1C10000F7C00000F7C00000F7C0000019
:10001000F7C00000F7C00000F7C00000F7C0000004
:10002000F7C00000F7C00000F7C00000F7C00000F4
:10003000F7C00000F7C00000F7C00000F7C00000E4
:10004000F7C00000F7C00000F7C00000F7C00000D4
:10005000F7C00000F7C00000F7C00000F7C00000C4
:10006000F7C00000F7C00000F7C00000F7C00000B4
:10007000F7C00000F7C00000F7C00000F7C00000A4
:10008000F7C00000F7C00000F7C00000F7C0000094
:10009000F7C00000F7C00000F7C00000F7C0000084
:1000A000F7C00000F7C00000F7C00000F7C0000074
:1000B000F7C00000F7C00000F7C00000F7C0000064
:1000C000F7C00000F7C00000F7C00000F7C0000054
:1000D000F7C00000F7C00000F7C00000F7C0000044
:1000E000F7C00000F7C00000F7C00000F7C0000034
:1000F000F7C00000F7C00000F7C00000F7C0000024
:10010000F7C00000F7C00000F7C00000F7C0000013
:10011000F7C00000F7C00000F7C00000F7C0000003
:10012000F7C00000F7C00000F7C00000F7C00000F3
:10013000F7C00000F7C00000F7C00000F7C00000E3
:10014000F7C00000F7C00000F7C00000F7C00000D3
:10015000F7C00000F7C00000F7C00000F7C00000C3
:10016000F7C00000F7C00000F7C00000F7C00000B3
:10017000F7C00000F7C00000F7C00000F7C00000A3
:10018000F7C00000F7C00000F7C00000F7C0000093
:10019000F7C00000F7C00000F7C00000F7C0000083
:1001A000F7C00000F7C00000F7C00000F7C0000073
:1001B000F7C00000F7C00000F7C00000F7C0000063
:1001C000F7C00000F7C00000F7C00000F7C0000053
:1001D000F7C00000F7C00000F7C00000F7C0000043
:1001E000F7C00000F7C00000F7C00000F7C0000033
:1001F000F7C00000F7C00000F5C00000F3C0000029
:10020000F1C00000EFC00000EDC00000EBC0000036
:10021000E9C00000E7C00000E5C00000E3C0000046
:10022000E1C00000DFC00000DDC00000DBC0000056
:10023000D9C00000D7C00000D5C00000D3C0000066
:10024000F6C00000CFC00000CDC00000CBC0000051
:10025000C9C00000C7C00000C5C00000C3C0000086
:10026000C1C00000BFC00000BDC00000BBC0000096
:10027000B9C00000B7C00000B5C000003DC7000015
:10028000B1C00000AFC00000ADC00000ABC00000B6
:10029000A9C00000A7C00000A5C00000A3C00000C6
:1002A000A1C000009FC000009DC000009BC00000D6
:1002B00099C0000097C0000095C0000093C00000E6
:1002C00091C000008FC000008DC000008BC00000F6
:1002D00089C0000087C0000085C0000083C0000006
:1002E00081C000007FC000007DC000007BC0000016
:1002F00079C0000077C0000075C0000073C0000026
:1003000071C000006FC000006DC000006BC0000035
:1003100069C0000067C0000065C0000063C0000045
:1003200061C000005FC000005DC000005BC0000055
:1003300059C0000057C0000055C0000053C0000065
:1003400051C000004FC000004DC000004BC0000075
:1003500049C0000047C0000045C0000043C0000085
:1003600041C000003FC000003DC000003BC0000095
:1003700039C0000037C0000035C0000033C00000A5
:1003800031C000002FC000002DC000002BC00000B5
:1003900029C0000027C0000025C0000023C00000C5
:1003A00021C000001FC000001DC000001BC00000D5
:1003B00019C0000017C0000015C0000013C00000E5
:1003C00011C000000FC000000DC000000BC00000F5
:1003D00009C0000007C0000005C0000003C0000005
:1003E00001C0000011241FBECFEFCDBFDFE3DEBF91
:1003F00000E00CBF18BE19BE1ABE1BBE13E2A0E07F
:10040000B0E2E0EAF0E200E00BBF02C007900D921C
:10041000AA3AB107D9F71BBE25E3AAEAB3E201C0A5
:100420001D92A43AB207E1F7EFD60C944E100F924A
:100430000FB60F921F9211242F923F924F925F920C
:100440006F927F928F929F92AF92BF92CF92DF92E4
:10045000EF92FF920F931F932F933F934F935F93CE
:100460006F937F938F939F93AF93BF93CF93DF93BC
:10047000EF93FF930CB70F9308B70F9309B70F9340
:100480000AB70F930BB70F9300910B2F03950093AF
:100490000B2F013041F4ADB7BEB7C0910C2FD091F6
:1004A0000D2FA993B99393D71DD70F910BBF0F9120
:1004B0000ABF0F9109BF0F9108BF0F910CBFFF91A9
:1004C000EF91DF91CF91BF91AF919F918F917F91EC
:1004D0006F915F914F913F912F911F910F91FF90DD
:1004E000EF90DF90CF90BF90AF909F908F907F90D4
:1004F0006F905F904F903F902F901F900F900FBE86
:100500000F9018958FB7F89408958FBF08950E94A3
:10051000FB0C0091CA2E03950093CA2EA091FE2ECB
:10052000B091FF2ECD91CDBFDD91DEBF0F910BBFFE
:100530000F910ABF0F9109BF0F9108BF0F910CBF18
:10054000FF91EF91DF91CF91BF91AF919F918F91EB
:100550007F916F915F914F913F912F911F910F91DB
:10056000FF90EF90DF90CF90BF90AF909F908F90D3
:100570007F906F905F904F903F902F901F900F90C3
:100580000FBE0F9018950F920FB60F921F92112465
:100590002F923F924F925F926F927F928F929F9293
:1005A000AF92BF92CF92DF92EF92FF920F931F9381
:1005B0002F933F934F935F936F937F938F939F936B
:1005C000AF93BF93CF93DF93EF93FF930CB70F934A
:1005D00008B70F9309B70F930AB70F930BB70F9391
:1005E000ADB7BEB7C0910C2FD0910D2FA993B99381
:1005F0000E94FB0C0091CF2E0093F32EA091FE2EB3
:10060000B091FF2EA0930C2FB0930D2FCD91CDBFA5
:10061000DD91DEBF0F910BBF0F910ABF0F9109BF94
:100620000F9108BF0F910CBFFF91EF91DF91CF9118
:10063000BF91AF919F918F917F916F915F914F91FA
:100640003F912F911F910F91FF90EF90DF90CF90EE
:10065000BF90AF909F908F907F906F905F904F90E2
:100660003F902F901F900F900FBE0F9008950E9403
:10067000FB0C0091CF2E0093F32EA091FE2EB09193
:10068000FF2EA0930C2FB0930D2FCD91CDBFDD91F8
:10069000DEBF0F910BBF0F910ABF0F9109BF0F91E2
:1006A00008BF0F910CBFFF91EF91DF91CF91BF91E8
:1006B000AF919F918F917F916F915F914F913F91FA
:1006C0002F911F910F91FF90EF90DF90CF90BF90EF
:1006D000AF909F908F907F906F905F904F903F90E2
:1006E0002F901F900F900FBE0F90189508950895AA
:1006F00084E0E0E8F6E087830895089588E0E0E884
:10070000F6E0878308950F931F93DC0180E000E0FB
:1007100010E0980104171507260737075CF4ED91E0
:10072000E827F0E0ED5FFF4D80810F5F1F4F2F4FF7
:100730003F4FF0CF1F910F910895CF93DF93EC01BE
:1007400044E552E060E074E00E940A1044E552E0A3
:1007500060E070E0CE01D7DF682F84E596E0DF919E
:10076000CF910C9422108F929F92AF92BF92CF9212
:10077000DF92EF92FF920F931F93CF93DF93FC01D1
:1007800084E592E0DF019C011D9221503040E1F7A9
:1007900088E796E5A4E3B2E180839183A283B383E3
:1007A00084839583A683B78380879187A287B38745
:1007B00084879587A687B787808B918BA28BB38B15
:1007C000848B958BA68BB78B808F918FA28FB38FE5
:1007D000EF01C45EDE4F88839983AA83BB8324968E
:1007E00088839983AA83BB8341E050E060E070E096
:1007F000448F558F668F778F40A351A362A373A355
:1008000044A355A366A377A340A751A762A773A7E4
:1008100014A615A616A617A610AA11AA12AA13AAFC
:10082000DF01AC5DBE4F1D921D921D921C9213976D
:1008300014961D921D921D921C92139702E010E0D7
:1008400020E030E004AB15AB26AB37AB00AF11AF07
:1008500022AF33AF44AF55AF66AF77AFA85EB109F3
:100860004D935D936D937C93139714960D931D9305
:100870002D933C93139714960D931D932D933C93B6
:10088000139714964D935D936D937C9313971496E1
:100890000D931D932D933C931397149684E1882E0A
:1008A000912CA12CB12C8D929D92AD92BC9213975C
:1008B000149693E0C92ED12CE12CF12CCD92DD922F
:1008C000ED92FC9213971496CD92DD92ED92FC92EC
:1008D000139714964D935D936D937C931397149691
:1008E0000D931D932D933C93139714960D931D9385
:1008F0002D933C93139714964D935D936D937C9336
:10090000139714960D931D932D933C931397149660
:100910008D929D92AD92BC9213971496CD92DD92DA
:10092000ED92FC9213971496CD92DD92ED92FC928B
:10093000139714961D921D921D921C921397149654
:100940000D931D932D933C93139714968D929D9226
:10095000AD92BC92139714961D921D921D921C92FB
:10096000139714960D931D932D933C931397149600
:100970000D931D932D933C9313971496CD92DD9276
:10098000ED92FC9213971496CD92DD92ED92FC922B
:10099000139714961D921D921D921C9213971496F4
:1009A0000D931D932D933C93139714968D929D92C6
:1009B000AD92BC92139714961D921D921D921C929B
:1009C000139714960D931D932D933C9313971496A0
:1009D0000D931D932D933C9313971496CD92DD9216
:1009E000ED92FC9213971496CD92DD92ED92FC92CB
:1009F000139714964D935D936D937C931397149670
:100A00000D931D932D933C931397C855D1098AE0FC
:100A100090E0A0E0B0E088839983AA83BB8324960A
:100A2000488359836A837B832496488359836A83E6
:100A30007B832496488359836A837B832496088327
:100A400019832A833B83249688839983AA83BB8353
:100A5000DF01A052BF4F4D935D936D937C9313972D
:100A600014964D935D936D937C93139714960D9309
:100A70001D932D933C93139714960D931D932D93D3
:100A80003C93139714964D935D936D937C931397BA
:100A900014961D921D921D921C92139714961D92EE
:100AA0001D921D921C921397A09682ED94E0A0E0F7
:100AB000B0E088839983AA83BB83249687ED91E174
:100AC000A0E0B0E088839983AA83BB83DF01AC5F99
:100AD000BE4F1D921D921D921C92139714964D931A
:100AE0005D936D937C93139714961D921D921D92A6
:100AF0001C92139714961D921D921D921C9213978F
:100B000014961D921D921D921C92139758964D9308
:100B10005D936D937C93139714964D935D936D93B2
:100B20007C93139714964D935D936D937C931397D9
:100B300014964D935D936D937C931397E853FD4FFB
:100B400086E798E9A0E0B0E080839183A283B38335
:100B5000DF91CF911F910F91FF90EF90DF90CF9099
:100B6000BF90AF909F908F900895CF9344E552E04F
:100B700060E074E08AE69CE20E94EF0F84E596E074
:100B80000E94FA0FC82F44E552E060E070E08AE668
:100B90009CE2B9DDC817C1F08AE69CE2E4DD44E5D9
:100BA00052E060E074E08AE69CE20E940A1044E5AC
:100BB00052E060E070E08AE69CE2A5DD682F84E503
:100BC00096E0CF910C942210CF910895FC0184E21D
:100BD00090E08083918320E8228388E190E08683FF
:100BE0009783208713821482158280E090E0DF01D2
:100BF000A80FB91F19961D921C921A9702968C3154
:100C00009105A9F70895CF9347E650E060E070E0C2
:100C100081EE9BE20E94EF0F87E690E00E94FA0FC0
:100C2000C82F47E650E060E070E081EE9BE26BDDAC
:100C3000C817C1F081EE9BE2C9DF47E650E060E0F3
:100C400070E081EE9BE20E940A1047E650E060E00F
:100C500070E081EE9BE257DD682F87E690E0CF9150
:100C60000C942210CF910895CF93DF93CDB7DEB7C8
:100C7000E497CDBFDEBF1FA618AA1CAA1BAA1AAAFA
:100C800019AA1DA61EA61BA61CA619A61AA68DE4A7
:100C9000982E95E4892E2CE2B22E30E3732E41E398
:100CA000642E09E010E0AA24A3948091C20B87FF70
:100CB0001FC18091C30B8BAB8BA59CA59C012F5FA3
:100CC0003F4F2BA73CA72BA9E5E1F0E0EC0FFD1F60
:100CD000E80FF91F20838DA59EA5892B09F0E4C09C
:100CE00089A59AA5892B11F019A61AA68BA59CA5F2
:100CF00045977CF48BA59CA5019721F48D898D34B3
:100D000041F409C08BA59CA5029729F48E898534EE
:100D100011F01BA61CA68BA59CA503970CF4E8C09C
:100D2000EBA5FCA5319785E190E08C0F9D1FE80FA6
:100D3000F91F50809DE05912DBC063E071E2CE01E3
:100D400045960E94BC0F63E071E280E090E00E9453
:100D5000BC0F6C0163E071E280E090E00E94BC0F88
:100D60007C0163E071E280E090E00E94BC0F1BA672
:100D70001CA665E071E2C6010E94BF0F892B09F035
:100D8000B7C089A98F5F89AB68E071E2C7010E9493
:100D9000BF0F892B09F084C099828A82BB827C8232
:100DA0006D82BE821F82FF800E94010F20E8829F19
:100DB000C00111248F298F83FF800E94F80E20E448
:100DC000829FC00111248F298F83FF800E94EF0E24
:100DD00020E2829FC00111248F298F83FF80F7D7E3
:100DE00020E1829FC00111248F298F83FF80E6D7E5
:100DF00028E0829FC00111248F298F83FF80D5D7DF
:100E000024E0829FC00111248F298F83FF80C5D7E2
:100E1000880F8F298F83FF80BAD78F298F831886F9
:100E2000F8840E94430F20E8829FC00111248F297B
:100E30008887F8840E943A0F20E4829FC001112421
:100E40008F298887F8840E94310F20E2829FC00199
:100E500011248F298887F884FCD720E1829FC00164
:100E600011248F298887F884EBD728E0829FC0015E
:100E700011248F298887F884DAD724E0829FC00163
:100E800011248F298887F884CAD7880F8F298887EB
:100E9000F884BFD78F29888759860DA71EA728C039
:100EA00089A98F5F89AB24C029A53AA58DA59EA5E8
:100EB00028173907BCF48091C30BE9A5FAA581E096
:100EC00090E08C0F9D1FE80FF91F80818093C30B6A
:100ED0008091C20B87FFFCCF89A59AA5019689A7AF
:100EE0009AA706C019A61AA61DA61EA61BA61CA672
:100EF000ACAADBCED8C7CF93DF931F921F92CDB79A
:100F0000DEB789836A8320E042E050E0BE016F5F74
:100F10007F4F8CE7DBD78FE891E00197F1F700C0B6
:100F200000000F900F90DF91CF910895682F80E01F
:100F3000E2CF682F80E4DFCF1F93CF93DF93ECE005
:100F4000F1E220E030E09081981310C0E901CC0F6D
:100F5000DD1FC20FD31FC55FDE4D1881812FE9DF72
:100F60008A81882351F08352E4DF07C02F5F3F4F0F
:100F700033962035310539F710E2812FDF91CF917B
:100F80001F910895FF920F931F93CF93DF931F92AA
:100F9000CDB7DEB78C011982FF24F394F80180816C
:100FA000882399F0833829F49981911102C0F9823C
:100FB00009C09981913029F41982F8018081BCDF40
:100FC00001C0B7DF0F5F1F4FE9CF0F90DF91CF91C7
:100FD0001F910F91FF900895606820E4829FC001E7
:100FE0001124862BA3CF81E0A1CF682F80E083CF8F
:100FF0009091AC23982B9093AC23892F886090E03C
:10100000F4CF84E0F5CF80910220806180930220AC
:101010002FEF83EC99E0215080409040E1F700C031
:10102000000080910220816081DF80910220816038
:101030007DDF84E17BDF8091012078DF80910020DB
:1010400075DF8BE673DF2FEF87E893E12150804057
:101050009040E1F700C000008CE068DF8091022042
:1010600065DFCFCF88ED84BF82E080935000809110
:10107000510081FFFCCF88ED84BF81E08093400068
:101080000895FC018081807F80838CE081870895B2
:10109000CF93CFB7F89480E498E0F3DFE0E4F8E092
:1010A0008081807F816080838181887C818383814E
:1010B000807183838681807F836086838781807F40
:1010C0008783A0E9B8E08C918D7F8C938485848799
:1010D00010A211A281E09DE786A397A310A611A6F6
:1010E00012A613A6CFBFCF91089588ED84BF81E0EB
:1010F000E8E7F0E08183089508958F929F92AF9280
:10110000BF92CF92DF92EF92FF920F931F931F92A5
:1011100083E08F93812C912C8EE5A82EBB24B39471
:10112000C12CD12C97ECE92E97E2F92E06E010E0C5
:1011300026E044E259E260E070E084E396E003D503
:101140000F900F901F910F91FF90EF90DF90CF9035
:10115000BF90AF909F908F9008959ADF83E0809327
:10116000060887E08093A20000DD4DDD80E090E07E
:1011700072D48093C72E9093C82EBFDF1092BE2EDC
:101180001092BF2E1092C02E1092C12E1092C22E1D
:1011900080917E2D90917F2DA091802DB091812DF9
:1011A0000297A105B105F0F480917E2D90917F2DDD
:1011B000A091802DB091812D0196A11DB11D80932C
:1011C0007E2D90937F2DA093802DB093812D8AE664
:1011D0009CE2B3DA20E030E045E060E080E073D5E7
:1011E00084DF0BC010927E2D10927F2D1092802DE7
:1011F0001092812D8AE69CE2A0DA22E330E040E002
:1012000060E080E060D5F9CF8F929F92AF92BF925D
:10121000CF92DF92EF92FF920F931F9323DFB6D509
:101220003AD668DEF0DEDFDE60E080E0D5DE8BEF10
:1012300091E2A8DE51D11F9283E08F93812C912CF3
:101240002EE5A22EBB24B394C12CD12C33E8E32E7F
:101250003AE2F32E02E010E022E040EE5BE260E0D2
:1012600070E08DEA98E06FD498D00F900F9080E0F6
:1012700090E01F910F91FF90EF90DF90CF90BF9083
:10128000AF909F908F900895E091002FF0E0E65589
:10129000FD4D9081E92FF0E0EF5FF04DE081F0E04F
:1012A000E655FD4D808128E0929F800D11248093AA
:1012B000CF2E089527D94091CB2E5091CC2E6091FE
:1012C000CD2E7091CE2E4F5F5F4F6F4F7F4F40936B
:1012D000CB2E5093CC2E6093CD2E7093CE2E15D95D
:1012E0000CD3E8CFCF93DF931F92CDB7DEB78091B9
:1012F000CA2E813009F04DC005D990910B2F99234A
:1013000019F0915090930B2F90910B2F91113DC09C
:101310009091C92E911139C08983B6DF9091CF2E5B
:10132000E92FF0E0EE0FFF1FEC5DFA4C0190F08129
:10133000E02DE093FE2EF093FF2E2091F32E898175
:10134000921719F140A551A562A573A54F5F5F4F94
:101350006F4F7F4F40A751A762A773A74091F72E09
:101360005091F82E6091F92E7091FA2E4F5F5F4FD9
:101370006F4F7F4F4093F72E5093F82E6093F92EC6
:101380007093FA2E898373D989810F90DF91CF9161
:10139000BCC80F90DF91CF9108958091CA2E811122
:1013A00015C072DFE091CF2EE093F32EF0E0EE0F48
:1013B000FF1FEC5DFA4C808191818093FE2E90930B
:1013C000FF2E80930C2F90930D2FA1C808951F938B
:1013D000CF93DF9314D396D840910E2F50910F2FB7
:1013E0006091102F7091112F4F5F5F4F6F4F7F4FA4
:1013F00040930E2F50930F2F6093102F7093112F47
:1014000084D89091CA2E913009F04AC08091F62E6E
:10141000813009F445C038F0823019F49093F62EEB
:1014200002C01092F62EC091F42ED091F52E11E04C
:101430008AA18F33A9F166D84C8D5D8D6E8D7F8D1D
:10144000411551056105710531F14150510961099D
:1014500071094C8F5D8F6E8F7F8F452B462B472BED
:10146000D1F498A1292F277321F0987C98A319A370
:1014700001C019A298A193FD0EC09091002F2EA13A
:10148000922B9093002FECA1F0E0EF5FF04D908154
:101490002DA1922B90830E84DF85C02D36D8C8CF26
:1014A000DF91CF911F910895FC01158220E030E07B
:1014B000FC01E20FF31F16822F5F3F4F28303105EA
:1014C000B9F70895680F791F8617970721F0FC0177
:1014D0001192CF01F9CF08958F929F92AF92BF9250
:1014E000CF92DF92EF92FF920F931F93CF93DF93F0
:1014F0001F92CDB7DEB7FDD110920E2F10920F2F95
:101500001092102F1092112F10920B2F1092C92EA3
:101510001092FD2E1092CA2E1092F72E1092F82ED5
:101520001092F92E1092FA2E1092CB2E1092CC2EF1
:101530001092CD2E1092CE2E1092002FE1E0FFE2FD
:1015400011924FE2E930F407D9F71092F32E10927E
:10155000CF2E1092FE2E1092FF2E10920C2F109272
:101560000D2F60E475E082EE9FE2ACDF60E870E092
:1015700084E295E3A7DFE2EEFFE22AE932E2CF015F
:10158000805C9F4F8687978722AF33AF44E3823ECC
:10159000940711F0FC01F3CF1092F0341092F13463
:1015A0008AE992E280931C3590931D351092F42EB7
:1015B0001092F52E82EE9FE28093FB2E9093FC2EEC
:1015C00060E570E082E99FE27DDFE2E9FFE22AE97F
:1015D00032E2CF014096108281839283268737873B
:1015E0004FE2823D940711F0FC01F3CF1092D22F0D
:1015F0001092D32F1092D42F8AE992E28093E02F99
:101600009093E12F82E99FE28093092F90930A2F14
:10161000F9D11F9283E08F93812C912C40E8A42E66
:10162000B12CC12CD12C52E1E52E5FE2F52E0FEF4B
:101630001FEF2FE341E95FE260E070E08AE599E0A7
:1016400082D2AE014F5F5F4F6CE972E28FE333D21B
:1016500051D1D7D10F900F900F90DF91CF911F9163
:101660000F91FF90EF90DF90CF90BF90AF909F9041
:101670008F900895CF93DF931F92CDB7DEB70E946E
:10168000820290910B2F91113EC09091C92E911121
:101690003AC08983F9DD9091CF2EE92FF0E0EE0F6B
:1016A000FF1FEC5DFA4C0190F081E02DE093FE2EDF
:1016B000F093FF2E2091F32E8981921721F140A5FE
:1016C00051A562A573A54F5F5F4F6F4F7F4F40A736
:1016D00051A762A773A74091F72E5091F82E609101
:1016E000F92E7091FA2E4F5F5F4F6F4F7F4F4093EF
:1016F000F72E5093F82E6093F92E7093FA2E89836B
:101700000E94C30289810F90DF91CF910C948502D2
:101710002F923F924F925F926F927F929F92AF92E1
:10172000BF92CF92DF92EF92FF920F931F93CF93CE
:10173000DF9300D000D0CDB7DEB7982E69837A83CF
:101740001A012B833C83270138010E948202E0901A
:10175000FB2EF090FC2EED82FE82E114F10409F4E0
:10176000B0C0D7011E962D913C911F972093FB2E60
:101770003093FC2E0E948502E980FA80ED81FE8183
:10178000E082F18292A210A211A2148E158E168E02
:10179000178EC282D38246825782608671862482E7
:1017A0003582A286B3862B813C812487358717A298
:1017B000492D46954695469544A3292D277023A388
:1017C00081E090E0A0E0B0E07C018D0104C0EE0C6F
:1017D000FF1C001F111F4A95D2F7E6A204C0880F14
:1017E000991FAA1FBB1F2A95D2F785A3128A138AB5
:1017F000148A158A108E118E168A178A10A611A6C1
:1018000012A613A610AA11AA12AA13AA14A615A604
:1018100016A617A614AA15AA16AA17AA10AE11AED4
:101820008AE992E282AF93AF14AE15AE16AE17AE50
:10183000CF01E3D00E948202E92DF0E0EE0FFF1FFE
:10184000EC5DFA4CED80FE80E082F1820E94850220
:101850008D819E8150D00E948202E091F42EF09101
:10186000F52ED7011E96ED93FC931F9750961D926F
:101870001C925197309711F0E08AF18AED80FE803A
:10188000E092F42EF092F52E9091002FD7019696CB
:101890002C919697922B9093002F9496EC9194977D
:1018A000F0E0EF5FF04D908195962C91922B908314
:1018B0009091FD2E9F5F9093FD2E0E94850280E007
:1018C00003C00E94850282E42696CDBFDEBFDF9171
:1018D000CF911F910F91FF90EF90DF90CF90BF902D
:1018E000AF909F907F906F905F904F903F902F9020
:1018F0000895089508950C9476030C9477030F933C
:101900001F938C01222717FD2095322FFA010083A7
:10191000319710833197208331971082319780E877
:10192000808331971082319782E08083319783E002
:101930008083319784E08083319785E0808331977D
:1019400086E08083319787E08083319788E08083C9
:10195000319789E08083319780E18083319781E1FD
:101960008083319782E18083319783E1808331974F
:1019700084E18083319785E18083319786E180839C
:10198000319787E18083319788E18083319789E1BE
:101990008083319780E28083319781E28083319721
:1019A00082E28083319783E280833197608331972D
:1019B0008B011083319786E28083319787E28083A1
:1019C000319788E28083319789E28083319780E381
:1019D0008083319781E38083319710823197108221
:1019E000319710823197108231971082CA018997FE
:1019F0001F910F9108950C9478030C947D030C941F
:101A00007E03089563E270E080ED9EE25BDDE0ED31
:101A1000FEE22AE932E2CF010796108281839283A7
:101A2000258336834EE28C3E940711F0FC01F3CF00
:101A30001092EC2E1092ED2E1092EE2E8AE992E288
:101A40008093F12E9093F22E80ED9EE280932235CA
:101A50009093233508950F931F93CF93DF938C01B9
:101A600080910B2F811120C00E948202C091092F0A
:101A7000D0910A2F209731F029813A812093092FA4
:101A800030930A2F0E948502209771F083E08883AB
:101A90000B831C8319821A828AE992E28E879F87C0
:101AA000CE0102DDCE0102C080E090E0DF91CF9157
:101AB0001F910F910895FF920F931F93CF93DF9380
:101AC000F82E8B01EA0180910B2F882311F082E11F
:101AD0001BC00E9482029FEFF91205C0E0910C2FFB
:101AE000F0910D2FF2A0EF2DF0E0EE0FFF1FEC5D57
:101AF000FA4C0190F081E02D309719F0E130F105BA
:101B000029F40E94850283E4888305C002AF13AFE5
:101B10000E9485021882DF91CF911F910F91FF9053
:101B20000895237033272330310561F4FC014115FA
:101B300051056105710531F0415051096109710983
:101B40001192F5CF08952F923F924F925F926F922C
:101B50007F928F929F92AF92BF92CF92DF92EF923D
:101B6000FF920F931F93CF93DF93CDB7DEB72997E3
:101B7000CDBFDEBF8A839B836C837D834E835F836F
:101B80002983088719873701150126016401AF8C65
:101B9000B8A00E94820290910B2F992321F00E94FD
:101BA00085028CE33FC02981822E912C880C991CE0
:101BB000F401EC5DFA4C4F0120813181232B69F552
:101BC00021E030E0208331830E9485029501B2013B
:101BD000A101C701A6DF95014E815F816C817D81E6
:101BE0008A819B818CDE8201710128853985A30160
:101BF000BC0189818DDDD82E811106C08091CA2E4D
:101C0000813079F437DD0DC00E948202F401108228
:101C100011820E9485028D2D05C00E94850288E2F6
:101C200001C080E02996CDBFDEBFDF91CF911F912B
:101C30000F91FF90EF90DF90CF90BF90AF909F906B
:101C40008F907F906F905F904F903F902F9008956E
:101C5000CF92DF92EF92FF926B017C0180910B2F6C
:101C600081112CC08091C92E811128C0C114D104CA
:101C7000E104F10419F10E948202E0910C2FF0912D
:101C80000D2FA4A1B0E0AF5FB04D95A190952C9120
:101C900092239C93911107C026A120959091002F2B
:101CA00092239093002FC48ED58EE68EF78E0E94DD
:101CB0008502FF90EF90DF90CF90DCCCFF90EF900B
:101CC000DF90CF900895CF92DF92EF92FF92582F3E
:101CD000F90180910B2F81112FC08091C92E8111A4
:101CE0002DC0262F30E0ACE3B0E02DD16B017C019C
:101CF000C40ED11CE11CF11C252F30E0A0E1BEE098
:101D000022D1C60ED71EE81EF91EA8EEB3E0A70129
:101D1000960128D16B017C019F0115D128EE33E09B
:101D200040E050E0EED0C20ED31EE41EF51EC70107
:101D3000B6018EDF80E003C085E501C082E3FF903D
:101D4000EF90DF90CF9008958CEF8093000680E8AD
:101D5000809320068093400692E090936006A0E86E
:101D6000B6E092E29C93E0EAF6E092E4908310926F
:101D7000E00610920007809320078FE08093C00751
:101D800088E152968C93858B868B0895DDCFE0EEAB
:101D9000F6E08085809581700895E0EEF6E080851C
:101DA0008695817091E089270895E0EEF6E08085C0
:101DB00082FB882780F991E089270895E0EEF6E01C
:101DC000808583FB882780F991E089270895E0EEDC
:101DD000F6E080858295817091E089270895E0EE94
:101DE000F6E0808585FB882780F991E089270895B2
:101DF000E0EEF6E0808586FB882780F991E0892770
:101E00000895E0EEF6E080858095881F8827881F7A
:101E10000895E0E0F7E08085809581700895E0E026
:101E2000F7E080858695817091E089270895E0E04C
:101E3000F7E0808582FB882780F991E08927089563
:101E4000E0E0F7E0808583FB882780F991E089272F
:101E50000895E0E0F7E080858295817091E0892720
:101E60000895E0E0F7E0808585FB882780F991E020
:101E700089270895E0E0F7E0808586FB882780F9D0
:101E800091E089270895E0E0F7E080858095881F3C
:101E90008827881F0895E0ECFBE0808180648083C0
:101EA0001092C10B0895E0E4F6E088E3808B818B0B
:101EB00080E980938504E1E8F4E080818860808394
:101EC000E4E8F4E080818160808308958093860453
:101ED0008091840486FFFCCFFB01460F571FE41757
:101EE000F50741F08191809387048091840486FFF7
:101EF000FCCFF5CF211103C083E08093830480E001
:101F00000895A1E21A2EAA1BBB1BFD010DC0AA1F3A
:101F1000BB1FEE1FFF1FA217B307E407F50720F052
:101F2000A21BB30BE40BF50B661F771F881F991FCD
:101F30001A9469F760957095809590959B01AC0116
:101F4000BD01CF010895A29FB001B39FC001A39F1F
:101F5000700D811D1124911DB29F700D811D1124E2
:101F6000911D0895F0DFA59F900DB49F900DA49F43
:101F7000800D911D112408954AEA53E209C0FB0126
:101F8000DC018D91019080190110D9F3990B08950E
:101F9000FA01A191B081009719F41097E1F0CD01F9
:101FA000DC01CD010D90002011F4C00113C0FB0134
:101FB0002191222319F02015D9F7F3CFFB012191AC
:101FC000201519F41E92119606C02223C1F70D9018
:101FD0000020A1F7D001FA01A193B0830895E0ECAD
:101FE000F1E0A785A7FDFDCFA485A860A487605078
:101FF000704F4BC003D0808199270895E0ECF1E049
:10200000378537FDFDCF348538603487FC01E050DB
:10201000F04F0895DC01A40FB51F4150504040F02F
:10202000CB01840F951F2E9105D041505040D8F719
:102030000895262FE3DF0080021611F004D00197E7
:1020400001970895262FE0ECF1E0378537FDFDCFAD
:102050003485377F3487378531FF09C036E33287CF
:1020600038ED34BF31E03387378537FDFDCF33E3BB
:102070003287808391831282248325E3228728ED8F
:1020800031E024BF338701960895FB01DC0102C0D3
:1020900001900D9241505040D8F70895F894FFCF29
:1020A0005F7228005EBCE2613FDD83C29C7E20A39C
:1020B000FD1F419DC3217FFCA2401E5F01E3BD3E89
:1020C0006082DC237D9FC1421CFEA0E1BF5D0380D6
:1020D000DE3C62BEE0025CDF81633D7C22C09E1D6F
:1020E00043A1FF4618FAA427799BC584DA3866E530
:1020F000BB5907DB856739BAE406581947A5FB7851
:1021000026C49A653BD987045AB8E6A7F91B45C689
:10211000987A24F8A6441A99C7257B3A6486D85B36
:1021200005E7B98CD2306EEDB3510F4E10F2AC2FE3
:102130007193CD114FADF3702ECC92D38D6F31B220
:10214000EC0E50AFF1134DCE90722C6D33D18F0C3D
:1021500052B0EE326C8ED0530DEFB1F0AE4C129106
:10216000CF2D73CA947628ABF517490856B4EA699F
:1021700037D58B5709EBB536688AD495CB2977F4D8
:10218000AA4816E9B7550B88D6346A2B7597C94A01
:1021900014F6A8742AC896154BA9F7B6E80A54D7BE
:1021A000896B352C00726400303100B14100B243BC
:1021B00000B34500B44700B54900B64A00B74C002B
:1021C000B84E00B95000BA5200B74D01B84F01B92E
:1021D0005101BA5301BB5400BC5600BD5800BE5A51
:1021E00000BF5C00BB5501BC5701BD5901BE5B017E
:1021F000BF5D01C05E00C16000C26300C36500C472
:102200006700C05F01C16101C26401C36601C468A7
:1022100001C56900C66A00C76B00C86C00C96D00C3
:10222000CA6E00CB7100CC7400CD7700CE7A00CAA4
:102230006F01CB7201CC7501CD7801CE7B01CA70E4
:1022400002CB7302CC7602CD7902CE7C02CF7D0028
:10225000D07E00D18000D28100D38200D48400D50A
:102260008600D68800D78900D88A00D98B00DA8CFE
:1022700000DB8D00DC8F00DD9300A74100A8430048
:10228000A94500AA4700AB4900AC8300AD8500AE6C
:102290008700AF8300B0FC00000000834583938378
:1022A000658393835A834C83678372838900312EBD
:1022B0008356838583453F838583453F83453F28F8
:1022C0004129494400322E83458393836583938358
:1022D000568385284229494400332E835083438303
:1022E00057838783458343839328432900342E8370
:1022F000458356838D8367837283892844294944A3
:1023000000352E838883528367837283892844290A
:10231000494400362E834C8383837283933F834CDE
:102320003F284429494400372E834C83838372839A
:102330009383713F2844294944003F0075432F4F40
:10234000532D49492049646C6500000001000200DA
:10235000010003000100020001000400010002006E
:10236000010003000100020001000500010002005D
:10237000010003000100020001000400010002004E
:10238000010003000100020001000600010002003C
:10239000010003000100020001000400010002002E
:1023A000010003000100020001000500010002001D
:1023B000010003000100020001000400010002000E
:1023C00001000300010002000100070001000200FB
:1023D00001000300010002000100040001000200EE
:1023E00001000300010002000100050001000200DD
:1023F00001000300010002000100040001000200CE
:1024000001000300010002000100060001000200BB
:1024100001000300010002000100040001000200AD
:10242000010003000100020001000500010002009C
:10243000010003000100020001000400010002008D
:0A244000010003000100020001008A
:00000001FF
